{
  "contractName": "Supersymmetry",
  "abi": [
    {
      "inputs": [
        {
          "internalType": "address[5]",
          "name": "newValidators",
          "type": "address[5]"
        },
        {
          "internalType": "uint8",
          "name": "newBftCoefficent",
          "type": "uint8"
        },
        {
          "internalType": "uint8",
          "name": "newTimeout",
          "type": "uint8"
        },
        {
          "internalType": "address",
          "name": "newRandomContractAddress",
          "type": "address"
        }
      ],
      "payable": false,
      "stateMutability": "nonpayable",
      "type": "constructor"
    },
    {
      "anonymous": false,
      "inputs": [
        {
          "indexed": false,
          "internalType": "bytes32",
          "name": "requestHash",
          "type": "bytes32"
        },
        {
          "indexed": false,
          "internalType": "address",
          "name": "owner",
          "type": "address"
        },
        {
          "indexed": false,
          "internalType": "uint256",
          "name": "amount",
          "type": "uint256"
        }
      ],
      "name": "Mint",
      "type": "event"
    },
    {
      "anonymous": false,
      "inputs": [
        {
          "indexed": false,
          "internalType": "address",
          "name": "tokenAddress",
          "type": "address"
        }
      ],
      "name": "NewApprovedToken",
      "type": "event"
    },
    {
      "anonymous": false,
      "inputs": [
        {
          "indexed": false,
          "internalType": "bytes32",
          "name": "requestHash",
          "type": "bytes32"
        },
        {
          "indexed": false,
          "internalType": "address",
          "name": "owner",
          "type": "address"
        },
        {
          "indexed": false,
          "internalType": "string",
          "name": "target",
          "type": "string"
        }
      ],
      "name": "NewRequest",
      "type": "event"
    },
    {
      "anonymous": false,
      "inputs": [
        {
          "indexed": false,
          "internalType": "bytes32",
          "name": "requestHash",
          "type": "bytes32"
        },
        {
          "indexed": false,
          "internalType": "address",
          "name": "owner",
          "type": "address"
        },
        {
          "indexed": false,
          "internalType": "uint256",
          "name": "amount",
          "type": "uint256"
        }
      ],
      "name": "Return",
      "type": "event"
    },
    {
      "anonymous": false,
      "inputs": [
        {
          "indexed": false,
          "internalType": "bytes32",
          "name": "requestHash",
          "type": "bytes32"
        },
        {
          "indexed": false,
          "internalType": "enum Models.Status",
          "name": "status",
          "type": "uint8"
        }
      ],
      "name": "StatusChanged",
      "type": "event"
    },
    {
      "constant": true,
      "inputs": [
        {
          "internalType": "address",
          "name": "",
          "type": "address"
        }
      ],
      "name": "assetIdByErc20",
      "outputs": [
        {
          "internalType": "string",
          "name": "",
          "type": "string"
        }
      ],
      "payable": false,
      "stateMutability": "view",
      "type": "function"
    },
    {
      "constant": true,
      "inputs": [
        {
          "internalType": "string",
          "name": "",
          "type": "string"
        }
      ],
      "name": "assets",
      "outputs": [
        {
          "internalType": "address",
          "name": "tokenAddress",
          "type": "address"
        },
        {
          "internalType": "enum Models.TokenType",
          "name": "tokenType",
          "type": "uint8"
        }
      ],
      "payable": false,
      "stateMutability": "view",
      "type": "function"
    },
    {
      "constant": true,
      "inputs": [],
      "name": "bftCoefficent",
      "outputs": [
        {
          "internalType": "uint8",
          "name": "",
          "type": "uint8"
        }
      ],
      "payable": false,
      "stateMutability": "view",
      "type": "function"
    },
    {
      "constant": true,
      "inputs": [
        {
          "internalType": "bytes32",
          "name": "",
          "type": "bytes32"
        }
      ],
      "name": "externalRq",
      "outputs": [
        {
          "internalType": "bool",
          "name": "",
          "type": "bool"
        }
      ],
      "payable": false,
      "stateMutability": "view",
      "type": "function"
    },
    {
      "constant": true,
      "inputs": [],
      "name": "isWavesTokenExist",
      "outputs": [
        {
          "internalType": "bool",
          "name": "",
          "type": "bool"
        }
      ],
      "payable": false,
      "stateMutability": "view",
      "type": "function"
    },
    {
      "constant": true,
      "inputs": [],
      "name": "randomContractAddress",
      "outputs": [
        {
          "internalType": "address",
          "name": "",
          "type": "address"
        }
      ],
      "payable": false,
      "stateMutability": "view",
      "type": "function"
    },
    {
      "constant": true,
      "inputs": [
        {
          "internalType": "bytes32",
          "name": "",
          "type": "bytes32"
        }
      ],
      "name": "requests",
      "outputs": [
        {
          "internalType": "enum Models.Status",
          "name": "status",
          "type": "uint8"
        },
        {
          "internalType": "enum Models.RqType",
          "name": "rType",
          "type": "uint8"
        },
        {
          "internalType": "address payable",
          "name": "owner",
          "type": "address"
        },
        {
          "internalType": "uint256",
          "name": "height",
          "type": "uint256"
        },
        {
          "internalType": "string",
          "name": "target",
          "type": "string"
        },
        {
          "internalType": "uint256",
          "name": "tokenAmount",
          "type": "uint256"
        },
        {
          "internalType": "address",
          "name": "tokenAddress",
          "type": "address"
        }
      ],
      "payable": false,
      "stateMutability": "view",
      "type": "function"
    },
    {
      "constant": true,
      "inputs": [
        {
          "internalType": "uint256",
          "name": "",
          "type": "uint256"
        }
      ],
      "name": "validators",
      "outputs": [
        {
          "internalType": "address",
          "name": "",
          "type": "address"
        }
      ],
      "payable": false,
      "stateMutability": "view",
      "type": "function"
    },
    {
      "constant": false,
      "inputs": [
        {
          "internalType": "bytes32",
          "name": "rqHash",
          "type": "bytes32"
        },
        {
          "internalType": "string",
          "name": "assetId",
          "type": "string"
        },
        {
          "internalType": "address",
          "name": "owner",
          "type": "address"
        },
        {
          "internalType": "uint256",
          "name": "amount",
          "type": "uint256"
        },
        {
          "internalType": "uint8[5]",
          "name": "v",
          "type": "uint8[5]"
        },
        {
          "internalType": "bytes32[5]",
          "name": "r",
          "type": "bytes32[5]"
        },
        {
          "internalType": "bytes32[5]",
          "name": "s",
          "type": "bytes32[5]"
        },
        {
          "internalType": "string",
          "name": "name",
          "type": "string"
        },
        {
          "internalType": "string",
          "name": "symbol",
          "type": "string"
        },
        {
          "internalType": "uint8",
          "name": "decimals",
          "type": "uint8"
        }
      ],
      "name": "mint",
      "outputs": [],
      "payable": false,
      "stateMutability": "nonpayable",
      "type": "function"
    },
    {
      "constant": false,
      "inputs": [
        {
          "internalType": "bytes32",
          "name": "rqHash",
          "type": "bytes32"
        },
        {
          "internalType": "address",
          "name": "tokenAddress",
          "type": "address"
        },
        {
          "internalType": "string",
          "name": "assetId",
          "type": "string"
        },
        {
          "internalType": "address",
          "name": "owner",
          "type": "address"
        },
        {
          "internalType": "uint256",
          "name": "amount",
          "type": "uint256"
        },
        {
          "internalType": "uint8[5]",
          "name": "v",
          "type": "uint8[5]"
        },
        {
          "internalType": "bytes32[5]",
          "name": "r",
          "type": "bytes32[5]"
        },
        {
          "internalType": "bytes32[5]",
          "name": "s",
          "type": "bytes32[5]"
        }
      ],
      "name": "unlock",
      "outputs": [],
      "payable": false,
      "stateMutability": "nonpayable",
      "type": "function"
    },
    {
      "constant": false,
      "inputs": [
        {
          "internalType": "bytes32",
          "name": "rqHash",
          "type": "bytes32"
        },
        {
          "internalType": "string",
          "name": "assetId",
          "type": "string"
        },
        {
          "internalType": "address payable",
          "name": "owner",
          "type": "address"
        },
        {
          "internalType": "uint256",
          "name": "amount",
          "type": "uint256"
        },
        {
          "internalType": "uint8[5]",
          "name": "v",
          "type": "uint8[5]"
        },
        {
          "internalType": "bytes32[5]",
          "name": "r",
          "type": "bytes32[5]"
        },
        {
          "internalType": "bytes32[5]",
          "name": "s",
          "type": "bytes32[5]"
        }
      ],
      "name": "unlockEth",
      "outputs": [],
      "payable": true,
      "stateMutability": "payable",
      "type": "function"
    },
    {
      "constant": false,
      "inputs": [
        {
          "internalType": "bytes32",
          "name": "requestHash",
          "type": "bytes32"
        }
      ],
      "name": "withdrawPastDueReqest",
      "outputs": [],
      "payable": false,
      "stateMutability": "nonpayable",
      "type": "function"
    },
    {
      "constant": false,
      "inputs": [
        {
          "internalType": "string",
          "name": "target",
          "type": "string"
        },
        {
          "internalType": "enum Models.RqType",
          "name": "rqType",
          "type": "uint8"
        },
        {
          "internalType": "uint256",
          "name": "unlockAmount",
          "type": "uint256"
        }
      ],
      "name": "createEthRequest",
      "outputs": [
        {
          "internalType": "bytes32",
          "name": "",
          "type": "bytes32"
        }
      ],
      "payable": true,
      "stateMutability": "payable",
      "type": "function"
    },
    {
      "constant": false,
      "inputs": [
        {
          "internalType": "string",
          "name": "target",
          "type": "string"
        },
        {
          "internalType": "enum Models.RqType",
          "name": "rqType",
          "type": "uint8"
        },
        {
          "internalType": "uint256",
          "name": "amount",
          "type": "uint256"
        },
        {
          "internalType": "address",
          "name": "tokenAddress",
          "type": "address"
        }
      ],
      "name": "createTokenRequest",
      "outputs": [
        {
          "internalType": "bytes32",
          "name": "",
          "type": "bytes32"
        }
      ],
      "payable": false,
      "stateMutability": "nonpayable",
      "type": "function"
    },
    {
      "constant": false,
      "inputs": [
        {
          "internalType": "bytes32",
          "name": "requestHash",
          "type": "bytes32"
        },
        {
          "internalType": "uint8[5]",
          "name": "v",
          "type": "uint8[5]"
        },
        {
          "internalType": "bytes32[5]",
          "name": "r",
          "type": "bytes32[5]"
        },
        {
          "internalType": "bytes32[5]",
          "name": "s",
          "type": "bytes32[5]"
        },
        {
          "internalType": "enum Models.Status",
          "name": "status",
          "type": "uint8"
        }
      ],
      "name": "changeStatus",
      "outputs": [],
      "payable": false,
      "stateMutability": "nonpayable",
      "type": "function"
    }
  ],
  "bytecode": "0x60806040523480156200001157600080fd5b5060405162006aed38038062006aed83398181016040526101008110156200003857600080fd5b8101908091908260a001805190602001909291908051906020019092919080519060200190929190505050600073ffffffffffffffffffffffffffffffffffffffff16846000600581106200008957fe5b602002015173ffffffffffffffffffffffffffffffffffffffff16141562000119576040517f08c379a000000000000000000000000000000000000000000000000000000000815260040180806020018281038252600d8152602001807f656d70747920616464726573730000000000000000000000000000000000000081525060200191505060405180910390fd5b600073ffffffffffffffffffffffffffffffffffffffff16846001600581106200013f57fe5b602002015173ffffffffffffffffffffffffffffffffffffffff161415620001cf576040517f08c379a000000000000000000000000000000000000000000000000000000000815260040180806020018281038252600d8152602001807f656d70747920616464726573730000000000000000000000000000000000000081525060200191505060405180910390fd5b600073ffffffffffffffffffffffffffffffffffffffff1684600260058110620001f557fe5b602002015173ffffffffffffffffffffffffffffffffffffffff16141562000285576040517f08c379a000000000000000000000000000000000000000000000000000000000815260040180806020018281038252600d8152602001807f656d70747920616464726573730000000000000000000000000000000000000081525060200191505060405180910390fd5b600073ffffffffffffffffffffffffffffffffffffffff1684600360058110620002ab57fe5b602002015173ffffffffffffffffffffffffffffffffffffffff1614156200033b576040517f08c379a000000000000000000000000000000000000000000000000000000000815260040180806020018281038252600d8152602001807f656d70747920616464726573730000000000000000000000000000000000000081525060200191505060405180910390fd5b600073ffffffffffffffffffffffffffffffffffffffff16846004600581106200036157fe5b602002015173ffffffffffffffffffffffffffffffffffffffff161415620003f1576040517f08c379a000000000000000000000000000000000000000000000000000000000815260040180806020018281038252600d8152602001807f656d70747920616464726573730000000000000000000000000000000000000081525060200191505060405180910390fd5b816000806101000a81548160ff021916908360ff16021790555082600660006101000a81548160ff021916908360ff1602179055508360019060056200043992919062000485565b5080600660026101000a81548173ffffffffffffffffffffffffffffffffffffffff021916908373ffffffffffffffffffffffffffffffffffffffff160217905550505050506200054d565b8260058101928215620004f4579160200282015b82811115620004f35782518260006101000a81548173ffffffffffffffffffffffffffffffffffffffff021916908373ffffffffffffffffffffffffffffffffffffffff1602179055509160200191906001019062000499565b5b50905062000503919062000507565b5090565b6200054a91905b808211156200054657600081816101000a81549073ffffffffffffffffffffffffffffffffffffffff0219169055506001016200050e565b5090565b90565b616590806200055d6000396000f3fe608060405260043610620000fe5760003560e01c8063921649e31162000097578063c469ddbc1162000061578063c469ddbc14620009d8578063c5e1e8a41462000bbf578063dce5e03b1462000ec7578063e4a56b2f1462000efb57620000fe565b8063921649e314620006e45780639d866985146200073b578063a0bb30af1462000896578063a841351014620008c857620000fe565b8063329881c611620000d9578063329881c614620003e757806335aa2e4414620004265780638593622814620004a5578063889347ea14620005ca57620000fe565b8063260b9173146200010357806328e7799e14620002bc57806329db43fe146200038d575b600080fd5b620002ba60048036036102608110156200011c57600080fd5b8101908080359060200190929190803590602001906401000000008111156200014457600080fd5b8201836020820111156200015757600080fd5b803590602001918460018302840111640100000000831117156200017a57600080fd5b91908080601f016020809104026020016040519081016040528093929190818152602001838380828437600081840152601f19601f820116905080830192505050505050509192919290803573ffffffffffffffffffffffffffffffffffffffff169060200190929190803590602001909291908060a001906005806020026040519081016040528092919082600560200280828437600081840152601f19601f82011690508083019250505050505091929192908060a001906005806020026040519081016040528092919082600560200280828437600081840152601f19601f82011690508083019250505050505091929192908060a001906005806020026040519081016040528092919082600560200280828437600081840152601f19601f820116905080830192505050505050919291929050505062000fe7565b005b348015620002c957600080fd5b506200030f60048036036020811015620002e257600080fd5b81019080803573ffffffffffffffffffffffffffffffffffffffff16906020019092919050505062001661565b6040518080602001828103825283818151815260200191508051906020019080838360005b838110156200035157808201518184015260208101905062000334565b50505050905090810190601f1680156200037f5780820380516001836020036101000a031916815260200191505b509250505060405180910390f35b3480156200039a57600080fd5b50620003a562001715565b604051808273ffffffffffffffffffffffffffffffffffffffff1673ffffffffffffffffffffffffffffffffffffffff16815260200191505060405180910390f35b348015620003f457600080fd5b5062000424600480360360208110156200040d57600080fd5b81019080803590602001909291905050506200173b565b005b3480156200043357600080fd5b5062000463600480360360208110156200044c57600080fd5b810190808035906020019092919050505062001bbd565b604051808273ffffffffffffffffffffffffffffffffffffffff1673ffffffffffffffffffffffffffffffffffffffff16815260200191505060405180910390f35b348015620004b257600080fd5b506200057260048036036020811015620004cb57600080fd5b8101908080359060200190640100000000811115620004e957600080fd5b820183602082011115620004fc57600080fd5b803590602001918460018302840111640100000000831117156200051f57600080fd5b91908080601f016020809104026020016040519081016040528093929190818152602001838380828437600081840152601f19601f82011690508083019250505050505050919291929050505062001bf1565b604051808373ffffffffffffffffffffffffffffffffffffffff1673ffffffffffffffffffffffffffffffffffffffff168152602001826002811115620005b557fe5b60ff1681526020019250505060405180910390f35b348015620005d757600080fd5b50620006ce60048036036080811015620005f057600080fd5b81019080803590602001906401000000008111156200060e57600080fd5b8201836020820111156200062157600080fd5b803590602001918460018302840111640100000000831117156200064457600080fd5b91908080601f016020809104026020016040519081016040528093929190818152602001838380828437600081840152601f19601f820116905080830192505050505050509192919290803560ff16906020019092919080359060200190929190803573ffffffffffffffffffffffffffffffffffffffff16906020019092919050505062001c58565b6040518082815260200191505060405180910390f35b348015620006f157600080fd5b5062000721600480360360208110156200070a57600080fd5b8101908080359060200190929190505050620023bb565b604051808215151515815260200191505060405180910390f35b3480156200074857600080fd5b5062000778600480360360208110156200076157600080fd5b8101908080359060200190929190505050620023db565b604051808860048111156200078957fe5b60ff1681526020018760018111156200079e57fe5b60ff1681526020018673ffffffffffffffffffffffffffffffffffffffff1673ffffffffffffffffffffffffffffffffffffffff168152602001858152602001806020018481526020018373ffffffffffffffffffffffffffffffffffffffff1673ffffffffffffffffffffffffffffffffffffffff168152602001828103825285818151815260200191508051906020019080838360005b838110156200085457808201518184015260208101905062000837565b50505050905090810190601f168015620008825780820380516001836020036101000a031916815260200191505b509850505050505050505060405180910390f35b348015620008a357600080fd5b50620008ae62002513565b604051808215151515815260200191505060405180910390f35b348015620008d557600080fd5b50620009d66004803603610220811015620008ef57600080fd5b81019080803590602001909291908060a001906005806020026040519081016040528092919082600560200280828437600081840152601f19601f82011690508083019250505050505091929192908060a001906005806020026040519081016040528092919082600560200280828437600081840152601f19601f82011690508083019250505050505091929192908060a001906005806020026040519081016040528092919082600560200280828437600081840152601f19601f8201169050808301925050505050509192919290803560ff16906020019092919050505062002526565b005b348015620009e557600080fd5b5062000bbd6004803603610280811015620009ff57600080fd5b8101908080359060200190929190803573ffffffffffffffffffffffffffffffffffffffff1690602001909291908035906020019064010000000081111562000a4757600080fd5b82018360208201111562000a5a57600080fd5b8035906020019184600183028401116401000000008311171562000a7d57600080fd5b91908080601f016020809104026020016040519081016040528093929190818152602001838380828437600081840152601f19601f820116905080830192505050505050509192919290803573ffffffffffffffffffffffffffffffffffffffff169060200190929190803590602001909291908060a001906005806020026040519081016040528092919082600560200280828437600081840152601f19601f82011690508083019250505050505091929192908060a001906005806020026040519081016040528092919082600560200280828437600081840152601f19601f82011690508083019250505050505091929192908060a001906005806020026040519081016040528092919082600560200280828437600081840152601f19601f820116905080830192505050505050919291929050505062002f61565b005b34801562000bcc57600080fd5b5062000ec560048036036102c081101562000be657600080fd5b81019080803590602001909291908035906020019064010000000081111562000c0e57600080fd5b82018360208201111562000c2157600080fd5b8035906020019184600183028401116401000000008311171562000c4457600080fd5b91908080601f016020809104026020016040519081016040528093929190818152602001838380828437600081840152601f19601f820116905080830192505050505050509192919290803573ffffffffffffffffffffffffffffffffffffffff169060200190929190803590602001909291908060a001906005806020026040519081016040528092919082600560200280828437600081840152601f19601f82011690508083019250505050505091929192908060a001906005806020026040519081016040528092919082600560200280828437600081840152601f19601f82011690508083019250505050505091929192908060a001906005806020026040519081016040528092919082600560200280828437600081840152601f19601f82011690508083019250505050505091929192908035906020019064010000000081111562000d9557600080fd5b82018360208201111562000da857600080fd5b8035906020019184600183028401116401000000008311171562000dcb57600080fd5b91908080601f016020809104026020016040519081016040528093929190818152602001838380828437600081840152601f19601f8201169050808301925050505050505091929192908035906020019064010000000081111562000e2f57600080fd5b82018360208201111562000e4257600080fd5b8035906020019184600183028401116401000000008311171562000e6557600080fd5b91908080601f016020809104026020016040519081016040528093929190818152602001838380828437600081840152601f19601f820116905080830192505050505050509192919290803560ff169060200190929190505050620036fa565b005b34801562000ed457600080fd5b5062000edf62004095565b604051808260ff1660ff16815260200191505060405180910390f35b62000fd16004803603606081101562000f1357600080fd5b810190808035906020019064010000000081111562000f3157600080fd5b82018360208201111562000f4457600080fd5b8035906020019184600183028401116401000000008311171562000f6757600080fd5b91908080601f016020809104026020016040519081016040528093929190818152602001838380828437600081840152601f19601f820116905080830192505050505050509192919290803560ff16906020019092919080359060200190929190505050620040a8565b6040518082815260200191505060405180910390f35b6000809050600080905060008090505b6005811015620012c657600181600581106200100f57fe5b0160009054906101000a900473ffffffffffffffffffffffffffffffffffffffff1673ffffffffffffffffffffffffffffffffffffffff1660018b8c8c8c8c8960016040516020018088815260200187815260200186805190602001908083835b6020831062001095578051825260208201915060208101905060208303925062001070565b6001836020036101000a0380198251168184511680821785525050505050509050018573ffffffffffffffffffffffffffffffffffffffff1673ffffffffffffffffffffffffffffffffffffffff1660601b81526014018481526020018373ffffffffffffffffffffffffffffffffffffffff1673ffffffffffffffffffffffffffffffffffffffff1660601b81526014018260028111156200113457fe5b60ff1660f81b815260010197505050505050505060405160208183030381529060405260405160200180807f19457468657265756d205369676e6564204d6573736167653a0a333300000000815250601c0182805190602001908083835b60208310620011b7578051825260208201915060208101905060208303925062001192565b6001836020036101000a03801982511681845116808217855250505050505090500191505060405160208183030381529060405280519060200120888460058110620011ff57fe5b60200201518885600581106200121157fe5b60200201518886600581106200122357fe5b602002015160405160008152602001604052604051808581526020018460ff1660ff1681526020018381526020018281526020019450505050506020604051602081039080840390855afa15801562001280573d6000803e3d6000fd5b5050506020604051035173ffffffffffffffffffffffffffffffffffffffff1614620012ae576000620012b1565b60015b60ff1682019150808060010191505062000ff7565b5060006002811115620012d557fe5b6009896040518082805190602001908083835b602083106200130d5780518252602082019150602081019050602083039250620012e8565b6001836020036101000a038019825116818451168082178552505050505050905001915050908152602001604051809103902060000160149054906101000a900460ff1660028111156200135d57fe5b1415620014d75760405180604001604052808373ffffffffffffffffffffffffffffffffffffffff168152602001600160028111156200139957fe5b8152506009896040518082805190602001908083835b60208310620013d45780518252602082019150602081019050602083039250620013af565b6001836020036101000a038019825116818451168082178552505050505050905001915050908152602001604051809103902060008201518160000160006101000a81548173ffffffffffffffffffffffffffffffffffffffff021916908373ffffffffffffffffffffffffffffffffffffffff16021790555060208201518160000160146101000a81548160ff021916908360028111156200147357fe5b021790555090505087600a60008473ffffffffffffffffffffffffffffffffffffffff1673ffffffffffffffffffffffffffffffffffffffff1681526020019081526020016000209080519060200190620014d0929190620045fb565b50620015e2565b60016002811115620014e557fe5b6009896040518082805190602001908083835b602083106200151d5780518252602082019150602081019050602083039250620014f8565b6001836020036101000a038019825116818451168082178552505050505050905001915050908152602001604051809103902060000160149054906101000a900460ff1660028111156200156d57fe5b14620015e1576040517f08c379a00000000000000000000000000000000000000000000000000000000081526004018080602001828103825260128152602001807f696e76616c696420746f6b656e2074797065000000000000000000000000000081525060200191505060405180910390fd5b5b8673ffffffffffffffffffffffffffffffffffffffff166108fc879081150290604051600060405180830381858888f1935050505015801562001629573d6000803e3d6000fd5b506001600860008b815260200190815260200160002060006101000a81548160ff021916908315150217905550505050505050505050565b600a6020528060005260406000206000915090508054600181600116156101000203166002900480601f0160208091040260200160405190810160405280929190818152602001828054600181600116156101000203166002900480156200170d5780601f10620016e1576101008083540402835291602001916200170d565b820191906000526020600020905b815481529060010190602001808311620016ef57829003601f168201915b505050505081565b600660029054906101000a900473ffffffffffffffffffffffffffffffffffffffff1681565b600160048111156200174957fe5b6007600083815260200190815260200160002060000160009054906101000a900460ff1660048111156200177957fe5b14620017ed576040517f08c379a00000000000000000000000000000000000000000000000000000000081526004018080602001828103825260118152602001807f72657175657374206e6f7420657869737400000000000000000000000000000081525060200191505060405180910390fd5b6000809054906101000a900460ff1660ff1660076000838152602001908152602001600020600101540143116200188c576040517f08c379a000000000000000000000000000000000000000000000000000000000815260040180806020018281038252600d8152602001807f7271206e6f74206578706972650000000000000000000000000000000000000081525060200191505060405180910390fd5b600073ffffffffffffffffffffffffffffffffffffffff166007600083815260200190815260200160002060040160009054906101000a900473ffffffffffffffffffffffffffffffffffffffff1673ffffffffffffffffffffffffffffffffffffffff16141562001992576007600082815260200190815260200160002060000160029054906101000a900473ffffffffffffffffffffffffffffffffffffffff1673ffffffffffffffffffffffffffffffffffffffff166108fc60076000848152602001908152602001600020600301549081150290604051600060405180830381858888f193505050501580156200198b573d6000803e3d6000fd5b5062001b81565b6007600082815260200190815260200160002060040160009054906101000a900473ffffffffffffffffffffffffffffffffffffffff1673ffffffffffffffffffffffffffffffffffffffff166323b872dd306007600085815260200190815260200160002060000160029054906101000a900473ffffffffffffffffffffffffffffffffffffffff1660076000868152602001908152602001600020600301546040518463ffffffff1660e01b8152600401808473ffffffffffffffffffffffffffffffffffffffff1673ffffffffffffffffffffffffffffffffffffffff1681526020018373ffffffffffffffffffffffffffffffffffffffff1673ffffffffffffffffffffffffffffffffffffffff1681526020018281526020019350505050602060405180830381600087803b15801562001ad057600080fd5b505af115801562001ae5573d6000803e3d6000fd5b505050506040513d602081101562001afc57600080fd5b810190808051906020019092919050505062001b80576040517f08c379a000000000000000000000000000000000000000000000000000000000815260040180806020018281038252600f8152602001807f696e76616c69642062616c616e6365000000000000000000000000000000000081525060200191505060405180910390fd5b5b60046007600083815260200190815260200160002060000160006101000a81548160ff0219169083600481111562001bb557fe5b021790555050565b6001816005811062001bcb57fe5b016000915054906101000a900473ffffffffffffffffffffffffffffffffffffffff1681565b6009818051602081018201805184825260208301602085012081835280955050505050506000915090508060000160009054906101000a900473ffffffffffffffffffffffffffffffffffffffff16908060000160149054906101000a900460ff16905082565b60008073ffffffffffffffffffffffffffffffffffffffff168273ffffffffffffffffffffffffffffffffffffffff16141562001cfd576040517f08c379a00000000000000000000000000000000000000000000000000000000081526004018080602001828103825260148152602001807f696e76616c696420746f6b656e4164647265737300000000000000000000000081525060200191505060405180910390fd5b6000831162001d74576040517f08c379a00000000000000000000000000000000000000000000000000000000081526004018080602001828103825260168152602001807f76616c7565206c657373206f7220657175616c7320300000000000000000000081525060200191505060405180910390fd5b60018081111562001d8157fe5b84600181111562001d8e57fe5b148062001db357506000600181111562001da457fe5b84600181111562001db157fe5b145b1562001f26578173ffffffffffffffffffffffffffffffffffffffff166323b872dd3330866040518463ffffffff1660e01b8152600401808473ffffffffffffffffffffffffffffffffffffffff1673ffffffffffffffffffffffffffffffffffffffff1681526020018373ffffffffffffffffffffffffffffffffffffffff1673ffffffffffffffffffffffffffffffffffffffff1681526020018281526020019350505050602060405180830381600087803b15801562001e7557600080fd5b505af115801562001e8a573d6000803e3d6000fd5b505050506040513d602081101562001ea157600080fd5b810190808051906020019092919050505062001f25576040517f08c379a000000000000000000000000000000000000000000000000000000000815260040180806020018281038252600f8152602001807f696e76616c69642062616c616e6365000000000000000000000000000000000081525060200191505060405180910390fd5b5b6000600233878643604051602001808573ffffffffffffffffffffffffffffffffffffffff1673ffffffffffffffffffffffffffffffffffffffff1660601b815260140184805190602001908083835b6020831062001f9b578051825260208201915060208101905060208303925062001f76565b6001836020036101000a0380198251168184511680821785525050505050509050018381526020018281526020019450505050506040516020818303038152906040526040518082805190602001908083835b6020831062002013578051825260208201915060208101905060208303925062001fee565b6001836020036101000a038019825116818451168082178552505050505050905001915050602060405180830381855afa15801562002056573d6000803e3d6000fd5b5050506040513d60208110156200206c57600080fd5b81019080805190602001909291905050509050600060048111156200208d57fe5b6007600083815260200190815260200160002060000160009054906101000a900460ff166004811115620020bd57fe5b1462002131576040517f08c379a000000000000000000000000000000000000000000000000000000000815260040180806020018281038252600d8152602001807f726571756573742065786973740000000000000000000000000000000000000081525060200191505060405180910390fd5b6040518060e00160405280600160048111156200214a57fe5b81526020018660018111156200215c57fe5b81526020013373ffffffffffffffffffffffffffffffffffffffff1681526020014381526020018781526020018581526020018473ffffffffffffffffffffffffffffffffffffffff168152506007600083815260200190815260200160002060008201518160000160006101000a81548160ff02191690836004811115620021e157fe5b021790555060208201518160000160016101000a81548160ff021916908360018111156200220b57fe5b021790555060408201518160000160026101000a81548173ffffffffffffffffffffffffffffffffffffffff021916908373ffffffffffffffffffffffffffffffffffffffff1602179055506060820151816001015560808201518160020190805190602001906200227f92919062004682565b5060a0820151816003015560c08201518160040160006101000a81548173ffffffffffffffffffffffffffffffffffffffff021916908373ffffffffffffffffffffffffffffffffffffffff1602179055509050507fe5048cb72529de5404e374d7fdbda8558caeb479015b507903292cf51c115896813388604051808481526020018373ffffffffffffffffffffffffffffffffffffffff1673ffffffffffffffffffffffffffffffffffffffff16815260200180602001828103825283818151815260200191508051906020019080838360005b838110156200237257808201518184015260208101905062002355565b50505050905090810190601f168015620023a05780820380516001836020036101000a031916815260200191505b5094505050505060405180910390a180915050949350505050565b60086020528060005260406000206000915054906101000a900460ff1681565b60076020528060005260406000206000915090508060000160009054906101000a900460ff16908060000160019054906101000a900460ff16908060000160029054906101000a900473ffffffffffffffffffffffffffffffffffffffff1690806001015490806002018054600181600116156101000203166002900480601f016020809104026020016040519081016040528092919081815260200182805460018160011615610100020316600290048015620024dd5780601f10620024b157610100808354040283529160200191620024dd565b820191906000526020600020905b815481529060010190602001808311620024bf57829003601f168201915b5050505050908060030154908060040160009054906101000a900473ffffffffffffffffffffffffffffffffffffffff16905087565b600660019054906101000a900460ff1681565b600160048111156200253457fe5b6007600087815260200190815260200160002060000160009054906101000a900460ff1660048111156200256457fe5b14620025d8576040517f08c379a00000000000000000000000000000000000000000000000000000000081526004018080602001828103825260118152602001807f737461747573206973206e6f77206e657700000000000000000000000000000081525060200191505060405180910390fd5b60036004811115620025e657fe5b816004811115620025f357fe5b1480620026185750600260048111156200260957fe5b8160048111156200261657fe5b145b6200268b576040517f08c379a000000000000000000000000000000000000000000000000000000000815260040180806020018281038252600e8152602001807f696e76616c69642073746174757300000000000000000000000000000000000081525060200191505060405180910390fd5b6000809054906101000a900460ff1660ff166007600087815260200190815260200160002060010154014311156200272b576040517f08c379a00000000000000000000000000000000000000000000000000000000081526004018080602001828103825260098152602001807f727120657870697265000000000000000000000000000000000000000000000081525060200191505060405180910390fd5b60006007600087815260200190815260200160002060040160009054906101000a900473ffffffffffffffffffffffffffffffffffffffff169050600080905060008090505b60058110156200296f57600181600581106200278957fe5b0160009054906101000a900473ffffffffffffffffffffffffffffffffffffffff1673ffffffffffffffffffffffffffffffffffffffff16600189866004811115620027d157fe5b604051602001808381526020018260ff1660ff1660f81b81526001019250505060405160208183030381529060405260405160200180807f19457468657265756d205369676e6564204d6573736167653a0a333300000000815250601c0182805190602001908083835b602083106200286057805182526020820191506020810190506020830392506200283b565b6001836020036101000a03801982511681845116808217855250505050505090500191505060405160208183030381529060405280519060200120898460058110620028a857fe5b6020020151898560058110620028ba57fe5b6020020151898660058110620028cc57fe5b602002015160405160008152602001604052604051808581526020018460ff1660ff1681526020018381526020018281526020019450505050506020604051602081039080840390855afa15801562002929573d6000803e3d6000fd5b5050506020604051035173ffffffffffffffffffffffffffffffffffffffff1614620029575760006200295a565b60015b60ff1682019150808060010191505062002771565b50600660009054906101000a900460ff1660ff16811215620029dd576040517f08c379a0000000000000000000000000000000000000000000000000000000008152600401808060200182810382526027815260200180620065356027913960400191505060405180910390fd5b60026004811115620029eb57fe5b836004811115620029f857fe5b141562002ed25760018081111562002a0c57fe5b6007600089815260200190815260200160002060000160019054906101000a900460ff16600181111562002a3c57fe5b141562002c01578173ffffffffffffffffffffffffffffffffffffffff166323b872dd30600760008b815260200190815260200160002060000160029054906101000a900473ffffffffffffffffffffffffffffffffffffffff16600760008c8152602001908152602001600020600301546040518463ffffffff1660e01b8152600401808473ffffffffffffffffffffffffffffffffffffffff1673ffffffffffffffffffffffffffffffffffffffff1681526020018373ffffffffffffffffffffffffffffffffffffffff1673ffffffffffffffffffffffffffffffffffffffff1681526020018281526020019350505050602060405180830381600087803b15801562002b4b57600080fd5b505af115801562002b60573d6000803e3d6000fd5b505050506040513d602081101562002b7757600080fd5b810190808051906020019092919050505062002bfb576040517f08c379a000000000000000000000000000000000000000000000000000000000815260040180806020018281038252600f8152602001807f696e76616c69642062616c616e6365000000000000000000000000000000000081525060200191505060405180910390fd5b62002ed1565b6000600181111562002c0f57fe5b6007600089815260200190815260200160002060000160019054906101000a900460ff16600181111562002c3f57fe5b141562002ed057600073ffffffffffffffffffffffffffffffffffffffff168273ffffffffffffffffffffffffffffffffffffffff16141562002d16576007600088815260200190815260200160002060000160029054906101000a900473ffffffffffffffffffffffffffffffffffffffff1673ffffffffffffffffffffffffffffffffffffffff166108fc600760008a8152602001908152602001600020600301549081150290604051600060405180830381858888f1935050505015801562002d0f573d6000803e3d6000fd5b5062002ecf565b8173ffffffffffffffffffffffffffffffffffffffff166323b872dd30600760008b815260200190815260200160002060000160029054906101000a900473ffffffffffffffffffffffffffffffffffffffff16600760008c8152602001908152602001600020600301546040518463ffffffff1660e01b8152600401808473ffffffffffffffffffffffffffffffffffffffff1673ffffffffffffffffffffffffffffffffffffffff1681526020018373ffffffffffffffffffffffffffffffffffffffff1673ffffffffffffffffffffffffffffffffffffffff1681526020018281526020019350505050602060405180830381600087803b15801562002e1e57600080fd5b505af115801562002e33573d6000803e3d6000fd5b505050506040513d602081101562002e4a57600080fd5b810190808051906020019092919050505062002ece576040517f08c379a000000000000000000000000000000000000000000000000000000000815260040180806020018281038252600f8152602001807f696e76616c69642062616c616e6365000000000000000000000000000000000081525060200191505060405180910390fd5b5b5b5b5b826007600089815260200190815260200160002060000160006101000a81548160ff0219169083600481111562002f0557fe5b02179055507f22ce671cd3f328f71ef109d846af764df2d16bb8eb664c4f41065656c6e9962c87846040518083815260200182600481111562002f4457fe5b60ff1681526020019250505060405180910390a150505050505050565b600080905060008090505b60058110156200323b576001816005811062002f8457fe5b0160009054906101000a900473ffffffffffffffffffffffffffffffffffffffff1673ffffffffffffffffffffffffffffffffffffffff1660018b8c8b8b8b8f60016040516020018088815260200187815260200186805190602001908083835b602083106200300a578051825260208201915060208101905060208303925062002fe5565b6001836020036101000a0380198251168184511680821785525050505050509050018573ffffffffffffffffffffffffffffffffffffffff1673ffffffffffffffffffffffffffffffffffffffff1660601b81526014018481526020018373ffffffffffffffffffffffffffffffffffffffff1673ffffffffffffffffffffffffffffffffffffffff1660601b8152601401826002811115620030a957fe5b60ff1660f81b815260010197505050505050505060405160208183030381529060405260405160200180807f19457468657265756d205369676e6564204d6573736167653a0a333300000000815250601c0182805190602001908083835b602083106200312c578051825260208201915060208101905060208303925062003107565b6001836020036101000a038019825116818451168082178552505050505050905001915050604051602081830303815290604052805190602001208784600581106200317457fe5b60200201518785600581106200318657fe5b60200201518786600581106200319857fe5b602002015160405160008152602001604052604051808581526020018460ff1660ff1681526020018381526020018281526020019450505050506020604051602081039080840390855afa158015620031f5573d6000803e3d6000fd5b5050506020604051035173ffffffffffffffffffffffffffffffffffffffff16146200322357600062003226565b60015b60ff1682019150808060010191505062002f6c565b50600060028111156200324a57fe5b6009886040518082805190602001908083835b602083106200328257805182526020820191506020810190506020830392506200325d565b6001836020036101000a038019825116818451168082178552505050505050905001915050908152602001604051809103902060000160149054906101000a900460ff166002811115620032d257fe5b14156200344c5760405180604001604052808973ffffffffffffffffffffffffffffffffffffffff168152602001600160028111156200330e57fe5b8152506009886040518082805190602001908083835b6020831062003349578051825260208201915060208101905060208303925062003324565b6001836020036101000a038019825116818451168082178552505050505050905001915050908152602001604051809103902060008201518160000160006101000a81548173ffffffffffffffffffffffffffffffffffffffff021916908373ffffffffffffffffffffffffffffffffffffffff16021790555060208201518160000160146101000a81548160ff02191690836002811115620033e857fe5b021790555090505086600a60008a73ffffffffffffffffffffffffffffffffffffffff1673ffffffffffffffffffffffffffffffffffffffff168152602001908152602001600020908051906020019062003445929190620045fb565b5062003557565b600160028111156200345a57fe5b6009886040518082805190602001908083835b602083106200349257805182526020820191506020810190506020830392506200346d565b6001836020036101000a038019825116818451168082178552505050505050905001915050908152602001604051809103902060000160149054906101000a900460ff166002811115620034e257fe5b1462003556576040517f08c379a00000000000000000000000000000000000000000000000000000000081526004018080602001828103825260128152602001807f696e76616c696420746f6b656e2074797065000000000000000000000000000081525060200191505060405180910390fd5b5b8773ffffffffffffffffffffffffffffffffffffffff166323b872dd3088886040518463ffffffff1660e01b8152600401808473ffffffffffffffffffffffffffffffffffffffff1673ffffffffffffffffffffffffffffffffffffffff1681526020018373ffffffffffffffffffffffffffffffffffffffff1673ffffffffffffffffffffffffffffffffffffffff1681526020018281526020019350505050602060405180830381600087803b1580156200361357600080fd5b505af115801562003628573d6000803e3d6000fd5b505050506040513d60208110156200363f57600080fd5b8101908080519060200190929190505050620036c3576040517f08c379a00000000000000000000000000000000000000000000000000000000081526004018080602001828103825260108152602001807f696e76616c6964207472616e736665720000000000000000000000000000000081525060200191505060405180910390fd5b6001600860008b815260200190815260200160002060006101000a81548160ff021916908315150217905550505050505050505050565b600080905060008090505b600581101562003a5857600181600581106200371d57fe5b0160009054906101000a900473ffffffffffffffffffffffffffffffffffffffff1673ffffffffffffffffffffffffffffffffffffffff1660018d8e8e8e8e8b8b8b6002604051602001808a815260200189815260200188805190602001908083835b60208310620037a5578051825260208201915060208101905060208303925062003780565b6001836020036101000a0380198251168184511680821785525050505050509050018773ffffffffffffffffffffffffffffffffffffffff1673ffffffffffffffffffffffffffffffffffffffff1660601b815260140186815260200185805190602001908083835b602083106200383357805182526020820191506020810190506020830392506200380e565b6001836020036101000a03801982511681845116808217855250505050505090500184805190602001908083835b6020831062003886578051825260208201915060208101905060208303925062003861565b6001836020036101000a0380198251168184511680821785525050505050509050018360ff1660ff1660f81b8152600101826002811115620038c457fe5b60ff1660f81b8152600101995050505050505050505060405160208183030381529060405260405160200180807f19457468657265756d205369676e6564204d6573736167653a0a333300000000815250601c0182805190602001908083835b6020831062003949578051825260208201915060208101905060208303925062003924565b6001836020036101000a038019825116818451168082178552505050505050905001915050604051602081830303815290604052805190602001208a84600581106200399157fe5b60200201518a8560058110620039a357fe5b60200201518a8660058110620039b557fe5b602002015160405160008152602001604052604051808581526020018460ff1660ff1681526020018381526020018281526020019450505050506020604051602081039080840390855afa15801562003a12573d6000803e3d6000fd5b5050506020604051035173ffffffffffffffffffffffffffffffffffffffff161462003a4057600062003a43565b60015b60ff1682019150808060010191505062003705565b50600080600281111562003a6857fe5b60098c6040518082805190602001908083835b6020831062003aa0578051825260208201915060208101905060208303925062003a7b565b6001836020036101000a038019825116818451168082178552505050505050905001915050908152602001604051809103902060000160149054906101000a900460ff16600281111562003af057fe5b141562003d885784848460405162003b089062004709565b8080602001806020018460ff1660ff168152602001838103835286818151815260200191508051906020019080838360005b8381101562003b5757808201518184015260208101905062003b3a565b50505050905090810190601f16801562003b855780820380516001836020036101000a031916815260200191505b50838103825285818151815260200191508051906020019080838360005b8381101562003bc057808201518184015260208101905062003ba3565b50505050905090810190601f16801562003bee5780820380516001836020036101000a031916815260200191505b5095505050505050604051809103906000f08015801562003c13573d6000803e3d6000fd5b50905060405180604001604052808273ffffffffffffffffffffffffffffffffffffffff16815260200160028081111562003c4a57fe5b81525060098c6040518082805190602001908083835b6020831062003c85578051825260208201915060208101905060208303925062003c60565b6001836020036101000a038019825116818451168082178552505050505050905001915050908152602001604051809103902060008201518160000160006101000a81548173ffffffffffffffffffffffffffffffffffffffff021916908373ffffffffffffffffffffffffffffffffffffffff16021790555060208201518160000160146101000a81548160ff0219169083600281111562003d2457fe5b02179055509050508a600a60008373ffffffffffffffffffffffffffffffffffffffff1673ffffffffffffffffffffffffffffffffffffffff168152602001908152602001600020908051906020019062003d81929190620045fb565b5062003f23565b60028081111562003d9557fe5b60098c6040518082805190602001908083835b6020831062003dcd578051825260208201915060208101905060208303925062003da8565b6001836020036101000a038019825116818451168082178552505050505050905001915050908152602001604051809103902060000160149054906101000a900460ff16600281111562003e1d57fe5b1462003e91576040517f08c379a00000000000000000000000000000000000000000000000000000000081526004018080602001828103825260128152602001807f696e76616c696420746f6b656e2074797065000000000000000000000000000081525060200191505060405180910390fd5b60098b6040518082805190602001908083835b6020831062003ec9578051825260208201915060208101905060208303925062003ea4565b6001836020036101000a038019825116818451168082178552505050505050905001915050908152602001604051809103902060000160009054906101000a900473ffffffffffffffffffffffffffffffffffffffff1690505b8073ffffffffffffffffffffffffffffffffffffffff166340c10f198b8b6040518363ffffffff1660e01b8152600401808373ffffffffffffffffffffffffffffffffffffffff1673ffffffffffffffffffffffffffffffffffffffff16815260200182815260200192505050602060405180830381600087803b15801562003fab57600080fd5b505af115801562003fc0573d6000803e3d6000fd5b505050506040513d602081101562003fd757600080fd5b81019080805190602001909291905050506200405b576040517f08c379a000000000000000000000000000000000000000000000000000000000815260040180806020018281038252600c8152602001807f696e76616c6964206d696e74000000000000000000000000000000000000000081525060200191505060405180910390fd5b6001600860008e815260200190815260200160002060006101000a81548160ff021916908315150217905550505050505050505050505050565b600660009054906101000a900460ff1681565b6000806001811115620040b757fe5b836001811115620040c457fe5b1462004138576040517f08c379a00000000000000000000000000000000000000000000000000000000081526004018080602001828103825260208152602001807f72712074797065206973206e6f7420657175616c7320746f6b656e207479706581525060200191505060405180910390fd5b60008060018111156200414757fe5b8460018111156200415457fe5b1462004161578262004163565b345b90506000600233878443604051602001808573ffffffffffffffffffffffffffffffffffffffff1673ffffffffffffffffffffffffffffffffffffffff1660601b815260140184805190602001908083835b60208310620041da5780518252602082019150602081019050602083039250620041b5565b6001836020036101000a0380198251168184511680821785525050505050509050018381526020018281526020019450505050506040516020818303038152906040526040518082805190602001908083835b602083106200425257805182526020820191506020810190506020830392506200422d565b6001836020036101000a038019825116818451168082178552505050505050905001915050602060405180830381855afa15801562004295573d6000803e3d6000fd5b5050506040513d6020811015620042ab57600080fd5b8101908080519060200190929190505050905060006004811115620042cc57fe5b6007600083815260200190815260200160002060000160009054906101000a900460ff166004811115620042fc57fe5b1462004370576040517f08c379a000000000000000000000000000000000000000000000000000000000815260040180806020018281038252600d8152602001807f726571756573742065786973740000000000000000000000000000000000000081525060200191505060405180910390fd5b6040518060e00160405280600160048111156200438957fe5b81526020018660018111156200439b57fe5b81526020013373ffffffffffffffffffffffffffffffffffffffff168152602001438152602001878152602001838152602001600073ffffffffffffffffffffffffffffffffffffffff168152506007600083815260200190815260200160002060008201518160000160006101000a81548160ff021916908360048111156200442157fe5b021790555060208201518160000160016101000a81548160ff021916908360018111156200444b57fe5b021790555060408201518160000160026101000a81548173ffffffffffffffffffffffffffffffffffffffff021916908373ffffffffffffffffffffffffffffffffffffffff160217905550606082015181600101556080820151816002019080519060200190620044bf92919062004682565b5060a0820151816003015560c08201518160040160006101000a81548173ffffffffffffffffffffffffffffffffffffffff021916908373ffffffffffffffffffffffffffffffffffffffff1602179055509050507fe5048cb72529de5404e374d7fdbda8558caeb479015b507903292cf51c115896813388604051808481526020018373ffffffffffffffffffffffffffffffffffffffff1673ffffffffffffffffffffffffffffffffffffffff16815260200180602001828103825283818151815260200191508051906020019080838360005b83811015620045b257808201518184015260208101905062004595565b50505050905090810190601f168015620045e05780820380516001836020036101000a031916815260200191505b5094505050505060405180910390a180925050509392505050565b828054600181600116156101000203166002900490600052602060002090601f016020900481019282601f106200463e57805160ff19168380011785556200466f565b828001600101855582156200466f579182015b828111156200466e57825182559160200191906001019062004651565b5b5090506200467e919062004717565b5090565b828054600181600116156101000203166002900490600052602060002090601f016020900481019282601f10620046c557805160ff1916838001178555620046f6565b82800160010185558215620046f6579182015b82811115620046f5578251825591602001919060010190620046d8565b5b50905062004705919062004717565b5090565b611df5806200474083390190565b6200473c91905b80821115620047385760008160009055506001016200471e565b5090565b9056fe60806040523480156200001157600080fd5b5060405162001df538038062001df5833981810160405260608110156200003757600080fd5b81019080805160405193929190846401000000008211156200005857600080fd5b838201915060208201858111156200006f57600080fd5b82518660018202830111640100000000821117156200008d57600080fd5b8083526020830192505050908051906020019080838360005b83811015620000c3578082015181840152602081019050620000a6565b50505050905090810190601f168015620000f15780820380516001836020036101000a031916815260200191505b50604052602001805160405193929190846401000000008211156200011557600080fd5b838201915060208201858111156200012c57600080fd5b82518660018202830111640100000000821117156200014a57600080fd5b8083526020830192505050908051906020019080838360005b838110156200018057808201518184015260208101905062000163565b50505050905090810190601f168015620001ae5780820380516001836020036101000a031916815260200191505b5060405260200180519060200190929190505050620001e2620001d66200023860201b60201c565b6200024060201b60201c565b8260049080519060200190620001fa92919062000465565b5081600590805190602001906200021392919062000465565b5080600660006101000a81548160ff021916908360ff16021790555050505062000514565b600033905090565b6200025b816003620002a160201b6200156e1790919060201c565b8073ffffffffffffffffffffffffffffffffffffffff167f6ae172837ea30b801fbfcdd4108aa1d5bf8ff775444fd70256b44e6bf3dfc3f660405160405180910390a250565b620002b382826200038560201b60201c565b1562000327576040517f08c379a000000000000000000000000000000000000000000000000000000000815260040180806020018281038252601f8152602001807f526f6c65733a206163636f756e7420616c72656164792068617320726f6c650081525060200191505060405180910390fd5b60018260000160008373ffffffffffffffffffffffffffffffffffffffff1673ffffffffffffffffffffffffffffffffffffffff16815260200190815260200160002060006101000a81548160ff0219169083151502179055505050565b60008073ffffffffffffffffffffffffffffffffffffffff168273ffffffffffffffffffffffffffffffffffffffff1614156200040e576040517f08c379a000000000000000000000000000000000000000000000000000000000815260040180806020018281038252602281526020018062001dd36022913960400191505060405180910390fd5b8260000160008373ffffffffffffffffffffffffffffffffffffffff1673ffffffffffffffffffffffffffffffffffffffff16815260200190815260200160002060009054906101000a900460ff16905092915050565b828054600181600116156101000203166002900490600052602060002090601f016020900481019282601f10620004a857805160ff1916838001178555620004d9565b82800160010185558215620004d9579182015b82811115620004d8578251825591602001919060010190620004bb565b5b509050620004e89190620004ec565b5090565b6200051191905b808211156200050d576000816000905550600101620004f3565b5090565b90565b6118af80620005246000396000f3fe608060405234801561001057600080fd5b50600436106100f55760003560e01c806370a0823111610097578063a457c2d711610066578063a457c2d7146104a0578063a9059cbb14610506578063aa271e1a1461056c578063dd62ed3e146105c8576100f5565b806370a082311461037757806395d89b41146103cf578063983b2d56146104525780639865027514610496576100f5565b806323b872dd116100d357806323b872dd14610201578063313ce5671461028757806339509351146102ab57806340c10f1914610311576100f5565b806306fdde03146100fa578063095ea7b31461017d57806318160ddd146101e3575b600080fd5b610102610640565b6040518080602001828103825283818151815260200191508051906020019080838360005b83811015610142578082015181840152602081019050610127565b50505050905090810190601f16801561016f5780820380516001836020036101000a031916815260200191505b509250505060405180910390f35b6101c96004803603604081101561019357600080fd5b81019080803573ffffffffffffffffffffffffffffffffffffffff169060200190929190803590602001909291905050506106e2565b604051808215151515815260200191505060405180910390f35b6101eb610700565b6040518082815260200191505060405180910390f35b61026d6004803603606081101561021757600080fd5b81019080803573ffffffffffffffffffffffffffffffffffffffff169060200190929190803573ffffffffffffffffffffffffffffffffffffffff1690602001909291908035906020019092919050505061070a565b604051808215151515815260200191505060405180910390f35b61028f6107e3565b604051808260ff1660ff16815260200191505060405180910390f35b6102f7600480360360408110156102c157600080fd5b81019080803573ffffffffffffffffffffffffffffffffffffffff169060200190929190803590602001909291905050506107fa565b604051808215151515815260200191505060405180910390f35b61035d6004803603604081101561032757600080fd5b81019080803573ffffffffffffffffffffffffffffffffffffffff169060200190929190803590602001909291905050506108ad565b604051808215151515815260200191505060405180910390f35b6103b96004803603602081101561038d57600080fd5b81019080803573ffffffffffffffffffffffffffffffffffffffff169060200190929190505050610928565b6040518082815260200191505060405180910390f35b6103d7610970565b6040518080602001828103825283818151815260200191508051906020019080838360005b838110156104175780820151818401526020810190506103fc565b50505050905090810190601f1680156104445780820380516001836020036101000a031916815260200191505b509250505060405180910390f35b6104946004803603602081101561046857600080fd5b81019080803573ffffffffffffffffffffffffffffffffffffffff169060200190929190505050610a12565b005b61049e610a83565b005b6104ec600480360360408110156104b657600080fd5b81019080803573ffffffffffffffffffffffffffffffffffffffff16906020019092919080359060200190929190505050610a95565b604051808215151515815260200191505060405180910390f35b6105526004803603604081101561051c57600080fd5b81019080803573ffffffffffffffffffffffffffffffffffffffff16906020019092919080359060200190929190505050610b62565b604051808215151515815260200191505060405180910390f35b6105ae6004803603602081101561058257600080fd5b81019080803573ffffffffffffffffffffffffffffffffffffffff169060200190929190505050610b80565b604051808215151515815260200191505060405180910390f35b61062a600480360360408110156105de57600080fd5b81019080803573ffffffffffffffffffffffffffffffffffffffff169060200190929190803573ffffffffffffffffffffffffffffffffffffffff169060200190929190505050610b9d565b6040518082815260200191505060405180910390f35b606060048054600181600116156101000203166002900480601f0160208091040260200160405190810160405280929190818152602001828054600181600116156101000203166002900480156106d85780601f106106ad576101008083540402835291602001916106d8565b820191906000526020600020905b8154815290600101906020018083116106bb57829003601f168201915b5050505050905090565b60006106f66106ef610c24565b8484610c2c565b6001905092915050565b6000600254905090565b6000610717848484610e23565b6107d884610723610c24565b6107d3856040518060600160405280602881526020016117c360289139600160008b73ffffffffffffffffffffffffffffffffffffffff1673ffffffffffffffffffffffffffffffffffffffff1681526020019081526020016000206000610789610c24565b73ffffffffffffffffffffffffffffffffffffffff1673ffffffffffffffffffffffffffffffffffffffff168152602001908152602001600020546110d99092919063ffffffff16565b610c2c565b600190509392505050565b6000600660009054906101000a900460ff16905090565b60006108a3610807610c24565b8461089e8560016000610818610c24565b73ffffffffffffffffffffffffffffffffffffffff1673ffffffffffffffffffffffffffffffffffffffff16815260200190815260200160002060008973ffffffffffffffffffffffffffffffffffffffff1673ffffffffffffffffffffffffffffffffffffffff1681526020019081526020016000205461119990919063ffffffff16565b610c2c565b6001905092915050565b60006108bf6108ba610c24565b610b80565b610914576040517f08c379a00000000000000000000000000000000000000000000000000000000081526004018080602001828103825260308152602001806117726030913960400191505060405180910390fd5b61091e8383611221565b6001905092915050565b60008060008373ffffffffffffffffffffffffffffffffffffffff1673ffffffffffffffffffffffffffffffffffffffff168152602001908152602001600020549050919050565b606060058054600181600116156101000203166002900480601f016020809104026020016040519081016040528092919081815260200182805460018160011615610100020316600290048015610a085780601f106109dd57610100808354040283529160200191610a08565b820191906000526020600020905b8154815290600101906020018083116109eb57829003601f168201915b5050505050905090565b610a22610a1d610c24565b610b80565b610a77576040517f08c379a00000000000000000000000000000000000000000000000000000000081526004018080602001828103825260308152602001806117726030913960400191505060405180910390fd5b610a80816113dc565b50565b610a93610a8e610c24565b611436565b565b6000610b58610aa2610c24565b84610b53856040518060600160405280602581526020016118566025913960016000610acc610c24565b73ffffffffffffffffffffffffffffffffffffffff1673ffffffffffffffffffffffffffffffffffffffff16815260200190815260200160002060008a73ffffffffffffffffffffffffffffffffffffffff1673ffffffffffffffffffffffffffffffffffffffff168152602001908152602001600020546110d99092919063ffffffff16565b610c2c565b6001905092915050565b6000610b76610b6f610c24565b8484610e23565b6001905092915050565b6000610b9682600361149090919063ffffffff16565b9050919050565b6000600160008473ffffffffffffffffffffffffffffffffffffffff1673ffffffffffffffffffffffffffffffffffffffff16815260200190815260200160002060008373ffffffffffffffffffffffffffffffffffffffff1673ffffffffffffffffffffffffffffffffffffffff16815260200190815260200160002054905092915050565b600033905090565b600073ffffffffffffffffffffffffffffffffffffffff168373ffffffffffffffffffffffffffffffffffffffff161415610cb2576040517f08c379a00000000000000000000000000000000000000000000000000000000081526004018080602001828103825260248152602001806118326024913960400191505060405180910390fd5b600073ffffffffffffffffffffffffffffffffffffffff168273ffffffffffffffffffffffffffffffffffffffff161415610d38576040517f08c379a000000000000000000000000000000000000000000000000000000000815260040180806020018281038252602281526020018061172a6022913960400191505060405180910390fd5b80600160008573ffffffffffffffffffffffffffffffffffffffff1673ffffffffffffffffffffffffffffffffffffffff16815260200190815260200160002060008473ffffffffffffffffffffffffffffffffffffffff1673ffffffffffffffffffffffffffffffffffffffff168152602001908152602001600020819055508173ffffffffffffffffffffffffffffffffffffffff168373ffffffffffffffffffffffffffffffffffffffff167f8c5be1e5ebec7d5bd14f71427d1e84f3dd0314c0f7b2291e5b200ac8c7c3b925836040518082815260200191505060405180910390a3505050565b600073ffffffffffffffffffffffffffffffffffffffff168373ffffffffffffffffffffffffffffffffffffffff161415610ea9576040517f08c379a000000000000000000000000000000000000000000000000000000000815260040180806020018281038252602581526020018061180d6025913960400191505060405180910390fd5b600073ffffffffffffffffffffffffffffffffffffffff168273ffffffffffffffffffffffffffffffffffffffff161415610f2f576040517f08c379a00000000000000000000000000000000000000000000000000000000081526004018080602001828103825260238152602001806117076023913960400191505060405180910390fd5b610f9a8160405180606001604052806026815260200161174c602691396000808773ffffffffffffffffffffffffffffffffffffffff1673ffffffffffffffffffffffffffffffffffffffff168152602001908152602001600020546110d99092919063ffffffff16565b6000808573ffffffffffffffffffffffffffffffffffffffff1673ffffffffffffffffffffffffffffffffffffffff1681526020019081526020016000208190555061102d816000808573ffffffffffffffffffffffffffffffffffffffff1673ffffffffffffffffffffffffffffffffffffffff1681526020019081526020016000205461119990919063ffffffff16565b6000808473ffffffffffffffffffffffffffffffffffffffff1673ffffffffffffffffffffffffffffffffffffffff168152602001908152602001600020819055508173ffffffffffffffffffffffffffffffffffffffff168373ffffffffffffffffffffffffffffffffffffffff167fddf252ad1be2c89b69c2b068fc378daa952ba7f163c4a11628f55a4df523b3ef836040518082815260200191505060405180910390a3505050565b6000838311158290611186576040517f08c379a00000000000000000000000000000000000000000000000000000000081526004018080602001828103825283818151815260200191508051906020019080838360005b8381101561114b578082015181840152602081019050611130565b50505050905090810190601f1680156111785780820380516001836020036101000a031916815260200191505b509250505060405180910390fd5b5060008385039050809150509392505050565b600080828401905083811015611217576040517f08c379a000000000000000000000000000000000000000000000000000000000815260040180806020018281038252601b8152602001807f536166654d6174683a206164646974696f6e206f766572666c6f77000000000081525060200191505060405180910390fd5b8091505092915050565b600073ffffffffffffffffffffffffffffffffffffffff168273ffffffffffffffffffffffffffffffffffffffff1614156112c4576040517f08c379a000000000000000000000000000000000000000000000000000000000815260040180806020018281038252601f8152602001807f45524332303a206d696e7420746f20746865207a65726f20616464726573730081525060200191505060405180910390fd5b6112d98160025461119990919063ffffffff16565b600281905550611330816000808573ffffffffffffffffffffffffffffffffffffffff1673ffffffffffffffffffffffffffffffffffffffff1681526020019081526020016000205461119990919063ffffffff16565b6000808473ffffffffffffffffffffffffffffffffffffffff1673ffffffffffffffffffffffffffffffffffffffff168152602001908152602001600020819055508173ffffffffffffffffffffffffffffffffffffffff16600073ffffffffffffffffffffffffffffffffffffffff167fddf252ad1be2c89b69c2b068fc378daa952ba7f163c4a11628f55a4df523b3ef836040518082815260200191505060405180910390a35050565b6113f081600361156e90919063ffffffff16565b8073ffffffffffffffffffffffffffffffffffffffff167f6ae172837ea30b801fbfcdd4108aa1d5bf8ff775444fd70256b44e6bf3dfc3f660405160405180910390a250565b61144a81600361164990919063ffffffff16565b8073ffffffffffffffffffffffffffffffffffffffff167fe94479a9f7e1952cc78f2d6baab678adc1b772d936c6583def489e524cb6669260405160405180910390a250565b60008073ffffffffffffffffffffffffffffffffffffffff168273ffffffffffffffffffffffffffffffffffffffff161415611517576040517f08c379a00000000000000000000000000000000000000000000000000000000081526004018080602001828103825260228152602001806117eb6022913960400191505060405180910390fd5b8260000160008373ffffffffffffffffffffffffffffffffffffffff1673ffffffffffffffffffffffffffffffffffffffff16815260200190815260200160002060009054906101000a900460ff16905092915050565b6115788282611490565b156115eb576040517f08c379a000000000000000000000000000000000000000000000000000000000815260040180806020018281038252601f8152602001807f526f6c65733a206163636f756e7420616c72656164792068617320726f6c650081525060200191505060405180910390fd5b60018260000160008373ffffffffffffffffffffffffffffffffffffffff1673ffffffffffffffffffffffffffffffffffffffff16815260200190815260200160002060006101000a81548160ff0219169083151502179055505050565b6116538282611490565b6116a8576040517f08c379a00000000000000000000000000000000000000000000000000000000081526004018080602001828103825260218152602001806117a26021913960400191505060405180910390fd5b60008260000160008373ffffffffffffffffffffffffffffffffffffffff1673ffffffffffffffffffffffffffffffffffffffff16815260200190815260200160002060006101000a81548160ff021916908315150217905550505056fe45524332303a207472616e7366657220746f20746865207a65726f206164647265737345524332303a20617070726f766520746f20746865207a65726f206164647265737345524332303a207472616e7366657220616d6f756e7420657863656564732062616c616e63654d696e746572526f6c653a2063616c6c657220646f6573206e6f74206861766520746865204d696e74657220726f6c65526f6c65733a206163636f756e7420646f6573206e6f74206861766520726f6c6545524332303a207472616e7366657220616d6f756e74206578636565647320616c6c6f77616e6365526f6c65733a206163636f756e7420697320746865207a65726f206164647265737345524332303a207472616e736665722066726f6d20746865207a65726f206164647265737345524332303a20617070726f76652066726f6d20746865207a65726f206164647265737345524332303a2064656372656173656420616c6c6f77616e63652062656c6f77207a65726fa265627a7a72315820f6bde5ebe0e825ce8c92211c6ef74e9037c34f2ca5bb95b27ed77fd19f5cc29c64736f6c63430005100032526f6c65733a206163636f756e7420697320746865207a65726f206164647265737361646d696e7320766f746520636f756e74206973206c65737320626674436f6566666963656e74a265627a7a72315820a291efcb7cb0210f4c970e153b3318fd316219a313d4dc1ff0629fb1b3fc80e464736f6c63430005100032",
  "source": "pragma solidity >=0.5.16 <=0.6.6;\n\nimport \"./Token.sol\";\nimport \"./Models.sol\";\n\ncontract Supersymmetry {\n    event NewRequest(bytes32 requestHash, address owner, string target);\n    event NewApprovedToken(address tokenAddress);\n    event StatusChanged(bytes32 requestHash, Models.Status status);\n    event Mint(bytes32 requestHash, address owner, uint amount);\n    event Return(bytes32 requestHash, address owner, uint amount);\n\n    uint8 timeout;\n    address[5] public validators;\n    uint8 public bftCoefficent;\n    bool public isWavesTokenExist;\n    address public randomContractAddress;\n    mapping(bytes32 => Models.Request) public requests;\n    mapping(bytes32 => bool) public externalRq;\n    mapping(string => Models.Token) public assets;\n    mapping(address => string) public assetIdByErc20;\n\n    constructor(address[5] memory newValidators, uint8 newBftCoefficent, uint8 newTimeout, address newRandomContractAddress) public {\n        require(newValidators[0] != address(0x00), \"empty address\");\n        require(newValidators[1] != address(0x00), \"empty address\");\n        require(newValidators[2] != address(0x00), \"empty address\");\n        require(newValidators[3] != address(0x00), \"empty address\");\n        require(newValidators[4] != address(0x00), \"empty address\");\n\n        timeout = newTimeout;\n        bftCoefficent = newBftCoefficent;\n        validators = newValidators;\n        randomContractAddress = newRandomContractAddress;\n    }\n\n  /*  function newWavesToken() public {\n        require(isWavesTokenExist == false, \"waves token exist\");\n        address tokenAddress = address(new Token(\"WAVES\", \"WAVES\", 8));\n        tokens[tokenAddress] = Models.Token(\"WAVES\", Models.TokenType.InputToken, Models.Status.Success, 8);\n        isWavesTokenExist = true;\n        emit NewApprovedToken(tokenAddress);\n    }*/\n/*\n    function registerNativeToken(address tokenAddress, string memory assetId) public {\n        require(tokens[tokenAddress].status == Models.Status.None, \"ivalid tokenAddress\");\n        tokens[tokenAddress] = Models.Token(assetId, Models.TokenType.NativeToken, Models.Status.New, Token(tokenAddress).decimals());\n    }\n\n    function registerInputToken(string memory assetId, string memory name, string memory symbol, uint8 decimals) public {\n        address tokenAddress = address(new Token(name, symbol, decimals));\n        tokens[tokenAddress] = Models.Token(assetId, Models.TokenType.InputToken, Models.Status.New, decimals);\n    }\n*/\n    function mint(bytes32 rqHash, string memory assetId, address owner, uint256 amount,\n        uint8[5] memory v, bytes32[5] memory r, bytes32[5] memory s, string memory name, string memory symbol, uint8 decimals) public {\n\n        int count = 0;\n        for(uint i = 0; i < 5; i++) {\n            count += ecrecover(keccak256(abi.encodePacked(\"\\x19Ethereum Signed Message:\\n33\", abi.encodePacked(rqHash,\n                rqHash, assetId, owner, amount, name, symbol, decimals, Models.TokenType.External))),\n                v[i], r[i], s[i]) == validators[i] ? 1 : 0;\n        }\n\n        address tokenAddress;\n        if (assets[assetId].tokenType == Models.TokenType.None) {\n            tokenAddress = address(new Token(name, symbol, decimals));\n            assets[assetId] = Models.Token(tokenAddress, Models.TokenType.External);\n            assetIdByErc20[tokenAddress] = assetId;\n        } else {\n            require(assets[assetId].tokenType == Models.TokenType.External, \"invalid token type\");\n            tokenAddress = assets[assetId].tokenAddress;\n        }\n\n        require(Token(tokenAddress).mint(owner, amount), \"invalid mint\");\n        externalRq[rqHash] = true;\n    }\n\n    function unlock(bytes32 rqHash, address tokenAddress, string memory assetId, address owner, uint256 amount,\n        uint8[5] memory v, bytes32[5] memory r, bytes32[5] memory s) public {\n\n        int count = 0;\n        for(uint i = 0; i < 5; i++) {\n            count += ecrecover(keccak256(abi.encodePacked(\"\\x19Ethereum Signed Message:\\n33\", abi.encodePacked(rqHash,\n                rqHash, assetId, owner, amount, tokenAddress, Models.TokenType.Internal))),\n                v[i], r[i], s[i]) == validators[i] ? 1 : 0;\n        }\n\n        if (assets[assetId].tokenType == Models.TokenType.None) {\n            assets[assetId] = Models.Token(tokenAddress, Models.TokenType.Internal);\n            assetIdByErc20[tokenAddress] = assetId;\n        } else {\n            require(assets[assetId].tokenType == Models.TokenType.Internal, \"invalid token type\");\n        }\n\n        require(Token(tokenAddress).transferFrom(address(this), owner, amount), \"invalid transfer\");\n        externalRq[rqHash] = true;\n    }\n\n    function unlockEth(bytes32 rqHash, string memory assetId, address payable owner, uint256 amount,\n        uint8[5] memory v, bytes32[5] memory r, bytes32[5] memory s) public payable {\n\n        address tokenAddress = address(0x00);\n        int count = 0;\n        for(uint i = 0; i < 5; i++) {\n            count += ecrecover(keccak256(abi.encodePacked(\"\\x19Ethereum Signed Message:\\n33\", abi.encodePacked(rqHash,\n                rqHash, assetId, owner, amount, tokenAddress, Models.TokenType.Internal))),\n                v[i], r[i], s[i]) == validators[i] ? 1 : 0;\n        }\n\n        if (assets[assetId].tokenType == Models.TokenType.None) {\n            assets[assetId] = Models.Token(tokenAddress, Models.TokenType.Internal);\n            assetIdByErc20[tokenAddress] = assetId;\n        } else {\n            require(assets[assetId].tokenType == Models.TokenType.Internal, \"invalid token type\");\n        }\n\n        owner.transfer(amount);\n        externalRq[rqHash] = true;\n    }\n\n\n    function withdrawPastDueReqest(bytes32 requestHash) public {\n        require(requests[requestHash].status == Models.Status.New, \"request not exist\");\n        require(block.number > requests[requestHash].height + timeout, \"rq not expire\");\n\n        if (requests[requestHash].tokenAddress == address(0x00)) {\n            requests[requestHash].owner.transfer(requests[requestHash].tokenAmount);\n        } else {\n            require(Token(requests[requestHash].tokenAddress).transferFrom(address(this), requests[requestHash].owner, requests[requestHash].tokenAmount), \"invalid balance\");\n        }\n        requests[requestHash].status = Models.Status.Returned;\n    }\n\n    function createEthRequest(string memory target, Models.RqType rqType, uint unlockAmount) public payable returns (bytes32) {\n        require(rqType == Models.RqType.Lock, \"rq type is not equals token type\");\n\n        uint amount = rqType == Models.RqType.Lock ? msg.value : unlockAmount;\n        bytes32 requestHash = sha256(abi.encodePacked(msg.sender, target, amount, block.number));\n        require(requests[requestHash].status == Models.Status.None, \"request exist\");\n\n        requests[requestHash] = Models.Request(\n            {status: Models.Status.New, rType: rqType, owner: msg.sender, target: target, height: block.number, tokenAmount: amount, tokenAddress: address(0x00) });\n        emit NewRequest(requestHash, msg.sender, target);\n        return requestHash;\n    }\n\n    function createTokenRequest(string memory target, Models.RqType rqType, uint256 amount, address tokenAddress) public returns (bytes32) {\n\n        require(tokenAddress != address(0x00), \"invalid tokenAddress\");\n        require(amount > 0, \"value less or equals 0\");\n\n        if (rqType == Models.RqType.Burn || rqType == Models.RqType.Lock) {\n            require(Token(tokenAddress).transferFrom(msg.sender, address(this), amount), \"invalid balance\");\n        }\n\n        bytes32 requestHash = sha256(abi.encodePacked(msg.sender, target, amount, block.number));\n        require(requests[requestHash].status == Models.Status.None, \"request exist\");\n\n        requests[requestHash] = Models.Request(\n            {status: Models.Status.New, rType: rqType, owner: msg.sender, target: target, height: block.number, tokenAmount: amount, tokenAddress: tokenAddress });\n        emit NewRequest(requestHash, msg.sender, target);\n        return requestHash;\n    }\n\n    function changeStatus(bytes32 requestHash, uint8[5] memory v, bytes32[5] memory r, bytes32[5] memory s, Models.Status status) public {\n        require(requests[requestHash].status == Models.Status.New, \"status is now new\");\n        require(status == Models.Status.Success || status == Models.Status.Rejected, \"invalid status\");\n        require(block.number <= requests[requestHash].height + timeout, \"rq expire\");\n\n        address tokenAddress = requests[requestHash].tokenAddress;\n        int count = 0;\n        for(uint i = 0; i < 5; i++) {\n            count += ecrecover(keccak256(abi.encodePacked(\"\\x19Ethereum Signed Message:\\n33\", abi.encodePacked(requestHash, uint8(status)))),\n                v[i], r[i], s[i]) == validators[i] ? 1 : 0;\n        }\n\n        require(count >= bftCoefficent, \"admins vote count is less bftCoefficent\");\n\n        if (status == Models.Status.Rejected) {\n             if (requests[requestHash].rType == Models.RqType.Burn) {\n                 require(Token(tokenAddress).transferFrom(address(this), requests[requestHash].owner, requests[requestHash].tokenAmount), \"invalid balance\");\n        } else if (requests[requestHash].rType == Models.RqType.Lock) {\n                if (tokenAddress == address(0x00)) {\n                    requests[requestHash].owner.transfer(requests[requestHash].tokenAmount);\n                } else {\n                    require(Token(tokenAddress).transferFrom(address(this), requests[requestHash].owner, requests[requestHash].tokenAmount), \"invalid balance\");\n                }\n             }\n         }\n        requests[requestHash].status = status;\n        emit StatusChanged(requestHash, status);\n    }\n}",
  "sourcePath": "/home/cryptobadboy/github/GravityHub/gateway-contract/ethereum/contracts/Supersymmetry.sol",
  "compiler": {
    "name": "solc",
    "version": "0.5.16+commit.9c3226ce.Emscripten.clang"
  },
  "schemaVersion": "3.1.0",
  "updatedAt": "2020-04-22T23:07:38.310Z",
  "devdoc": {
    "methods": {}
  },
  "userdoc": {
    "methods": {}
  }
}