{
  "contractName": "Supersymmetry",
  "abi": [
    {
      "inputs": [
        {
          "internalType": "address[5]",
          "name": "newAdmins",
          "type": "address[5]"
        },
        {
          "internalType": "uint8",
          "name": "newBftCoefficent",
          "type": "uint8"
        },
        {
          "internalType": "string",
          "name": "ethAssetId",
          "type": "string"
        },
        {
          "internalType": "uint8",
          "name": "newTimeout",
          "type": "uint8"
        }
      ],
      "payable": false,
      "stateMutability": "nonpayable",
      "type": "constructor"
    },
    {
      "anonymous": false,
      "inputs": [
        {
          "indexed": false,
          "internalType": "bytes32",
          "name": "requestHash",
          "type": "bytes32"
        },
        {
          "indexed": false,
          "internalType": "address",
          "name": "owner",
          "type": "address"
        },
        {
          "indexed": false,
          "internalType": "uint256",
          "name": "amount",
          "type": "uint256"
        }
      ],
      "name": "Mint",
      "type": "event"
    },
    {
      "anonymous": false,
      "inputs": [
        {
          "indexed": false,
          "internalType": "address",
          "name": "tokenAddress",
          "type": "address"
        }
      ],
      "name": "NewApprovedToken",
      "type": "event"
    },
    {
      "anonymous": false,
      "inputs": [
        {
          "indexed": false,
          "internalType": "bytes32",
          "name": "requestHash",
          "type": "bytes32"
        },
        {
          "indexed": false,
          "internalType": "address",
          "name": "owner",
          "type": "address"
        },
        {
          "indexed": false,
          "internalType": "string",
          "name": "target",
          "type": "string"
        }
      ],
      "name": "NewRequest",
      "type": "event"
    },
    {
      "anonymous": false,
      "inputs": [
        {
          "indexed": false,
          "internalType": "bytes32",
          "name": "requestHash",
          "type": "bytes32"
        },
        {
          "indexed": false,
          "internalType": "address",
          "name": "owner",
          "type": "address"
        },
        {
          "indexed": false,
          "internalType": "uint256",
          "name": "amount",
          "type": "uint256"
        }
      ],
      "name": "Return",
      "type": "event"
    },
    {
      "anonymous": false,
      "inputs": [
        {
          "indexed": false,
          "internalType": "bytes32",
          "name": "requestHash",
          "type": "bytes32"
        },
        {
          "indexed": false,
          "internalType": "enum Models.Status",
          "name": "status",
          "type": "uint8"
        }
      ],
      "name": "StatusChanged",
      "type": "event"
    },
    {
      "constant": true,
      "inputs": [
        {
          "internalType": "uint256",
          "name": "",
          "type": "uint256"
        }
      ],
      "name": "admins",
      "outputs": [
        {
          "internalType": "address",
          "name": "",
          "type": "address"
        }
      ],
      "payable": false,
      "stateMutability": "view",
      "type": "function"
    },
    {
      "constant": true,
      "inputs": [],
      "name": "bftCoefficent",
      "outputs": [
        {
          "internalType": "uint8",
          "name": "",
          "type": "uint8"
        }
      ],
      "payable": false,
      "stateMutability": "view",
      "type": "function"
    },
    {
      "constant": true,
      "inputs": [],
      "name": "isWavesTokenExist",
      "outputs": [
        {
          "internalType": "bool",
          "name": "",
          "type": "bool"
        }
      ],
      "payable": false,
      "stateMutability": "view",
      "type": "function"
    },
    {
      "constant": true,
      "inputs": [
        {
          "internalType": "bytes32",
          "name": "",
          "type": "bytes32"
        }
      ],
      "name": "requests",
      "outputs": [
        {
          "internalType": "enum Models.Status",
          "name": "status",
          "type": "uint8"
        },
        {
          "internalType": "enum Models.RqType",
          "name": "rType",
          "type": "uint8"
        },
        {
          "internalType": "address payable",
          "name": "owner",
          "type": "address"
        },
        {
          "internalType": "uint256",
          "name": "height",
          "type": "uint256"
        },
        {
          "internalType": "string",
          "name": "target",
          "type": "string"
        },
        {
          "internalType": "uint256",
          "name": "tokenAmount",
          "type": "uint256"
        },
        {
          "internalType": "address",
          "name": "tokenAddress",
          "type": "address"
        },
        {
          "internalType": "string",
          "name": "targetRqId",
          "type": "string"
        }
      ],
      "payable": false,
      "stateMutability": "view",
      "type": "function"
    },
    {
      "constant": true,
      "inputs": [
        {
          "internalType": "address",
          "name": "",
          "type": "address"
        }
      ],
      "name": "tokens",
      "outputs": [
        {
          "internalType": "string",
          "name": "assetId",
          "type": "string"
        },
        {
          "internalType": "enum Models.TokenType",
          "name": "tokenType",
          "type": "uint8"
        },
        {
          "internalType": "enum Models.Status",
          "name": "status",
          "type": "uint8"
        },
        {
          "internalType": "uint8",
          "name": "decimals",
          "type": "uint8"
        }
      ],
      "payable": false,
      "stateMutability": "view",
      "type": "function"
    },
    {
      "constant": false,
      "inputs": [],
      "name": "newWavesToken",
      "outputs": [],
      "payable": false,
      "stateMutability": "nonpayable",
      "type": "function"
    },
    {
      "constant": false,
      "inputs": [
        {
          "internalType": "address",
          "name": "tokenAddress",
          "type": "address"
        },
        {
          "internalType": "string",
          "name": "assetId",
          "type": "string"
        }
      ],
      "name": "registerNativeToken",
      "outputs": [],
      "payable": false,
      "stateMutability": "nonpayable",
      "type": "function"
    },
    {
      "constant": false,
      "inputs": [
        {
          "internalType": "string",
          "name": "assetId",
          "type": "string"
        },
        {
          "internalType": "string",
          "name": "name",
          "type": "string"
        },
        {
          "internalType": "string",
          "name": "symbol",
          "type": "string"
        },
        {
          "internalType": "uint8",
          "name": "decimals",
          "type": "uint8"
        }
      ],
      "name": "registerInputToken",
      "outputs": [],
      "payable": false,
      "stateMutability": "nonpayable",
      "type": "function"
    },
    {
      "constant": false,
      "inputs": [
        {
          "internalType": "address",
          "name": "tokenAddress",
          "type": "address"
        },
        {
          "internalType": "uint8[5]",
          "name": "v",
          "type": "uint8[5]"
        },
        {
          "internalType": "bytes32[5]",
          "name": "r",
          "type": "bytes32[5]"
        },
        {
          "internalType": "bytes32[5]",
          "name": "s",
          "type": "bytes32[5]"
        },
        {
          "internalType": "enum Models.Status",
          "name": "status",
          "type": "uint8"
        }
      ],
      "name": "changeTokenStatus",
      "outputs": [],
      "payable": false,
      "stateMutability": "nonpayable",
      "type": "function"
    },
    {
      "constant": false,
      "inputs": [
        {
          "internalType": "bytes32",
          "name": "requestHash",
          "type": "bytes32"
        }
      ],
      "name": "withdrawPastDueReqest",
      "outputs": [],
      "payable": false,
      "stateMutability": "nonpayable",
      "type": "function"
    },
    {
      "constant": false,
      "inputs": [
        {
          "internalType": "string",
          "name": "target",
          "type": "string"
        },
        {
          "internalType": "enum Models.RqType",
          "name": "rqType",
          "type": "uint8"
        },
        {
          "internalType": "uint256",
          "name": "unlockAmount",
          "type": "uint256"
        }
      ],
      "name": "createEthRequest",
      "outputs": [
        {
          "internalType": "bytes32",
          "name": "",
          "type": "bytes32"
        }
      ],
      "payable": true,
      "stateMutability": "payable",
      "type": "function"
    },
    {
      "constant": false,
      "inputs": [
        {
          "internalType": "string",
          "name": "target",
          "type": "string"
        },
        {
          "internalType": "enum Models.RqType",
          "name": "rqType",
          "type": "uint8"
        },
        {
          "internalType": "uint256",
          "name": "amount",
          "type": "uint256"
        },
        {
          "internalType": "address",
          "name": "tokenAddress",
          "type": "address"
        },
        {
          "internalType": "string",
          "name": "requestIdOrNull",
          "type": "string"
        }
      ],
      "name": "createTokenRequest",
      "outputs": [
        {
          "internalType": "bytes32",
          "name": "",
          "type": "bytes32"
        }
      ],
      "payable": false,
      "stateMutability": "nonpayable",
      "type": "function"
    },
    {
      "constant": false,
      "inputs": [
        {
          "internalType": "bytes32",
          "name": "requestHash",
          "type": "bytes32"
        },
        {
          "internalType": "uint8[5]",
          "name": "v",
          "type": "uint8[5]"
        },
        {
          "internalType": "bytes32[5]",
          "name": "r",
          "type": "bytes32[5]"
        },
        {
          "internalType": "bytes32[5]",
          "name": "s",
          "type": "bytes32[5]"
        },
        {
          "internalType": "enum Models.Status",
          "name": "status",
          "type": "uint8"
        }
      ],
      "name": "changeStatus",
      "outputs": [],
      "payable": false,
      "stateMutability": "nonpayable",
      "type": "function"
    }
  ],
  "bytecode": "0x60806040523480156200001157600080fd5b50604051620068613803806200686183398181016040526101008110156200003857600080fd5b8101908091908260a00180519060200190929190805160405193929190846401000000008211156200006957600080fd5b838201915060208201858111156200008057600080fd5b82518660018202830111640100000000821117156200009e57600080fd5b8083526020830192505050908051906020019080838360005b83811015620000d4578082015181840152602081019050620000b7565b50505050905090810190601f168015620001025780820380516001836020036101000a031916815260200191505b5060405260200180519060200190929190505050600073ffffffffffffffffffffffffffffffffffffffff16846000600581106200013c57fe5b602002015173ffffffffffffffffffffffffffffffffffffffff161415620001cc576040517f08c379a000000000000000000000000000000000000000000000000000000000815260040180806020018281038252600d8152602001807f656d70747920616464726573730000000000000000000000000000000000000081525060200191505060405180910390fd5b600073ffffffffffffffffffffffffffffffffffffffff1684600160058110620001f257fe5b602002015173ffffffffffffffffffffffffffffffffffffffff16141562000282576040517f08c379a000000000000000000000000000000000000000000000000000000000815260040180806020018281038252600d8152602001807f656d70747920616464726573730000000000000000000000000000000000000081525060200191505060405180910390fd5b600073ffffffffffffffffffffffffffffffffffffffff1684600260058110620002a857fe5b602002015173ffffffffffffffffffffffffffffffffffffffff16141562000338576040517f08c379a000000000000000000000000000000000000000000000000000000000815260040180806020018281038252600d8152602001807f656d70747920616464726573730000000000000000000000000000000000000081525060200191505060405180910390fd5b600073ffffffffffffffffffffffffffffffffffffffff16846003600581106200035e57fe5b602002015173ffffffffffffffffffffffffffffffffffffffff161415620003ee576040517f08c379a000000000000000000000000000000000000000000000000000000000815260040180806020018281038252600d8152602001807f656d70747920616464726573730000000000000000000000000000000000000081525060200191505060405180910390fd5b600073ffffffffffffffffffffffffffffffffffffffff16846004600581106200041457fe5b602002015173ffffffffffffffffffffffffffffffffffffffff161415620004a4576040517f08c379a000000000000000000000000000000000000000000000000000000000815260040180806020018281038252600d8152602001807f656d70747920616464726573730000000000000000000000000000000000000081525060200191505060405180910390fd5b604051806080016040528083815260200160006001811115620004c357fe5b815260200160036004811115620004d657fe5b8152602001601260ff16815250600860008073ffffffffffffffffffffffffffffffffffffffff1673ffffffffffffffffffffffffffffffffffffffff1681526020019081526020016000206000820151816000019080519060200190620005409291906200060c565b5060208201518160010160006101000a81548160ff021916908360018111156200056657fe5b021790555060408201518160010160016101000a81548160ff021916908360048111156200059057fe5b021790555060608201518160010160026101000a81548160ff021916908360ff160217905550905050806000806101000a81548160ff021916908360ff16021790555082600660006101000a81548160ff021916908360ff1602179055508360019060056200060192919062000693565b505050505062000783565b828054600181600116156101000203166002900490600052602060002090601f016020900481019282601f106200064f57805160ff191683800117855562000680565b8280016001018555821562000680579182015b828111156200067f57825182559160200191906001019062000662565b5b5090506200068f919062000715565b5090565b826005810192821562000702579160200282015b82811115620007015782518260006101000a81548173ffffffffffffffffffffffffffffffffffffffff021916908373ffffffffffffffffffffffffffffffffffffffff16021790555091602001919060010190620006a7565b5b5090506200071191906200073d565b5090565b6200073a91905b80821115620007365760008160009055506001016200071c565b5090565b90565b6200078091905b808211156200077c57600081816101000a81549073ffffffffffffffffffffffffffffffffffffffff02191690555060010162000744565b5090565b90565b6160ce80620007936000396000f3fe608060405260043610620000d45760003560e01c8063a8413510116200008b578063e48603391162000061578063e4860339146200098a578063e4a56b2f1462000a94578063f488f8021462000b80578063f66dedaa1462000ca657620000d4565b8063a84135101462000636578063dce5e03b1462000746578063e122be20146200077a57620000d4565b8063040e68b514620000d957806314bfd6d0146200028d578063329881c6146200030c5780636944afe7146200034b5780639d866985146200043a578063a0bb30af1462000604575b600080fd5b348015620000e657600080fd5b5062000277600480360360a0811015620000ff57600080fd5b81019080803590602001906401000000008111156200011d57600080fd5b8201836020820111156200013057600080fd5b803590602001918460018302840111640100000000831117156200015357600080fd5b91908080601f016020809104026020016040519081016040528093929190818152602001838380828437600081840152601f19601f820116905080830192505050505050509192919290803560ff16906020019092919080359060200190929190803573ffffffffffffffffffffffffffffffffffffffff16906020019092919080359060200190640100000000811115620001ee57600080fd5b8201836020820111156200020157600080fd5b803590602001918460018302840111640100000000831117156200022457600080fd5b91908080601f016020809104026020016040519081016040528093929190818152602001838380828437600081840152601f19601f82011690508083019250505050505050919291929050505062000cc0565b6040518082815260200191505060405180910390f35b3480156200029a57600080fd5b50620002ca60048036036020811015620002b357600080fd5b810190808035906020019092919050505062001807565b604051808273ffffffffffffffffffffffffffffffffffffffff1673ffffffffffffffffffffffffffffffffffffffff16815260200191505060405180910390f35b3480156200031957600080fd5b5062000349600480360360208110156200033257600080fd5b81019080803590602001909291905050506200183b565b005b3480156200035857600080fd5b5062000438600480360360408110156200037157600080fd5b81019080803573ffffffffffffffffffffffffffffffffffffffff16906020019092919080359060200190640100000000811115620003af57600080fd5b820183602082011115620003c257600080fd5b80359060200191846001830284011164010000000083111715620003e557600080fd5b91908080601f016020809104026020016040519081016040528093929190818152602001838380828437600081840152601f19601f82011690508083019250505050505050919291929050505062001cbd565b005b3480156200044757600080fd5b5062000477600480360360208110156200046057600080fd5b810190808035906020019092919050505062001f36565b604051808960048111156200048857fe5b60ff1681526020018860038111156200049d57fe5b60ff1681526020018773ffffffffffffffffffffffffffffffffffffffff1673ffffffffffffffffffffffffffffffffffffffff168152602001868152602001806020018581526020018473ffffffffffffffffffffffffffffffffffffffff1673ffffffffffffffffffffffffffffffffffffffff16815260200180602001838103835287818151815260200191508051906020019080838360005b83811015620005575780820151818401526020810190506200053a565b50505050905090810190601f168015620005855780820380516001836020036101000a031916815260200191505b50838103825284818151815260200191508051906020019080838360005b83811015620005c0578082015181840152602081019050620005a3565b50505050905090810190601f168015620005ee5780820380516001836020036101000a031916815260200191505b509a505050505050505050505060405180910390f35b3480156200061157600080fd5b506200061c62002110565b604051808215151515815260200191505060405180910390f35b3480156200064357600080fd5b506200074460048036036102208110156200065d57600080fd5b81019080803590602001909291908060a001906005806020026040519081016040528092919082600560200280828437600081840152601f19601f82011690508083019250505050505091929192908060a001906005806020026040519081016040528092919082600560200280828437600081840152601f19601f82011690508083019250505050505091929192908060a001906005806020026040519081016040528092919082600560200280828437600081840152601f19601f8201169050808301925050505050509192919290803560ff16906020019092919050505062002123565b005b3480156200075357600080fd5b506200075e62003026565b604051808260ff1660ff16815260200191505060405180910390f35b3480156200078757600080fd5b506200098860048036036080811015620007a057600080fd5b8101908080359060200190640100000000811115620007be57600080fd5b820183602082011115620007d157600080fd5b80359060200191846001830284011164010000000083111715620007f457600080fd5b91908080601f016020809104026020016040519081016040528093929190818152602001838380828437600081840152601f19601f820116905080830192505050505050509192919290803590602001906401000000008111156200085857600080fd5b8201836020820111156200086b57600080fd5b803590602001918460018302840111640100000000831117156200088e57600080fd5b91908080601f016020809104026020016040519081016040528093929190818152602001838380828437600081840152601f19601f82011690508083019250505050505050919291929080359060200190640100000000811115620008f257600080fd5b8201836020820111156200090557600080fd5b803590602001918460018302840111640100000000831117156200092857600080fd5b91908080601f016020809104026020016040519081016040528093929190818152602001838380828437600081840152601f19601f820116905080830192505050505050509192919290803560ff16906020019092919050505062003039565b005b3480156200099757600080fd5b50620009dd60048036036020811015620009b057600080fd5b81019080803573ffffffffffffffffffffffffffffffffffffffff16906020019092919050505062003274565b6040518080602001856001811115620009f257fe5b60ff16815260200184600481111562000a0757fe5b60ff1681526020018360ff1660ff168152602001828103825286818151815260200191508051906020019080838360005b8381101562000a5557808201518184015260208101905062000a38565b50505050905090810190601f16801562000a835780820380516001836020036101000a031916815260200191505b509550505050505060405180910390f35b62000b6a6004803603606081101562000aac57600080fd5b810190808035906020019064010000000081111562000aca57600080fd5b82018360208201111562000add57600080fd5b8035906020019184600183028401116401000000008311171562000b0057600080fd5b91908080601f016020809104026020016040519081016040528093929190818152602001838380828437600081840152601f19601f820116905080830192505050505050509192919290803560ff1690602001909291908035906020019092919050505062003367565b6040518082815260200191505060405180910390f35b34801562000b8d57600080fd5b5062000ca4600480360361022081101562000ba757600080fd5b81019080803573ffffffffffffffffffffffffffffffffffffffff1690602001909291908060a001906005806020026040519081016040528092919082600560200280828437600081840152601f19601f82011690508083019250505050505091929192908060a001906005806020026040519081016040528092919082600560200280828437600081840152601f19601f82011690508083019250505050505091929192908060a001906005806020026040519081016040528092919082600560200280828437600081840152601f19601f8201169050808301925050505050509192919290803560ff1690602001909291905050506200394a565b005b34801562000cb357600080fd5b5062000cbe62003ebb565b005b60008073ffffffffffffffffffffffffffffffffffffffff168373ffffffffffffffffffffffffffffffffffffffff16141562000d65576040517f08c379a00000000000000000000000000000000000000000000000000000000081526004018080602001828103825260148152602001807f696e76616c696420746f6b656e4164647265737300000000000000000000000081525060200191505060405180910390fd5b6003600481111562000d7357fe5b600860008573ffffffffffffffffffffffffffffffffffffffff1673ffffffffffffffffffffffffffffffffffffffff16815260200190815260200160002060010160019054906101000a900460ff16600481111562000dcf57fe5b1462000e43576040517f08c379a00000000000000000000000000000000000000000000000000000000081526004018080602001828103825260138152602001807f6976616c696420746f6b656e416464726573730000000000000000000000000081525060200191505060405180910390fd5b6000841162000eba576040517f08c379a00000000000000000000000000000000000000000000000000000000081526004018080602001828103825260168152602001807f76616c7565206c657373206f7220657175616c7320300000000000000000000081525060200191505060405180910390fd5b6000600181111562000ec857fe5b600860008573ffffffffffffffffffffffffffffffffffffffff1673ffffffffffffffffffffffffffffffffffffffff16815260200190815260200160002060010160009054906101000a900460ff16600181111562000f2457fe5b14801562000f6e57506000600381111562000f3b57fe5b85600381111562000f4857fe5b148062000f6d57506001600381111562000f5e57fe5b85600381111562000f6b57fe5b145b5b62000fe1576040517f08c379a00000000000000000000000000000000000000000000000000000000081526004018080602001828103825260208152602001807f72712074797065206973206e6f7420657175616c7320746f6b656e207479706581525060200191505060405180910390fd5b60018081111562000fee57fe5b600860008573ffffffffffffffffffffffffffffffffffffffff1673ffffffffffffffffffffffffffffffffffffffff16815260200190815260200160002060010160009054906101000a900460ff1660018111156200104a57fe5b1480156200109357506003808111156200106057fe5b8560038111156200106d57fe5b1480620010925750600260038111156200108357fe5b8560038111156200109057fe5b145b5b62001106576040517f08c379a00000000000000000000000000000000000000000000000000000000081526004018080602001828103825260208152602001807f72712074797065206973206e6f7420657175616c7320746f6b656e207479706581525060200191505060405180910390fd5b6003808111156200111357fe5b8560038111156200112057fe5b1480620011455750600060038111156200113657fe5b8560038111156200114357fe5b145b15620012b8578273ffffffffffffffffffffffffffffffffffffffff166323b872dd3330876040518463ffffffff1660e01b8152600401808473ffffffffffffffffffffffffffffffffffffffff1673ffffffffffffffffffffffffffffffffffffffff1681526020018373ffffffffffffffffffffffffffffffffffffffff1673ffffffffffffffffffffffffffffffffffffffff1681526020018281526020019350505050602060405180830381600087803b1580156200120757600080fd5b505af11580156200121c573d6000803e3d6000fd5b505050506040513d60208110156200123357600080fd5b8101908080519060200190929190505050620012b7576040517f08c379a000000000000000000000000000000000000000000000000000000000815260040180806020018281038252600f8152602001807f696e76616c69642062616c616e6365000000000000000000000000000000000081525060200191505060405180910390fd5b5b600060023033898843604051602001808673ffffffffffffffffffffffffffffffffffffffff1673ffffffffffffffffffffffffffffffffffffffff1660601b81526014018573ffffffffffffffffffffffffffffffffffffffff1673ffffffffffffffffffffffffffffffffffffffff1660601b815260140184805190602001908083835b602083106200136357805182526020820191506020810190506020830392506200133e565b6001836020036101000a038019825116818451168082178552505050505050905001838152602001828152602001955050505050506040516020818303038152906040526040518082805190602001908083835b60208310620013dc5780518252602082019150602081019050602083039250620013b7565b6001836020036101000a038019825116818451168082178552505050505050905001915050602060405180830381855afa1580156200141f573d6000803e3d6000fd5b5050506040513d60208110156200143557600080fd5b81019080805190602001909291905050509050600060048111156200145657fe5b6007600083815260200190815260200160002060000160009054906101000a900460ff1660048111156200148657fe5b14620014fa576040517f08c379a000000000000000000000000000000000000000000000000000000000815260040180806020018281038252600d8152602001807f726571756573742065786973740000000000000000000000000000000000000081525060200191505060405180910390fd5b604051806101000160405280600160048111156200151457fe5b81526020018760038111156200152657fe5b81526020013373ffffffffffffffffffffffffffffffffffffffff1681526020014381526020018881526020018681526020018573ffffffffffffffffffffffffffffffffffffffff168152602001600160038111156200158357fe5b8860038111156200159057fe5b1480620015b5575060026003811115620015a657fe5b886003811115620015b357fe5b145b620015d05760405180602001604052806000815250620015d2565b845b8152506007600083815260200190815260200160002060008201518160000160006101000a81548160ff021916908360048111156200160d57fe5b021790555060208201518160000160016101000a81548160ff021916908360038111156200163757fe5b021790555060408201518160000160026101000a81548173ffffffffffffffffffffffffffffffffffffffff021916908373ffffffffffffffffffffffffffffffffffffffff160217905550606082015181600101556080820151816002019080519060200190620016ab929190620041c0565b5060a0820151816003015560c08201518160040160006101000a81548173ffffffffffffffffffffffffffffffffffffffff021916908373ffffffffffffffffffffffffffffffffffffffff16021790555060e08201518160050190805190602001906200171b929190620041c0565b509050507fe5048cb72529de5404e374d7fdbda8558caeb479015b507903292cf51c115896813389604051808481526020018373ffffffffffffffffffffffffffffffffffffffff1673ffffffffffffffffffffffffffffffffffffffff16815260200180602001828103825283818151815260200191508051906020019080838360005b83811015620017bd578082015181840152602081019050620017a0565b50505050905090810190601f168015620017eb5780820380516001836020036101000a031916815260200191505b5094505050505060405180910390a18091505095945050505050565b600181600581106200181557fe5b016000915054906101000a900473ffffffffffffffffffffffffffffffffffffffff1681565b600160048111156200184957fe5b6007600083815260200190815260200160002060000160009054906101000a900460ff1660048111156200187957fe5b14620018ed576040517f08c379a00000000000000000000000000000000000000000000000000000000081526004018080602001828103825260118152602001807f72657175657374206e6f7420657869737400000000000000000000000000000081525060200191505060405180910390fd5b6000809054906101000a900460ff1660ff1660076000838152602001908152602001600020600101540143116200198c576040517f08c379a000000000000000000000000000000000000000000000000000000000815260040180806020018281038252600d8152602001807f7271206e6f74206578706972650000000000000000000000000000000000000081525060200191505060405180910390fd5b600073ffffffffffffffffffffffffffffffffffffffff166007600083815260200190815260200160002060040160009054906101000a900473ffffffffffffffffffffffffffffffffffffffff1673ffffffffffffffffffffffffffffffffffffffff16141562001a92576007600082815260200190815260200160002060000160029054906101000a900473ffffffffffffffffffffffffffffffffffffffff1673ffffffffffffffffffffffffffffffffffffffff166108fc60076000848152602001908152602001600020600301549081150290604051600060405180830381858888f1935050505015801562001a8b573d6000803e3d6000fd5b5062001c81565b6007600082815260200190815260200160002060040160009054906101000a900473ffffffffffffffffffffffffffffffffffffffff1673ffffffffffffffffffffffffffffffffffffffff166323b872dd306007600085815260200190815260200160002060000160029054906101000a900473ffffffffffffffffffffffffffffffffffffffff1660076000868152602001908152602001600020600301546040518463ffffffff1660e01b8152600401808473ffffffffffffffffffffffffffffffffffffffff1673ffffffffffffffffffffffffffffffffffffffff1681526020018373ffffffffffffffffffffffffffffffffffffffff1673ffffffffffffffffffffffffffffffffffffffff1681526020018281526020019350505050602060405180830381600087803b15801562001bd057600080fd5b505af115801562001be5573d6000803e3d6000fd5b505050506040513d602081101562001bfc57600080fd5b810190808051906020019092919050505062001c80576040517f08c379a000000000000000000000000000000000000000000000000000000000815260040180806020018281038252600f8152602001807f696e76616c69642062616c616e6365000000000000000000000000000000000081525060200191505060405180910390fd5b5b60046007600083815260200190815260200160002060000160006101000a81548160ff0219169083600481111562001cb557fe5b021790555050565b6000600481111562001ccb57fe5b600860008473ffffffffffffffffffffffffffffffffffffffff1673ffffffffffffffffffffffffffffffffffffffff16815260200190815260200160002060010160019054906101000a900460ff16600481111562001d2757fe5b1462001d9b576040517f08c379a00000000000000000000000000000000000000000000000000000000081526004018080602001828103825260138152602001807f6976616c696420746f6b656e416464726573730000000000000000000000000081525060200191505060405180910390fd5b60405180608001604052808281526020016000600181111562001dba57fe5b81526020016001600481111562001dcd57fe5b81526020018373ffffffffffffffffffffffffffffffffffffffff1663313ce5676040518163ffffffff1660e01b815260040160206040518083038186803b15801562001e1957600080fd5b505afa15801562001e2e573d6000803e3d6000fd5b505050506040513d602081101562001e4557600080fd5b810190808051906020019092919050505060ff16815250600860008473ffffffffffffffffffffffffffffffffffffffff1673ffffffffffffffffffffffffffffffffffffffff168152602001908152602001600020600082015181600001908051906020019062001eb9929190620041c0565b5060208201518160010160006101000a81548160ff0219169083600181111562001edf57fe5b021790555060408201518160010160016101000a81548160ff0219169083600481111562001f0957fe5b021790555060608201518160010160026101000a81548160ff021916908360ff1602179055509050505050565b60076020528060005260406000206000915090508060000160009054906101000a900460ff16908060000160019054906101000a900460ff16908060000160029054906101000a900473ffffffffffffffffffffffffffffffffffffffff1690806001015490806002018054600181600116156101000203166002900480601f016020809104026020016040519081016040528092919081815260200182805460018160011615610100020316600290048015620020385780601f106200200c5761010080835404028352916020019162002038565b820191906000526020600020905b8154815290600101906020018083116200201a57829003601f168201915b5050505050908060030154908060040160009054906101000a900473ffffffffffffffffffffffffffffffffffffffff1690806005018054600181600116156101000203166002900480601f016020809104026020016040519081016040528092919081815260200182805460018160011615610100020316600290048015620021065780601f10620020da5761010080835404028352916020019162002106565b820191906000526020600020905b815481529060010190602001808311620020e857829003601f168201915b5050505050905088565b600660019054906101000a900460ff1681565b600160048111156200213157fe5b6007600087815260200190815260200160002060000160009054906101000a900460ff1660048111156200216157fe5b14620021d5576040517f08c379a00000000000000000000000000000000000000000000000000000000081526004018080602001828103825260118152602001807f737461747573206973206e6f77206e657700000000000000000000000000000081525060200191505060405180910390fd5b60036004811115620021e357fe5b816004811115620021f057fe5b1480620022155750600260048111156200220657fe5b8160048111156200221357fe5b145b62002288576040517f08c379a000000000000000000000000000000000000000000000000000000000815260040180806020018281038252600e8152602001807f696e76616c69642073746174757300000000000000000000000000000000000081525060200191505060405180910390fd5b6000809054906101000a900460ff1660ff1660076000878152602001908152602001600020600101540143111562002328576040517f08c379a00000000000000000000000000000000000000000000000000000000081526004018080602001828103825260098152602001807f727120657870697265000000000000000000000000000000000000000000000081525060200191505060405180910390fd5b60006007600087815260200190815260200160002060040160009054906101000a900473ffffffffffffffffffffffffffffffffffffffff169050600080905060008090505b60058110156200256c57600181600581106200238657fe5b0160009054906101000a900473ffffffffffffffffffffffffffffffffffffffff1673ffffffffffffffffffffffffffffffffffffffff16600189866004811115620023ce57fe5b604051602001808381526020018260ff1660ff1660f81b81526001019250505060405160208183030381529060405260405160200180807f19457468657265756d205369676e6564204d6573736167653a0a333300000000815250601c0182805190602001908083835b602083106200245d578051825260208201915060208101905060208303925062002438565b6001836020036101000a03801982511681845116808217855250505050505090500191505060405160208183030381529060405280519060200120898460058110620024a557fe5b6020020151898560058110620024b757fe5b6020020151898660058110620024c957fe5b602002015160405160008152602001604052604051808581526020018460ff1660ff1681526020018381526020018281526020019450505050506020604051602081039080840390855afa15801562002526573d6000803e3d6000fd5b5050506020604051035173ffffffffffffffffffffffffffffffffffffffff16146200255457600062002557565b60015b60ff168201915080806001019150506200236e565b50600660009054906101000a900460ff1660ff16811215620025da576040517f08c379a0000000000000000000000000000000000000000000000000000000008152600401808060200182810382526027815260200180620060736027913960400191505060405180910390fd5b60036004811115620025e857fe5b836004811115620025f557fe5b141562002aa157600260038111156200260a57fe5b6007600089815260200190815260200160002060000160019054906101000a900460ff1660038111156200263a57fe5b1415620027cb578173ffffffffffffffffffffffffffffffffffffffff166340c10f19600760008a815260200190815260200160002060000160029054906101000a900473ffffffffffffffffffffffffffffffffffffffff16600760008b8152602001908152602001600020600301546040518363ffffffff1660e01b8152600401808373ffffffffffffffffffffffffffffffffffffffff1673ffffffffffffffffffffffffffffffffffffffff16815260200182815260200192505050602060405180830381600087803b1580156200271557600080fd5b505af11580156200272a573d6000803e3d6000fd5b505050506040513d60208110156200274157600080fd5b8101908080519060200190929190505050620027c5576040517f08c379a000000000000000000000000000000000000000000000000000000000815260040180806020018281038252600f8152602001807f696e76616c69642062616c616e6365000000000000000000000000000000000081525060200191505060405180910390fd5b62002a9b565b60016003811115620027d957fe5b6007600089815260200190815260200160002060000160019054906101000a900460ff1660038111156200280957fe5b141562002a9a57600073ffffffffffffffffffffffffffffffffffffffff168273ffffffffffffffffffffffffffffffffffffffff161415620028e0576007600088815260200190815260200160002060000160029054906101000a900473ffffffffffffffffffffffffffffffffffffffff1673ffffffffffffffffffffffffffffffffffffffff166108fc600760008a8152602001908152602001600020600301549081150290604051600060405180830381858888f19350505050158015620028d9573d6000803e3d6000fd5b5062002a99565b8173ffffffffffffffffffffffffffffffffffffffff166323b872dd30600760008b815260200190815260200160002060000160029054906101000a900473ffffffffffffffffffffffffffffffffffffffff16600760008c8152602001908152602001600020600301546040518463ffffffff1660e01b8152600401808473ffffffffffffffffffffffffffffffffffffffff1673ffffffffffffffffffffffffffffffffffffffff1681526020018373ffffffffffffffffffffffffffffffffffffffff1673ffffffffffffffffffffffffffffffffffffffff1681526020018281526020019350505050602060405180830381600087803b158015620029e857600080fd5b505af1158015620029fd573d6000803e3d6000fd5b505050506040513d602081101562002a1457600080fd5b810190808051906020019092919050505062002a98576040517f08c379a000000000000000000000000000000000000000000000000000000000815260040180806020018281038252600f8152602001807f696e76616c69642062616c616e6365000000000000000000000000000000000081525060200191505060405180910390fd5b5b5b5b62002f97565b6002600481111562002aaf57fe5b83600481111562002abc57fe5b141562002f965760038081111562002ad057fe5b6007600089815260200190815260200160002060000160019054906101000a900460ff16600381111562002b0057fe5b141562002cc5578173ffffffffffffffffffffffffffffffffffffffff166323b872dd30600760008b815260200190815260200160002060000160029054906101000a900473ffffffffffffffffffffffffffffffffffffffff16600760008c8152602001908152602001600020600301546040518463ffffffff1660e01b8152600401808473ffffffffffffffffffffffffffffffffffffffff1673ffffffffffffffffffffffffffffffffffffffff1681526020018373ffffffffffffffffffffffffffffffffffffffff1673ffffffffffffffffffffffffffffffffffffffff1681526020018281526020019350505050602060405180830381600087803b15801562002c0f57600080fd5b505af115801562002c24573d6000803e3d6000fd5b505050506040513d602081101562002c3b57600080fd5b810190808051906020019092919050505062002cbf576040517f08c379a000000000000000000000000000000000000000000000000000000000815260040180806020018281038252600f8152602001807f696e76616c69642062616c616e6365000000000000000000000000000000000081525060200191505060405180910390fd5b62002f95565b6000600381111562002cd357fe5b6007600089815260200190815260200160002060000160019054906101000a900460ff16600381111562002d0357fe5b141562002f9457600073ffffffffffffffffffffffffffffffffffffffff168273ffffffffffffffffffffffffffffffffffffffff16141562002dda576007600088815260200190815260200160002060000160029054906101000a900473ffffffffffffffffffffffffffffffffffffffff1673ffffffffffffffffffffffffffffffffffffffff166108fc600760008a8152602001908152602001600020600301549081150290604051600060405180830381858888f1935050505015801562002dd3573d6000803e3d6000fd5b5062002f93565b8173ffffffffffffffffffffffffffffffffffffffff166323b872dd30600760008b815260200190815260200160002060000160029054906101000a900473ffffffffffffffffffffffffffffffffffffffff16600760008c8152602001908152602001600020600301546040518463ffffffff1660e01b8152600401808473ffffffffffffffffffffffffffffffffffffffff1673ffffffffffffffffffffffffffffffffffffffff1681526020018373ffffffffffffffffffffffffffffffffffffffff1673ffffffffffffffffffffffffffffffffffffffff1681526020018281526020019350505050602060405180830381600087803b15801562002ee257600080fd5b505af115801562002ef7573d6000803e3d6000fd5b505050506040513d602081101562002f0e57600080fd5b810190808051906020019092919050505062002f92576040517f08c379a000000000000000000000000000000000000000000000000000000000815260040180806020018281038252600f8152602001807f696e76616c69642062616c616e6365000000000000000000000000000000000081525060200191505060405180910390fd5b5b5b5b5b5b826007600089815260200190815260200160002060000160006101000a81548160ff0219169083600481111562002fca57fe5b02179055507f22ce671cd3f328f71ef109d846af764df2d16bb8eb664c4f41065656c6e9962c8784604051808381526020018260048111156200300957fe5b60ff1681526020019250505060405180910390a150505050505050565b600660009054906101000a900460ff1681565b60008383836040516200304c9062004247565b8080602001806020018460ff1660ff168152602001838103835286818151815260200191508051906020019080838360005b838110156200309b5780820151818401526020810190506200307e565b50505050905090810190601f168015620030c95780820380516001836020036101000a031916815260200191505b50838103825285818151815260200191508051906020019080838360005b8381101562003104578082015181840152602081019050620030e7565b50505050905090810190601f168015620031325780820380516001836020036101000a031916815260200191505b5095505050505050604051809103906000f08015801562003157573d6000803e3d6000fd5b50905060405180608001604052808681526020016001808111156200317857fe5b8152602001600160048111156200318b57fe5b81526020018360ff16815250600860008373ffffffffffffffffffffffffffffffffffffffff1673ffffffffffffffffffffffffffffffffffffffff1681526020019081526020016000206000820151816000019080519060200190620031f4929190620041c0565b5060208201518160010160006101000a81548160ff021916908360018111156200321a57fe5b021790555060408201518160010160016101000a81548160ff021916908360048111156200324457fe5b021790555060608201518160010160026101000a81548160ff021916908360ff1602179055509050505050505050565b6008602052806000526040600020600091509050806000018054600181600116156101000203166002900480601f016020809104026020016040519081016040528092919081815260200182805460018160011615610100020316600290048015620033245780601f10620032f85761010080835404028352916020019162003324565b820191906000526020600020905b8154815290600101906020018083116200330657829003601f168201915b5050505050908060010160009054906101000a900460ff16908060010160019054906101000a900460ff16908060010160029054906101000a900460ff16905084565b60008060038111156200337657fe5b8360038111156200338357fe5b1480620033a85750600160038111156200339957fe5b836003811115620033a657fe5b145b6200341b576040517f08c379a00000000000000000000000000000000000000000000000000000000081526004018080602001828103825260208152602001807f72712074797065206973206e6f7420657175616c7320746f6b656e207479706581525060200191505060405180910390fd5b60008060038111156200342a57fe5b8460038111156200343757fe5b1462003444578262003446565b345b9050600060023033888543604051602001808673ffffffffffffffffffffffffffffffffffffffff1673ffffffffffffffffffffffffffffffffffffffff1660601b81526014018573ffffffffffffffffffffffffffffffffffffffff1673ffffffffffffffffffffffffffffffffffffffff1660601b815260140184805190602001908083835b60208310620034f35780518252602082019150602081019050602083039250620034ce565b6001836020036101000a038019825116818451168082178552505050505050905001838152602001828152602001955050505050506040516020818303038152906040526040518082805190602001908083835b602083106200356c578051825260208201915060208101905060208303925062003547565b6001836020036101000a038019825116818451168082178552505050505050905001915050602060405180830381855afa158015620035af573d6000803e3d6000fd5b5050506040513d6020811015620035c557600080fd5b8101908080519060200190929190505050905060006004811115620035e657fe5b6007600083815260200190815260200160002060000160009054906101000a900460ff1660048111156200361657fe5b146200368a576040517f08c379a000000000000000000000000000000000000000000000000000000000815260040180806020018281038252600d8152602001807f726571756573742065786973740000000000000000000000000000000000000081525060200191505060405180910390fd5b60405180610100016040528060016004811115620036a457fe5b8152602001866003811115620036b657fe5b81526020013373ffffffffffffffffffffffffffffffffffffffff168152602001438152602001878152602001838152602001600073ffffffffffffffffffffffffffffffffffffffff168152602001604051806020016040528060008152508152506007600083815260200190815260200160002060008201518160000160006101000a81548160ff021916908360048111156200375157fe5b021790555060208201518160000160016101000a81548160ff021916908360038111156200377b57fe5b021790555060408201518160000160026101000a81548173ffffffffffffffffffffffffffffffffffffffff021916908373ffffffffffffffffffffffffffffffffffffffff160217905550606082015181600101556080820151816002019080519060200190620037ef929190620041c0565b5060a0820151816003015560c08201518160040160006101000a81548173ffffffffffffffffffffffffffffffffffffffff021916908373ffffffffffffffffffffffffffffffffffffffff16021790555060e08201518160050190805190602001906200385f929190620041c0565b509050507fe5048cb72529de5404e374d7fdbda8558caeb479015b507903292cf51c115896813388604051808481526020018373ffffffffffffffffffffffffffffffffffffffff1673ffffffffffffffffffffffffffffffffffffffff16815260200180602001828103825283818151815260200191508051906020019080838360005b8381101562003901578082015181840152602081019050620038e4565b50505050905090810190601f1680156200392f5780820380516001836020036101000a031916815260200191505b5094505050505060405180910390a180925050509392505050565b600160048111156200395857fe5b600860008773ffffffffffffffffffffffffffffffffffffffff1673ffffffffffffffffffffffffffffffffffffffff16815260200190815260200160002060010160019054906101000a900460ff166004811115620039b457fe5b1462003a28576040517f08c379a00000000000000000000000000000000000000000000000000000000081526004018080602001828103825260138152602001807f6976616c696420746f6b656e416464726573730000000000000000000000000081525060200191505060405180910390fd5b6003600481111562003a3657fe5b81600481111562003a4357fe5b1462003ab7576040517f08c379a000000000000000000000000000000000000000000000000000000000815260040180806020018281038252600d8152602001807f6976616c6964207374617475730000000000000000000000000000000000000081525060200191505060405180910390fd5b6002600481111562003ac557fe5b81600481111562003ad257fe5b1462003b46576040517f08c379a000000000000000000000000000000000000000000000000000000000815260040180806020018281038252600d8152602001807f6976616c6964207374617475730000000000000000000000000000000000000081525060200191505060405180910390fd5b600080905060008090505b600581101562003d7e576001816005811062003b6957fe5b0160009054906101000a900473ffffffffffffffffffffffffffffffffffffffff1673ffffffffffffffffffffffffffffffffffffffff1660018885600481111562003bb157fe5b604051602001808373ffffffffffffffffffffffffffffffffffffffff1673ffffffffffffffffffffffffffffffffffffffff1660601b81526014018260ff1660ff1660f81b81526001019250505060405160208183030381529060405260405160200180807f19457468657265756d205369676e6564204d6573736167653a0a323200000000815250601c0182805190602001908083835b6020831062003c6f578051825260208201915060208101905060208303925062003c4a565b6001836020036101000a0380198251168184511680821785525050505050509050019150506040516020818303038152906040528051906020012088846005811062003cb757fe5b602002015188856005811062003cc957fe5b602002015188866005811062003cdb57fe5b602002015160405160008152602001604052604051808581526020018460ff1660ff1681526020018381526020018281526020019450505050506020604051602081039080840390855afa15801562003d38573d6000803e3d6000fd5b5050506020604051035173ffffffffffffffffffffffffffffffffffffffff161462003d6657600062003d69565b60015b60ff1682019150808060010191505062003b51565b50600660009054906101000a900460ff1660ff1681121562003dec576040517f08c379a0000000000000000000000000000000000000000000000000000000008152600401808060200182810382526027815260200180620060736027913960400191505060405180910390fd5b81600860008873ffffffffffffffffffffffffffffffffffffffff1673ffffffffffffffffffffffffffffffffffffffff16815260200190815260200160002060010160016101000a81548160ff0219169083600481111562003e4b57fe5b02179055507f64a7f2d332518c73716ad23fe3e055c4360ac3ef8d87aeb5dd689091a12a9b6b86604051808273ffffffffffffffffffffffffffffffffffffffff1673ffffffffffffffffffffffffffffffffffffffff16815260200191505060405180910390a1505050505050565b60001515600660019054906101000a900460ff1615151462003f45576040517f08c379a00000000000000000000000000000000000000000000000000000000081526004018080602001828103825260118152602001807f776176657320746f6b656e20657869737400000000000000000000000000000081525060200191505060405180910390fd5b6000600860405162003f579062004247565b8080602001806020018460ff168152602001838103835260058152602001807f5741564553000000000000000000000000000000000000000000000000000000815250602001838103825260058152602001807f57415645530000000000000000000000000000000000000000000000000000008152506020019350505050604051809103906000f08015801562003ff3573d6000803e3d6000fd5b50905060405180608001604052806040518060400160405280600581526020017f574156455300000000000000000000000000000000000000000000000000000081525081526020016001808111156200404957fe5b8152602001600360048111156200405c57fe5b8152602001600860ff16815250600860008373ffffffffffffffffffffffffffffffffffffffff1673ffffffffffffffffffffffffffffffffffffffff1681526020019081526020016000206000820151816000019080519060200190620040c6929190620041c0565b5060208201518160010160006101000a81548160ff02191690836001811115620040ec57fe5b021790555060408201518160010160016101000a81548160ff021916908360048111156200411657fe5b021790555060608201518160010160026101000a81548160ff021916908360ff1602179055509050506001600660016101000a81548160ff0219169083151502179055507f64a7f2d332518c73716ad23fe3e055c4360ac3ef8d87aeb5dd689091a12a9b6b81604051808273ffffffffffffffffffffffffffffffffffffffff1673ffffffffffffffffffffffffffffffffffffffff16815260200191505060405180910390a150565b828054600181600116156101000203166002900490600052602060002090601f016020900481019282601f106200420357805160ff191683800117855562004234565b8280016001018555821562004234579182015b828111156200423357825182559160200191906001019062004216565b5b50905062004243919062004255565b5090565b611df5806200427e83390190565b6200427a91905b80821115620042765760008160009055506001016200425c565b5090565b9056fe60806040523480156200001157600080fd5b5060405162001df538038062001df5833981810160405260608110156200003757600080fd5b81019080805160405193929190846401000000008211156200005857600080fd5b838201915060208201858111156200006f57600080fd5b82518660018202830111640100000000821117156200008d57600080fd5b8083526020830192505050908051906020019080838360005b83811015620000c3578082015181840152602081019050620000a6565b50505050905090810190601f168015620000f15780820380516001836020036101000a031916815260200191505b50604052602001805160405193929190846401000000008211156200011557600080fd5b838201915060208201858111156200012c57600080fd5b82518660018202830111640100000000821117156200014a57600080fd5b8083526020830192505050908051906020019080838360005b838110156200018057808201518184015260208101905062000163565b50505050905090810190601f168015620001ae5780820380516001836020036101000a031916815260200191505b5060405260200180519060200190929190505050620001e2620001d66200023860201b60201c565b6200024060201b60201c565b8260049080519060200190620001fa92919062000465565b5081600590805190602001906200021392919062000465565b5080600660006101000a81548160ff021916908360ff16021790555050505062000514565b600033905090565b6200025b816003620002a160201b6200156e1790919060201c565b8073ffffffffffffffffffffffffffffffffffffffff167f6ae172837ea30b801fbfcdd4108aa1d5bf8ff775444fd70256b44e6bf3dfc3f660405160405180910390a250565b620002b382826200038560201b60201c565b1562000327576040517f08c379a000000000000000000000000000000000000000000000000000000000815260040180806020018281038252601f8152602001807f526f6c65733a206163636f756e7420616c72656164792068617320726f6c650081525060200191505060405180910390fd5b60018260000160008373ffffffffffffffffffffffffffffffffffffffff1673ffffffffffffffffffffffffffffffffffffffff16815260200190815260200160002060006101000a81548160ff0219169083151502179055505050565b60008073ffffffffffffffffffffffffffffffffffffffff168273ffffffffffffffffffffffffffffffffffffffff1614156200040e576040517f08c379a000000000000000000000000000000000000000000000000000000000815260040180806020018281038252602281526020018062001dd36022913960400191505060405180910390fd5b8260000160008373ffffffffffffffffffffffffffffffffffffffff1673ffffffffffffffffffffffffffffffffffffffff16815260200190815260200160002060009054906101000a900460ff16905092915050565b828054600181600116156101000203166002900490600052602060002090601f016020900481019282601f10620004a857805160ff1916838001178555620004d9565b82800160010185558215620004d9579182015b82811115620004d8578251825591602001919060010190620004bb565b5b509050620004e89190620004ec565b5090565b6200051191905b808211156200050d576000816000905550600101620004f3565b5090565b90565b6118af80620005246000396000f3fe608060405234801561001057600080fd5b50600436106100f55760003560e01c806370a0823111610097578063a457c2d711610066578063a457c2d7146104a0578063a9059cbb14610506578063aa271e1a1461056c578063dd62ed3e146105c8576100f5565b806370a082311461037757806395d89b41146103cf578063983b2d56146104525780639865027514610496576100f5565b806323b872dd116100d357806323b872dd14610201578063313ce5671461028757806339509351146102ab57806340c10f1914610311576100f5565b806306fdde03146100fa578063095ea7b31461017d57806318160ddd146101e3575b600080fd5b610102610640565b6040518080602001828103825283818151815260200191508051906020019080838360005b83811015610142578082015181840152602081019050610127565b50505050905090810190601f16801561016f5780820380516001836020036101000a031916815260200191505b509250505060405180910390f35b6101c96004803603604081101561019357600080fd5b81019080803573ffffffffffffffffffffffffffffffffffffffff169060200190929190803590602001909291905050506106e2565b604051808215151515815260200191505060405180910390f35b6101eb610700565b6040518082815260200191505060405180910390f35b61026d6004803603606081101561021757600080fd5b81019080803573ffffffffffffffffffffffffffffffffffffffff169060200190929190803573ffffffffffffffffffffffffffffffffffffffff1690602001909291908035906020019092919050505061070a565b604051808215151515815260200191505060405180910390f35b61028f6107e3565b604051808260ff1660ff16815260200191505060405180910390f35b6102f7600480360360408110156102c157600080fd5b81019080803573ffffffffffffffffffffffffffffffffffffffff169060200190929190803590602001909291905050506107fa565b604051808215151515815260200191505060405180910390f35b61035d6004803603604081101561032757600080fd5b81019080803573ffffffffffffffffffffffffffffffffffffffff169060200190929190803590602001909291905050506108ad565b604051808215151515815260200191505060405180910390f35b6103b96004803603602081101561038d57600080fd5b81019080803573ffffffffffffffffffffffffffffffffffffffff169060200190929190505050610928565b6040518082815260200191505060405180910390f35b6103d7610970565b6040518080602001828103825283818151815260200191508051906020019080838360005b838110156104175780820151818401526020810190506103fc565b50505050905090810190601f1680156104445780820380516001836020036101000a031916815260200191505b509250505060405180910390f35b6104946004803603602081101561046857600080fd5b81019080803573ffffffffffffffffffffffffffffffffffffffff169060200190929190505050610a12565b005b61049e610a83565b005b6104ec600480360360408110156104b657600080fd5b81019080803573ffffffffffffffffffffffffffffffffffffffff16906020019092919080359060200190929190505050610a95565b604051808215151515815260200191505060405180910390f35b6105526004803603604081101561051c57600080fd5b81019080803573ffffffffffffffffffffffffffffffffffffffff16906020019092919080359060200190929190505050610b62565b604051808215151515815260200191505060405180910390f35b6105ae6004803603602081101561058257600080fd5b81019080803573ffffffffffffffffffffffffffffffffffffffff169060200190929190505050610b80565b604051808215151515815260200191505060405180910390f35b61062a600480360360408110156105de57600080fd5b81019080803573ffffffffffffffffffffffffffffffffffffffff169060200190929190803573ffffffffffffffffffffffffffffffffffffffff169060200190929190505050610b9d565b6040518082815260200191505060405180910390f35b606060048054600181600116156101000203166002900480601f0160208091040260200160405190810160405280929190818152602001828054600181600116156101000203166002900480156106d85780601f106106ad576101008083540402835291602001916106d8565b820191906000526020600020905b8154815290600101906020018083116106bb57829003601f168201915b5050505050905090565b60006106f66106ef610c24565b8484610c2c565b6001905092915050565b6000600254905090565b6000610717848484610e23565b6107d884610723610c24565b6107d3856040518060600160405280602881526020016117c360289139600160008b73ffffffffffffffffffffffffffffffffffffffff1673ffffffffffffffffffffffffffffffffffffffff1681526020019081526020016000206000610789610c24565b73ffffffffffffffffffffffffffffffffffffffff1673ffffffffffffffffffffffffffffffffffffffff168152602001908152602001600020546110d99092919063ffffffff16565b610c2c565b600190509392505050565b6000600660009054906101000a900460ff16905090565b60006108a3610807610c24565b8461089e8560016000610818610c24565b73ffffffffffffffffffffffffffffffffffffffff1673ffffffffffffffffffffffffffffffffffffffff16815260200190815260200160002060008973ffffffffffffffffffffffffffffffffffffffff1673ffffffffffffffffffffffffffffffffffffffff1681526020019081526020016000205461119990919063ffffffff16565b610c2c565b6001905092915050565b60006108bf6108ba610c24565b610b80565b610914576040517f08c379a00000000000000000000000000000000000000000000000000000000081526004018080602001828103825260308152602001806117726030913960400191505060405180910390fd5b61091e8383611221565b6001905092915050565b60008060008373ffffffffffffffffffffffffffffffffffffffff1673ffffffffffffffffffffffffffffffffffffffff168152602001908152602001600020549050919050565b606060058054600181600116156101000203166002900480601f016020809104026020016040519081016040528092919081815260200182805460018160011615610100020316600290048015610a085780601f106109dd57610100808354040283529160200191610a08565b820191906000526020600020905b8154815290600101906020018083116109eb57829003601f168201915b5050505050905090565b610a22610a1d610c24565b610b80565b610a77576040517f08c379a00000000000000000000000000000000000000000000000000000000081526004018080602001828103825260308152602001806117726030913960400191505060405180910390fd5b610a80816113dc565b50565b610a93610a8e610c24565b611436565b565b6000610b58610aa2610c24565b84610b53856040518060600160405280602581526020016118566025913960016000610acc610c24565b73ffffffffffffffffffffffffffffffffffffffff1673ffffffffffffffffffffffffffffffffffffffff16815260200190815260200160002060008a73ffffffffffffffffffffffffffffffffffffffff1673ffffffffffffffffffffffffffffffffffffffff168152602001908152602001600020546110d99092919063ffffffff16565b610c2c565b6001905092915050565b6000610b76610b6f610c24565b8484610e23565b6001905092915050565b6000610b9682600361149090919063ffffffff16565b9050919050565b6000600160008473ffffffffffffffffffffffffffffffffffffffff1673ffffffffffffffffffffffffffffffffffffffff16815260200190815260200160002060008373ffffffffffffffffffffffffffffffffffffffff1673ffffffffffffffffffffffffffffffffffffffff16815260200190815260200160002054905092915050565b600033905090565b600073ffffffffffffffffffffffffffffffffffffffff168373ffffffffffffffffffffffffffffffffffffffff161415610cb2576040517f08c379a00000000000000000000000000000000000000000000000000000000081526004018080602001828103825260248152602001806118326024913960400191505060405180910390fd5b600073ffffffffffffffffffffffffffffffffffffffff168273ffffffffffffffffffffffffffffffffffffffff161415610d38576040517f08c379a000000000000000000000000000000000000000000000000000000000815260040180806020018281038252602281526020018061172a6022913960400191505060405180910390fd5b80600160008573ffffffffffffffffffffffffffffffffffffffff1673ffffffffffffffffffffffffffffffffffffffff16815260200190815260200160002060008473ffffffffffffffffffffffffffffffffffffffff1673ffffffffffffffffffffffffffffffffffffffff168152602001908152602001600020819055508173ffffffffffffffffffffffffffffffffffffffff168373ffffffffffffffffffffffffffffffffffffffff167f8c5be1e5ebec7d5bd14f71427d1e84f3dd0314c0f7b2291e5b200ac8c7c3b925836040518082815260200191505060405180910390a3505050565b600073ffffffffffffffffffffffffffffffffffffffff168373ffffffffffffffffffffffffffffffffffffffff161415610ea9576040517f08c379a000000000000000000000000000000000000000000000000000000000815260040180806020018281038252602581526020018061180d6025913960400191505060405180910390fd5b600073ffffffffffffffffffffffffffffffffffffffff168273ffffffffffffffffffffffffffffffffffffffff161415610f2f576040517f08c379a00000000000000000000000000000000000000000000000000000000081526004018080602001828103825260238152602001806117076023913960400191505060405180910390fd5b610f9a8160405180606001604052806026815260200161174c602691396000808773ffffffffffffffffffffffffffffffffffffffff1673ffffffffffffffffffffffffffffffffffffffff168152602001908152602001600020546110d99092919063ffffffff16565b6000808573ffffffffffffffffffffffffffffffffffffffff1673ffffffffffffffffffffffffffffffffffffffff1681526020019081526020016000208190555061102d816000808573ffffffffffffffffffffffffffffffffffffffff1673ffffffffffffffffffffffffffffffffffffffff1681526020019081526020016000205461119990919063ffffffff16565b6000808473ffffffffffffffffffffffffffffffffffffffff1673ffffffffffffffffffffffffffffffffffffffff168152602001908152602001600020819055508173ffffffffffffffffffffffffffffffffffffffff168373ffffffffffffffffffffffffffffffffffffffff167fddf252ad1be2c89b69c2b068fc378daa952ba7f163c4a11628f55a4df523b3ef836040518082815260200191505060405180910390a3505050565b6000838311158290611186576040517f08c379a00000000000000000000000000000000000000000000000000000000081526004018080602001828103825283818151815260200191508051906020019080838360005b8381101561114b578082015181840152602081019050611130565b50505050905090810190601f1680156111785780820380516001836020036101000a031916815260200191505b509250505060405180910390fd5b5060008385039050809150509392505050565b600080828401905083811015611217576040517f08c379a000000000000000000000000000000000000000000000000000000000815260040180806020018281038252601b8152602001807f536166654d6174683a206164646974696f6e206f766572666c6f77000000000081525060200191505060405180910390fd5b8091505092915050565b600073ffffffffffffffffffffffffffffffffffffffff168273ffffffffffffffffffffffffffffffffffffffff1614156112c4576040517f08c379a000000000000000000000000000000000000000000000000000000000815260040180806020018281038252601f8152602001807f45524332303a206d696e7420746f20746865207a65726f20616464726573730081525060200191505060405180910390fd5b6112d98160025461119990919063ffffffff16565b600281905550611330816000808573ffffffffffffffffffffffffffffffffffffffff1673ffffffffffffffffffffffffffffffffffffffff1681526020019081526020016000205461119990919063ffffffff16565b6000808473ffffffffffffffffffffffffffffffffffffffff1673ffffffffffffffffffffffffffffffffffffffff168152602001908152602001600020819055508173ffffffffffffffffffffffffffffffffffffffff16600073ffffffffffffffffffffffffffffffffffffffff167fddf252ad1be2c89b69c2b068fc378daa952ba7f163c4a11628f55a4df523b3ef836040518082815260200191505060405180910390a35050565b6113f081600361156e90919063ffffffff16565b8073ffffffffffffffffffffffffffffffffffffffff167f6ae172837ea30b801fbfcdd4108aa1d5bf8ff775444fd70256b44e6bf3dfc3f660405160405180910390a250565b61144a81600361164990919063ffffffff16565b8073ffffffffffffffffffffffffffffffffffffffff167fe94479a9f7e1952cc78f2d6baab678adc1b772d936c6583def489e524cb6669260405160405180910390a250565b60008073ffffffffffffffffffffffffffffffffffffffff168273ffffffffffffffffffffffffffffffffffffffff161415611517576040517f08c379a00000000000000000000000000000000000000000000000000000000081526004018080602001828103825260228152602001806117eb6022913960400191505060405180910390fd5b8260000160008373ffffffffffffffffffffffffffffffffffffffff1673ffffffffffffffffffffffffffffffffffffffff16815260200190815260200160002060009054906101000a900460ff16905092915050565b6115788282611490565b156115eb576040517f08c379a000000000000000000000000000000000000000000000000000000000815260040180806020018281038252601f8152602001807f526f6c65733a206163636f756e7420616c72656164792068617320726f6c650081525060200191505060405180910390fd5b60018260000160008373ffffffffffffffffffffffffffffffffffffffff1673ffffffffffffffffffffffffffffffffffffffff16815260200190815260200160002060006101000a81548160ff0219169083151502179055505050565b6116538282611490565b6116a8576040517f08c379a00000000000000000000000000000000000000000000000000000000081526004018080602001828103825260218152602001806117a26021913960400191505060405180910390fd5b60008260000160008373ffffffffffffffffffffffffffffffffffffffff1673ffffffffffffffffffffffffffffffffffffffff16815260200190815260200160002060006101000a81548160ff021916908315150217905550505056fe45524332303a207472616e7366657220746f20746865207a65726f206164647265737345524332303a20617070726f766520746f20746865207a65726f206164647265737345524332303a207472616e7366657220616d6f756e7420657863656564732062616c616e63654d696e746572526f6c653a2063616c6c657220646f6573206e6f74206861766520746865204d696e74657220726f6c65526f6c65733a206163636f756e7420646f6573206e6f74206861766520726f6c6545524332303a207472616e7366657220616d6f756e74206578636565647320616c6c6f77616e6365526f6c65733a206163636f756e7420697320746865207a65726f206164647265737345524332303a207472616e736665722066726f6d20746865207a65726f206164647265737345524332303a20617070726f76652066726f6d20746865207a65726f206164647265737345524332303a2064656372656173656420616c6c6f77616e63652062656c6f77207a65726fa265627a7a72315820f6bde5ebe0e825ce8c92211c6ef74e9037c34f2ca5bb95b27ed77fd19f5cc29c64736f6c63430005100032526f6c65733a206163636f756e7420697320746865207a65726f206164647265737361646d696e7320766f746520636f756e74206973206c65737320626674436f6566666963656e74a265627a7a723158206b78e0a9ee9824c42e2a67747459549046fe3b4452b631342318bd6cb2a394a564736f6c63430005100032",
  "source": "pragma solidity >=0.5.16 <=0.6.6;\n\nimport \"./Token.sol\";\nimport \"./Models.sol\";\n\ncontract Supersymmetry {\n    event NewRequest(bytes32 requestHash, address owner, string target);\n    event NewApprovedToken(address tokenAddress);\n    event StatusChanged(bytes32 requestHash, Models.Status status);\n    event Mint(bytes32 requestHash, address owner, uint amount);\n    event Return(bytes32 requestHash, address owner, uint amount);\n\n    uint8 timeout;\n    address[5] public admins;\n    uint8 public bftCoefficent;\n    bool public isWavesTokenExist;\n    mapping(bytes32 => Models.Request) public requests;\n    mapping(address => Models.Token) public tokens;\n\n    constructor(address[5] memory newAdmins, uint8 newBftCoefficent, string memory ethAssetId, uint8 newTimeout) public {\n        require(newAdmins[0] != address(0x00), \"empty address\");\n        require(newAdmins[1] != address(0x00), \"empty address\");\n        require(newAdmins[2] != address(0x00), \"empty address\");\n        require(newAdmins[3] != address(0x00), \"empty address\");\n        require(newAdmins[4] != address(0x00), \"empty address\");\n \n       \n        tokens[address(0x00)] = Models.Token(ethAssetId, Models.TokenType.NativeToken, Models.Status.Success, 18);\n        timeout = newTimeout;\n        bftCoefficent = newBftCoefficent;\n        admins = newAdmins;\n    }\n    \n    function newWavesToken() public {\n        require(isWavesTokenExist == false, \"waves token exist\");\n        address tokenAddress = address(new Token(\"WAVES\", \"WAVES\", 8));\n        tokens[tokenAddress] = Models.Token(\"WAVES\", Models.TokenType.InputToken, Models.Status.Success, 8);\n        isWavesTokenExist = true;\n        emit NewApprovedToken(tokenAddress);\n    }\n    function registerNativeToken(address tokenAddress, string memory assetId) public {\n        require(tokens[tokenAddress].status == Models.Status.None, \"ivalid tokenAddress\");\n        tokens[tokenAddress] = Models.Token(assetId, Models.TokenType.NativeToken, Models.Status.New, Token(tokenAddress).decimals());\n    }\n\n    function registerInputToken(string memory assetId, string memory name, string memory symbol, uint8 decimals) public {\n        address tokenAddress = address(new Token(name, symbol, decimals));\n        tokens[tokenAddress] = Models.Token(assetId, Models.TokenType.InputToken, Models.Status.New, decimals);\n    }\n\n    function changeTokenStatus(address tokenAddress, uint8[5] memory v, bytes32[5] memory r, bytes32[5] memory s, Models.Status status) public {\n        require(tokens[tokenAddress].status == Models.Status.New, \"ivalid tokenAddress\");\n        require(status == Models.Status.Success, \"ivalid status\");\n        require(status == Models.Status.Rejected, \"ivalid status\");\n        \n        int count = 0;\n        for(uint i = 0; i < 5; i++) {\n            count += ecrecover(keccak256(abi.encodePacked(\"\\x19Ethereum Signed Message:\\n22\", abi.encodePacked(tokenAddress, uint8(status)))),\n                v[i], r[i], s[i]) == admins[i] ? 1 : 0;\n        }\n        require(count >= bftCoefficent, \"admins vote count is less bftCoefficent\");\n\n        tokens[tokenAddress].status = status;\n        emit NewApprovedToken(tokenAddress);\n    }\n\n    function withdrawPastDueReqest(bytes32 requestHash) public {\n        require(requests[requestHash].status == Models.Status.New, \"request not exist\");\n        require(block.number > requests[requestHash].height + timeout, \"rq not expire\");\n\n        if (requests[requestHash].tokenAddress == address(0x00)) {\n            requests[requestHash].owner.transfer(requests[requestHash].tokenAmount);\n        } else {\n            require(Token(requests[requestHash].tokenAddress).transferFrom(address(this), requests[requestHash].owner, requests[requestHash].tokenAmount), \"invalid balance\");\n        }\n        requests[requestHash].status = Models.Status.Returned;\n    }\n\n    function createEthRequest(string memory target, Models.RqType rqType, uint unlockAmount) public payable returns (bytes32) {\n        require(rqType == Models.RqType.Lock || rqType == Models.RqType.Unlock, \"rq type is not equals token type\");\n\n        uint amount = rqType == Models.RqType.Lock ? msg.value : unlockAmount;\n        bytes32 requestHash = sha256(abi.encodePacked(this, msg.sender, target, amount, block.number));\n        require(requests[requestHash].status == Models.Status.None, \"request exist\");\n\n        requests[requestHash] = Models.Request(\n            {status: Models.Status.New, rType: rqType, owner: msg.sender, target: target, height: block.number, tokenAmount: amount, tokenAddress: address(0x00), targetRqId: \"\" });\n        emit NewRequest(requestHash, msg.sender, target);\n        return requestHash;\n    }\n\n    function createTokenRequest(string memory target, Models.RqType rqType,\n            uint256 amount, address tokenAddress, string memory requestIdOrNull) public returns (bytes32) {\n\n        require(tokenAddress != address(0x00), \"invalid tokenAddress\");\n        require(tokens[tokenAddress].status == Models.Status.Success, \"ivalid tokenAddress\");\n        require(amount > 0, \"value less or equals 0\");\n\n        require(tokens[tokenAddress].tokenType == Models.TokenType.NativeToken &&\n            (rqType == Models.RqType.Lock || rqType == Models.RqType.Unlock), \"rq type is not equals token type\");\n        require(tokens[tokenAddress].tokenType == Models.TokenType.InputToken &&\n            (rqType == Models.RqType.Burn || rqType == Models.RqType.Mint), \"rq type is not equals token type\");\n\n        if (rqType == Models.RqType.Burn || rqType == Models.RqType.Lock) {\n            require(Token(tokenAddress).transferFrom(msg.sender, address(this), amount), \"invalid balance\");\n        }\n\n        bytes32 requestHash = sha256(abi.encodePacked(this, msg.sender, target, amount, block.number));\n        require(requests[requestHash].status == Models.Status.None, \"request exist\");\n\n        requests[requestHash] = Models.Request(\n            {status: Models.Status.New, rType: rqType, owner: msg.sender, target: target, height: block.number, tokenAmount: amount, tokenAddress: tokenAddress,\n                targetRqId: rqType == Models.RqType.Unlock || rqType == Models.RqType.Mint ? requestIdOrNull : \"\" });\n        emit NewRequest(requestHash, msg.sender, target);\n        return requestHash;\n    }\n\n    function changeStatus(bytes32 requestHash, uint8[5] memory v, bytes32[5] memory r, bytes32[5] memory s, Models.Status status) public {\n        require(requests[requestHash].status == Models.Status.New, \"status is now new\");\n        require(status == Models.Status.Success || status == Models.Status.Rejected, \"invalid status\");\n        require(block.number <= requests[requestHash].height + timeout, \"rq expire\");\n        \n        address tokenAddress = requests[requestHash].tokenAddress;\n        int count = 0;\n        for(uint i = 0; i < 5; i++) {\n            count += ecrecover(keccak256(abi.encodePacked(\"\\x19Ethereum Signed Message:\\n33\", abi.encodePacked(requestHash, uint8(status)))),\n                v[i], r[i], s[i]) == admins[i] ? 1 : 0;\n        }\n\n        require(count >= bftCoefficent, \"admins vote count is less bftCoefficent\");\n\n        if (status == Models.Status.Success) {\n            if (requests[requestHash].rType == Models.RqType.Mint) {\n                require(Token(tokenAddress).mint(requests[requestHash].owner, requests[requestHash].tokenAmount), \"invalid balance\");\n            } else if (requests[requestHash].rType == Models.RqType.Unlock) {\n                if (tokenAddress == address(0x00)) {\n                    requests[requestHash].owner.transfer(requests[requestHash].tokenAmount);\n                } else {\n                    require(Token(tokenAddress).transferFrom(address(this), requests[requestHash].owner, requests[requestHash].tokenAmount), \"invalid balance\");\n                }\n            }\n        } else if (status == Models.Status.Rejected) {\n            if (requests[requestHash].rType == Models.RqType.Burn) {\n                require(Token(tokenAddress).transferFrom(address(this), requests[requestHash].owner, requests[requestHash].tokenAmount), \"invalid balance\");\n            } else if (requests[requestHash].rType == Models.RqType.Lock) {\n                if (tokenAddress == address(0x00)) {\n                    requests[requestHash].owner.transfer(requests[requestHash].tokenAmount);\n                } else {\n                   require(Token(tokenAddress).transferFrom(address(this), requests[requestHash].owner, requests[requestHash].tokenAmount), \"invalid balance\");\n                }\n            }\n        }\n        requests[requestHash].status = status;\n        emit StatusChanged(requestHash, status);\n    }\n}",
  "sourcePath": "/home/cryptobadboy/github/GravityHub/gateway-contract/ethereum/contracts/Supersymmetry.sol",
  "compiler": {
    "name": "solc",
    "version": "0.5.16+commit.9c3226ce.Emscripten.clang"
  },
  "schemaVersion": "3.1.0",
  "updatedAt": "2020-04-18T22:01:26.552Z",
  "devdoc": {
    "methods": {}
  },
  "userdoc": {
    "methods": {}
  }
}