{
  "contractName": "Supersymmetry",
  "abi": [
    {
      "inputs": [
        {
          "internalType": "address[5]",
          "name": "newAdmins",
          "type": "address[5]"
        },
        {
          "internalType": "uint8",
          "name": "newBftCoefficent",
          "type": "uint8"
        },
        {
          "internalType": "string",
          "name": "ethAssetId",
          "type": "string"
        },
        {
          "internalType": "uint256",
          "name": "newTimeout",
          "type": "uint256"
        }
      ],
      "payable": false,
      "stateMutability": "nonpayable",
      "type": "constructor"
    },
    {
      "anonymous": false,
      "inputs": [
        {
          "indexed": false,
          "internalType": "bytes32",
          "name": "requestHash",
          "type": "bytes32"
        },
        {
          "indexed": false,
          "internalType": "address",
          "name": "owner",
          "type": "address"
        },
        {
          "indexed": false,
          "internalType": "uint256",
          "name": "amount",
          "type": "uint256"
        }
      ],
      "name": "Mint",
      "type": "event"
    },
    {
      "anonymous": false,
      "inputs": [
        {
          "indexed": false,
          "internalType": "bytes32",
          "name": "requestHash",
          "type": "bytes32"
        },
        {
          "indexed": false,
          "internalType": "address",
          "name": "owner",
          "type": "address"
        },
        {
          "indexed": false,
          "internalType": "string",
          "name": "target",
          "type": "string"
        }
      ],
      "name": "NewRequest",
      "type": "event"
    },
    {
      "anonymous": false,
      "inputs": [
        {
          "indexed": false,
          "internalType": "bytes32",
          "name": "requestHash",
          "type": "bytes32"
        },
        {
          "indexed": false,
          "internalType": "address",
          "name": "owner",
          "type": "address"
        },
        {
          "indexed": false,
          "internalType": "uint256",
          "name": "amount",
          "type": "uint256"
        }
      ],
      "name": "Return",
      "type": "event"
    },
    {
      "anonymous": false,
      "inputs": [
        {
          "indexed": false,
          "internalType": "bytes32",
          "name": "requestHash",
          "type": "bytes32"
        },
        {
          "indexed": false,
          "internalType": "enum Models.Status",
          "name": "status",
          "type": "uint8"
        }
      ],
      "name": "StatusChanged",
      "type": "event"
    },
    {
      "constant": true,
      "inputs": [
        {
          "internalType": "uint256",
          "name": "",
          "type": "uint256"
        }
      ],
      "name": "admins",
      "outputs": [
        {
          "internalType": "address",
          "name": "",
          "type": "address"
        }
      ],
      "payable": false,
      "stateMutability": "view",
      "type": "function"
    },
    {
      "constant": true,
      "inputs": [],
      "name": "bftCoefficent",
      "outputs": [
        {
          "internalType": "uint8",
          "name": "",
          "type": "uint8"
        }
      ],
      "payable": false,
      "stateMutability": "view",
      "type": "function"
    },
    {
      "constant": true,
      "inputs": [
        {
          "internalType": "bytes32",
          "name": "",
          "type": "bytes32"
        }
      ],
      "name": "requests",
      "outputs": [
        {
          "internalType": "enum Models.Status",
          "name": "status",
          "type": "uint8"
        },
        {
          "internalType": "enum Models.RqType",
          "name": "rType",
          "type": "uint8"
        },
        {
          "internalType": "address payable",
          "name": "owner",
          "type": "address"
        },
        {
          "internalType": "uint256",
          "name": "height",
          "type": "uint256"
        },
        {
          "internalType": "string",
          "name": "target",
          "type": "string"
        },
        {
          "internalType": "uint256",
          "name": "tokenAmount",
          "type": "uint256"
        },
        {
          "internalType": "address",
          "name": "tokenAddress",
          "type": "address"
        }
      ],
      "payable": false,
      "stateMutability": "view",
      "type": "function"
    },
    {
      "constant": true,
      "inputs": [
        {
          "internalType": "address",
          "name": "",
          "type": "address"
        }
      ],
      "name": "tokens",
      "outputs": [
        {
          "internalType": "string",
          "name": "assetId",
          "type": "string"
        },
        {
          "internalType": "enum Models.TokenType",
          "name": "tokenType",
          "type": "uint8"
        },
        {
          "internalType": "enum Models.Status",
          "name": "status",
          "type": "uint8"
        },
        {
          "internalType": "uint8",
          "name": "decimals",
          "type": "uint8"
        }
      ],
      "payable": false,
      "stateMutability": "view",
      "type": "function"
    },
    {
      "constant": false,
      "inputs": [
        {
          "internalType": "address",
          "name": "tokenAddress",
          "type": "address"
        },
        {
          "internalType": "string",
          "name": "assetId",
          "type": "string"
        }
      ],
      "name": "registerNativeToken",
      "outputs": [],
      "payable": false,
      "stateMutability": "nonpayable",
      "type": "function"
    },
    {
      "constant": false,
      "inputs": [
        {
          "internalType": "string",
          "name": "assetId",
          "type": "string"
        },
        {
          "internalType": "string",
          "name": "name",
          "type": "string"
        },
        {
          "internalType": "string",
          "name": "symbol",
          "type": "string"
        },
        {
          "internalType": "uint8",
          "name": "decimals",
          "type": "uint8"
        }
      ],
      "name": "registerInputToken",
      "outputs": [],
      "payable": false,
      "stateMutability": "nonpayable",
      "type": "function"
    },
    {
      "constant": false,
      "inputs": [
        {
          "internalType": "address",
          "name": "tokenAddress",
          "type": "address"
        },
        {
          "internalType": "uint8[5]",
          "name": "v",
          "type": "uint8[5]"
        },
        {
          "internalType": "bytes32[5]",
          "name": "r",
          "type": "bytes32[5]"
        },
        {
          "internalType": "bytes32[5]",
          "name": "s",
          "type": "bytes32[5]"
        },
        {
          "internalType": "enum Models.Status",
          "name": "status",
          "type": "uint8"
        }
      ],
      "name": "changeTokenStatus",
      "outputs": [],
      "payable": false,
      "stateMutability": "nonpayable",
      "type": "function"
    },
    {
      "constant": false,
      "inputs": [
        {
          "internalType": "bytes32",
          "name": "requestHash",
          "type": "bytes32"
        }
      ],
      "name": "withdrawPastDueReqest",
      "outputs": [],
      "payable": false,
      "stateMutability": "nonpayable",
      "type": "function"
    },
    {
      "constant": false,
      "inputs": [
        {
          "internalType": "string",
          "name": "target",
          "type": "string"
        },
        {
          "internalType": "enum Models.RqType",
          "name": "rqType",
          "type": "uint8"
        },
        {
          "internalType": "uint256",
          "name": "unlockAmount",
          "type": "uint256"
        }
      ],
      "name": "createEthRequest",
      "outputs": [
        {
          "internalType": "bytes32",
          "name": "",
          "type": "bytes32"
        }
      ],
      "payable": true,
      "stateMutability": "payable",
      "type": "function"
    },
    {
      "constant": false,
      "inputs": [
        {
          "internalType": "string",
          "name": "target",
          "type": "string"
        },
        {
          "internalType": "enum Models.RqType",
          "name": "rqType",
          "type": "uint8"
        },
        {
          "internalType": "uint256",
          "name": "amount",
          "type": "uint256"
        },
        {
          "internalType": "address",
          "name": "tokenAddress",
          "type": "address"
        }
      ],
      "name": "createTokenRequest",
      "outputs": [
        {
          "internalType": "bytes32",
          "name": "",
          "type": "bytes32"
        }
      ],
      "payable": false,
      "stateMutability": "nonpayable",
      "type": "function"
    },
    {
      "constant": false,
      "inputs": [
        {
          "internalType": "bytes32",
          "name": "requestHash",
          "type": "bytes32"
        },
        {
          "internalType": "uint8[5]",
          "name": "v",
          "type": "uint8[5]"
        },
        {
          "internalType": "bytes32[5]",
          "name": "r",
          "type": "bytes32[5]"
        },
        {
          "internalType": "bytes32[5]",
          "name": "s",
          "type": "bytes32[5]"
        },
        {
          "internalType": "enum Models.Status",
          "name": "status",
          "type": "uint8"
        }
      ],
      "name": "changeStatus",
      "outputs": [],
      "payable": false,
      "stateMutability": "nonpayable",
      "type": "function"
    }
  ],
  "bytecode": "0x60806040523480156200001157600080fd5b50604051620061fe380380620061fe83398181016040526101008110156200003857600080fd5b8101908091908260a00180519060200190929190805160405193929190846401000000008211156200006957600080fd5b838201915060208201858111156200008057600080fd5b82518660018202830111640100000000821117156200009e57600080fd5b8083526020830192505050908051906020019080838360005b83811015620000d4578082015181840152602081019050620000b7565b50505050905090810190601f168015620001025780820380516001836020036101000a031916815260200191505b5060405260200180519060200190929190505050600073ffffffffffffffffffffffffffffffffffffffff16846000600581106200013c57fe5b602002015173ffffffffffffffffffffffffffffffffffffffff161415620001cc576040517f08c379a000000000000000000000000000000000000000000000000000000000815260040180806020018281038252600d8152602001807f656d70747920616464726573730000000000000000000000000000000000000081525060200191505060405180910390fd5b600073ffffffffffffffffffffffffffffffffffffffff1684600160058110620001f257fe5b602002015173ffffffffffffffffffffffffffffffffffffffff16141562000282576040517f08c379a000000000000000000000000000000000000000000000000000000000815260040180806020018281038252600d8152602001807f656d70747920616464726573730000000000000000000000000000000000000081525060200191505060405180910390fd5b600073ffffffffffffffffffffffffffffffffffffffff1684600260058110620002a857fe5b602002015173ffffffffffffffffffffffffffffffffffffffff16141562000338576040517f08c379a000000000000000000000000000000000000000000000000000000000815260040180806020018281038252600d8152602001807f656d70747920616464726573730000000000000000000000000000000000000081525060200191505060405180910390fd5b600073ffffffffffffffffffffffffffffffffffffffff16846003600581106200035e57fe5b602002015173ffffffffffffffffffffffffffffffffffffffff161415620003ee576040517f08c379a000000000000000000000000000000000000000000000000000000000815260040180806020018281038252600d8152602001807f656d70747920616464726573730000000000000000000000000000000000000081525060200191505060405180910390fd5b600073ffffffffffffffffffffffffffffffffffffffff16846004600581106200041457fe5b602002015173ffffffffffffffffffffffffffffffffffffffff161415620004a4576040517f08c379a000000000000000000000000000000000000000000000000000000000815260040180806020018281038252600d8152602001807f656d70747920616464726573730000000000000000000000000000000000000081525060200191505060405180910390fd5b604051806080016040528083815260200160006001811115620004c357fe5b815260200160036004811115620004d657fe5b8152602001601260ff16815250600860008073ffffffffffffffffffffffffffffffffffffffff1673ffffffffffffffffffffffffffffffffffffffff168152602001908152602001600020600082015181600001908051906020019062000540929190620005f9565b5060208201518160010160006101000a81548160ff021916908360018111156200056657fe5b021790555060408201518160010160016101000a81548160ff021916908360048111156200059057fe5b021790555060608201518160010160026101000a81548160ff021916908360ff1602179055509050508060008190555082600660006101000a81548160ff021916908360ff160217905550836001906005620005ee92919062000680565b505050505062000770565b828054600181600116156101000203166002900490600052602060002090601f016020900481019282601f106200063c57805160ff19168380011785556200066d565b828001600101855582156200066d579182015b828111156200066c5782518255916020019190600101906200064f565b5b5090506200067c919062000702565b5090565b8260058101928215620006ef579160200282015b82811115620006ee5782518260006101000a81548173ffffffffffffffffffffffffffffffffffffffff021916908373ffffffffffffffffffffffffffffffffffffffff1602179055509160200191906001019062000694565b5b509050620006fe91906200072a565b5090565b6200072791905b808211156200072357600081600090555060010162000709565b5090565b90565b6200076d91905b808211156200076957600081816101000a81549073ffffffffffffffffffffffffffffffffffffffff02191690555060010162000731565b5090565b90565b615a7e80620007806000396000f3fe608060405260043610620000aa5760003560e01c8063a8413510116200006d578063a841351014620004d1578063dce5e03b14620005e1578063e122be201462000615578063e48603391462000825578063e4a56b2f146200092f578063f488f8021462000a1b57620000aa565b806314bfd6d014620000af578063329881c6146200012e5780636944afe7146200016d578063889347ea146200025c5780639d8669851462000376575b600080fd5b348015620000bc57600080fd5b50620000ec60048036036020811015620000d557600080fd5b810190808035906020019092919050505062000b41565b604051808273ffffffffffffffffffffffffffffffffffffffff1673ffffffffffffffffffffffffffffffffffffffff16815260200191505060405180910390f35b3480156200013b57600080fd5b506200016b600480360360208110156200015457600080fd5b810190808035906020019092919050505062000b75565b005b3480156200017a57600080fd5b506200025a600480360360408110156200019357600080fd5b81019080803573ffffffffffffffffffffffffffffffffffffffff16906020019092919080359060200190640100000000811115620001d157600080fd5b820183602082011115620001e457600080fd5b803590602001918460018302840111640100000000831117156200020757600080fd5b91908080601f016020809104026020016040519081016040528093929190818152602001838380828437600081840152601f19601f82011690508083019250505050505050919291929050505062000fe8565b005b3480156200026957600080fd5b5062000360600480360360808110156200028257600080fd5b8101908080359060200190640100000000811115620002a057600080fd5b820183602082011115620002b357600080fd5b80359060200191846001830284011164010000000083111715620002d657600080fd5b91908080601f016020809104026020016040519081016040528093929190818152602001838380828437600081840152601f19601f820116905080830192505050505050509192919290803560ff16906020019092919080359060200190929190803573ffffffffffffffffffffffffffffffffffffffff16906020019092919050505062001261565b6040518082815260200191505060405180910390f35b3480156200038357600080fd5b50620003b3600480360360208110156200039c57600080fd5b810190808035906020019092919050505062001d27565b60405180886004811115620003c457fe5b60ff168152602001876003811115620003d957fe5b60ff1681526020018673ffffffffffffffffffffffffffffffffffffffff1673ffffffffffffffffffffffffffffffffffffffff168152602001858152602001806020018481526020018373ffffffffffffffffffffffffffffffffffffffff1673ffffffffffffffffffffffffffffffffffffffff168152602001828103825285818151815260200191508051906020019080838360005b838110156200048f57808201518184015260208101905062000472565b50505050905090810190601f168015620004bd5780820380516001836020036101000a031916815260200191505b509850505050505050505060405180910390f35b348015620004de57600080fd5b50620005df6004803603610220811015620004f857600080fd5b81019080803590602001909291908060a001906005806020026040519081016040528092919082600560200280828437600081840152601f19601f82011690508083019250505050505091929192908060a001906005806020026040519081016040528092919082600560200280828437600081840152601f19601f82011690508083019250505050505091929192908060a001906005806020026040519081016040528092919082600560200280828437600081840152601f19601f8201169050808301925050505050509192919290803560ff16906020019092919050505062001e5f565b005b348015620005ee57600080fd5b50620005f962002d53565b604051808260ff1660ff16815260200191505060405180910390f35b3480156200062257600080fd5b5062000823600480360360808110156200063b57600080fd5b81019080803590602001906401000000008111156200065957600080fd5b8201836020820111156200066c57600080fd5b803590602001918460018302840111640100000000831117156200068f57600080fd5b91908080601f016020809104026020016040519081016040528093929190818152602001838380828437600081840152601f19601f82011690508083019250505050505050919291929080359060200190640100000000811115620006f357600080fd5b8201836020820111156200070657600080fd5b803590602001918460018302840111640100000000831117156200072957600080fd5b91908080601f016020809104026020016040519081016040528093929190818152602001838380828437600081840152601f19601f820116905080830192505050505050509192919290803590602001906401000000008111156200078d57600080fd5b820183602082011115620007a057600080fd5b80359060200191846001830284011164010000000083111715620007c357600080fd5b91908080601f016020809104026020016040519081016040528093929190818152602001838380828437600081840152601f19601f820116905080830192505050505050509192919290803560ff16906020019092919050505062002d66565b005b3480156200083257600080fd5b5062000878600480360360208110156200084b57600080fd5b81019080803573ffffffffffffffffffffffffffffffffffffffff16906020019092919050505062002fa1565b60405180806020018560018111156200088d57fe5b60ff168152602001846004811115620008a257fe5b60ff1681526020018360ff1660ff168152602001828103825286818151815260200191508051906020019080838360005b83811015620008f0578082015181840152602081019050620008d3565b50505050905090810190601f1680156200091e5780820380516001836020036101000a031916815260200191505b509550505050505060405180910390f35b62000a05600480360360608110156200094757600080fd5b81019080803590602001906401000000008111156200096557600080fd5b8201836020820111156200097857600080fd5b803590602001918460018302840111640100000000831117156200099b57600080fd5b91908080601f016020809104026020016040519081016040528093929190818152602001838380828437600081840152601f19601f820116905080830192505050505050509192919290803560ff1690602001909291908035906020019092919050505062003094565b6040518082815260200191505060405180910390f35b34801562000a2857600080fd5b5062000b3f600480360361022081101562000a4257600080fd5b81019080803573ffffffffffffffffffffffffffffffffffffffff1690602001909291908060a001906005806020026040519081016040528092919082600560200280828437600081840152601f19601f82011690508083019250505050505091929192908060a001906005806020026040519081016040528092919082600560200280828437600081840152601f19601f82011690508083019250505050505091929192908060a001906005806020026040519081016040528092919082600560200280828437600081840152601f19601f8201169050808301925050505050509192919290803560ff16906020019092919050505062003642565b005b6001816005811062000b4f57fe5b016000915054906101000a900473ffffffffffffffffffffffffffffffffffffffff1681565b6001600481111562000b8357fe5b6007600083815260200190815260200160002060000160009054906101000a900460ff16600481111562000bb357fe5b1462000c27576040517f08c379a00000000000000000000000000000000000000000000000000000000081526004018080602001828103825260118152602001807f72657175657374206e6f7420657869737400000000000000000000000000000081525060200191505060405180910390fd5b600054600760008381526020019081526020016000206001015401431162000cb7576040517f08c379a000000000000000000000000000000000000000000000000000000000815260040180806020018281038252600d8152602001807f7271206e6f74206578706972650000000000000000000000000000000000000081525060200191505060405180910390fd5b600073ffffffffffffffffffffffffffffffffffffffff166007600083815260200190815260200160002060040160009054906101000a900473ffffffffffffffffffffffffffffffffffffffff1673ffffffffffffffffffffffffffffffffffffffff16141562000dbd576007600082815260200190815260200160002060000160029054906101000a900473ffffffffffffffffffffffffffffffffffffffff1673ffffffffffffffffffffffffffffffffffffffff166108fc60076000848152602001908152602001600020600301549081150290604051600060405180830381858888f1935050505015801562000db6573d6000803e3d6000fd5b5062000fac565b6007600082815260200190815260200160002060040160009054906101000a900473ffffffffffffffffffffffffffffffffffffffff1673ffffffffffffffffffffffffffffffffffffffff166323b872dd306007600085815260200190815260200160002060000160029054906101000a900473ffffffffffffffffffffffffffffffffffffffff1660076000868152602001908152602001600020600301546040518463ffffffff1660e01b8152600401808473ffffffffffffffffffffffffffffffffffffffff1673ffffffffffffffffffffffffffffffffffffffff1681526020018373ffffffffffffffffffffffffffffffffffffffff1673ffffffffffffffffffffffffffffffffffffffff1681526020018281526020019350505050602060405180830381600087803b15801562000efb57600080fd5b505af115801562000f10573d6000803e3d6000fd5b505050506040513d602081101562000f2757600080fd5b810190808051906020019092919050505062000fab576040517f08c379a000000000000000000000000000000000000000000000000000000000815260040180806020018281038252600f8152602001807f696e76616c69642062616c616e6365000000000000000000000000000000000081525060200191505060405180910390fd5b5b60046007600083815260200190815260200160002060000160006101000a81548160ff0219169083600481111562000fe057fe5b021790555050565b6000600481111562000ff657fe5b600860008473ffffffffffffffffffffffffffffffffffffffff1673ffffffffffffffffffffffffffffffffffffffff16815260200190815260200160002060010160019054906101000a900460ff1660048111156200105257fe5b14620010c6576040517f08c379a00000000000000000000000000000000000000000000000000000000081526004018080602001828103825260138152602001807f6976616c696420746f6b656e416464726573730000000000000000000000000081525060200191505060405180910390fd5b604051806080016040528082815260200160006001811115620010e557fe5b815260200160016004811115620010f857fe5b81526020018373ffffffffffffffffffffffffffffffffffffffff1663313ce5676040518163ffffffff1660e01b815260040160206040518083038186803b1580156200114457600080fd5b505afa15801562001159573d6000803e3d6000fd5b505050506040513d60208110156200117057600080fd5b810190808051906020019092919050505060ff16815250600860008473ffffffffffffffffffffffffffffffffffffffff1673ffffffffffffffffffffffffffffffffffffffff1681526020019081526020016000206000820151816000019080519060200190620011e492919062003b50565b5060208201518160010160006101000a81548160ff021916908360018111156200120a57fe5b021790555060408201518160010160016101000a81548160ff021916908360048111156200123457fe5b021790555060608201518160010160026101000a81548160ff021916908360ff1602179055509050505050565b60008073ffffffffffffffffffffffffffffffffffffffff168273ffffffffffffffffffffffffffffffffffffffff16141562001306576040517f08c379a00000000000000000000000000000000000000000000000000000000081526004018080602001828103825260148152602001807f696e76616c696420746f6b656e4164647265737300000000000000000000000081525060200191505060405180910390fd5b600360048111156200131457fe5b600860008473ffffffffffffffffffffffffffffffffffffffff1673ffffffffffffffffffffffffffffffffffffffff16815260200190815260200160002060010160019054906101000a900460ff1660048111156200137057fe5b14620013e4576040517f08c379a00000000000000000000000000000000000000000000000000000000081526004018080602001828103825260138152602001807f6976616c696420746f6b656e416464726573730000000000000000000000000081525060200191505060405180910390fd5b600083116200145b576040517f08c379a00000000000000000000000000000000000000000000000000000000081526004018080602001828103825260168152602001807f76616c7565206c657373206f7220657175616c7320300000000000000000000081525060200191505060405180910390fd5b600060018111156200146957fe5b600860008473ffffffffffffffffffffffffffffffffffffffff1673ffffffffffffffffffffffffffffffffffffffff16815260200190815260200160002060010160009054906101000a900460ff166001811115620014c557fe5b1480156200150f575060006003811115620014dc57fe5b846003811115620014e957fe5b14806200150e575060016003811115620014ff57fe5b8460038111156200150c57fe5b145b5b62001582576040517f08c379a00000000000000000000000000000000000000000000000000000000081526004018080602001828103825260208152602001807f72712074797065206973206e6f7420657175616c7320746f6b656e207479706581525060200191505060405180910390fd5b6001808111156200158f57fe5b600860008473ffffffffffffffffffffffffffffffffffffffff1673ffffffffffffffffffffffffffffffffffffffff16815260200190815260200160002060010160009054906101000a900460ff166001811115620015eb57fe5b1480156200163457506003808111156200160157fe5b8460038111156200160e57fe5b1480620016335750600260038111156200162457fe5b8460038111156200163157fe5b145b5b620016a7576040517f08c379a00000000000000000000000000000000000000000000000000000000081526004018080602001828103825260208152602001807f72712074797065206973206e6f7420657175616c7320746f6b656e207479706581525060200191505060405180910390fd5b600380811115620016b457fe5b846003811115620016c157fe5b1480620016e6575060006003811115620016d757fe5b846003811115620016e457fe5b145b8015620017e857508173ffffffffffffffffffffffffffffffffffffffff166323b872dd3330866040518463ffffffff1660e01b8152600401808473ffffffffffffffffffffffffffffffffffffffff1673ffffffffffffffffffffffffffffffffffffffff1681526020018373ffffffffffffffffffffffffffffffffffffffff1673ffffffffffffffffffffffffffffffffffffffff1681526020018281526020019350505050602060405180830381600087803b158015620017aa57600080fd5b505af1158015620017bf573d6000803e3d6000fd5b505050506040513d6020811015620017d657600080fd5b81019080805190602001909291905050505b6200185b576040517f08c379a000000000000000000000000000000000000000000000000000000000815260040180806020018281038252600f8152602001807f696e76616c69642062616c616e6365000000000000000000000000000000000081525060200191505060405180910390fd5b600060023033888743604051602001808673ffffffffffffffffffffffffffffffffffffffff1673ffffffffffffffffffffffffffffffffffffffff1660601b81526014018573ffffffffffffffffffffffffffffffffffffffff1673ffffffffffffffffffffffffffffffffffffffff1660601b815260140184805190602001908083835b60208310620019065780518252602082019150602081019050602083039250620018e1565b6001836020036101000a038019825116818451168082178552505050505050905001838152602001828152602001955050505050506040516020818303038152906040526040518082805190602001908083835b602083106200197f57805182526020820191506020810190506020830392506200195a565b6001836020036101000a038019825116818451168082178552505050505050905001915050602060405180830381855afa158015620019c2573d6000803e3d6000fd5b5050506040513d6020811015620019d857600080fd5b8101908080519060200190929190505050905060006004811115620019f957fe5b6007600083815260200190815260200160002060000160009054906101000a900460ff16600481111562001a2957fe5b1462001a9d576040517f08c379a000000000000000000000000000000000000000000000000000000000815260040180806020018281038252600d8152602001807f726571756573742065786973740000000000000000000000000000000000000081525060200191505060405180910390fd5b6040518060e001604052806001600481111562001ab657fe5b815260200186600381111562001ac857fe5b81526020013373ffffffffffffffffffffffffffffffffffffffff1681526020014381526020018781526020018581526020018473ffffffffffffffffffffffffffffffffffffffff168152506007600083815260200190815260200160002060008201518160000160006101000a81548160ff0219169083600481111562001b4d57fe5b021790555060208201518160000160016101000a81548160ff0219169083600381111562001b7757fe5b021790555060408201518160000160026101000a81548173ffffffffffffffffffffffffffffffffffffffff021916908373ffffffffffffffffffffffffffffffffffffffff16021790555060608201518160010155608082015181600201908051906020019062001beb92919062003b50565b5060a0820151816003015560c08201518160040160006101000a81548173ffffffffffffffffffffffffffffffffffffffff021916908373ffffffffffffffffffffffffffffffffffffffff1602179055509050507fe5048cb72529de5404e374d7fdbda8558caeb479015b507903292cf51c115896813388604051808481526020018373ffffffffffffffffffffffffffffffffffffffff1673ffffffffffffffffffffffffffffffffffffffff16815260200180602001828103825283818151815260200191508051906020019080838360005b8381101562001cde57808201518184015260208101905062001cc1565b50505050905090810190601f16801562001d0c5780820380516001836020036101000a031916815260200191505b5094505050505060405180910390a180915050949350505050565b60076020528060005260406000206000915090508060000160009054906101000a900460ff16908060000160019054906101000a900460ff16908060000160029054906101000a900473ffffffffffffffffffffffffffffffffffffffff1690806001015490806002018054600181600116156101000203166002900480601f01602080910402602001604051908101604052809291908181526020018280546001816001161561010002031660029004801562001e295780601f1062001dfd5761010080835404028352916020019162001e29565b820191906000526020600020905b81548152906001019060200180831162001e0b57829003601f168201915b5050505050908060030154908060040160009054906101000a900473ffffffffffffffffffffffffffffffffffffffff16905087565b6001600481111562001e6d57fe5b6007600087815260200190815260200160002060000160009054906101000a900460ff16600481111562001e9d57fe5b1462001f11576040517f08c379a00000000000000000000000000000000000000000000000000000000081526004018080602001828103825260118152602001807f737461747573206973206e6f77206e657700000000000000000000000000000081525060200191505060405180910390fd5b6003600481111562001f1f57fe5b81600481111562001f2c57fe5b148062001f5157506002600481111562001f4257fe5b81600481111562001f4f57fe5b145b62001fc4576040517f08c379a000000000000000000000000000000000000000000000000000000000815260040180806020018281038252600e8152602001807f696e76616c69642073746174757300000000000000000000000000000000000081525060200191505060405180910390fd5b60005460076000878152602001908152602001600020600101540143111562002055576040517f08c379a00000000000000000000000000000000000000000000000000000000081526004018080602001828103825260098152602001807f727120657870697265000000000000000000000000000000000000000000000081525060200191505060405180910390fd5b60006007600087815260200190815260200160002060040160009054906101000a900473ffffffffffffffffffffffffffffffffffffffff169050600080905060008090505b6005811015620022995760018160058110620020b357fe5b0160009054906101000a900473ffffffffffffffffffffffffffffffffffffffff1673ffffffffffffffffffffffffffffffffffffffff16600189866004811115620020fb57fe5b604051602001808381526020018260ff1660ff1660f81b81526001019250505060405160208183030381529060405260405160200180807f19457468657265756d205369676e6564204d6573736167653a0a333300000000815250601c0182805190602001908083835b602083106200218a578051825260208201915060208101905060208303925062002165565b6001836020036101000a03801982511681845116808217855250505050505090500191505060405160208183030381529060405280519060200120898460058110620021d257fe5b6020020151898560058110620021e457fe5b6020020151898660058110620021f657fe5b602002015160405160008152602001604052604051808581526020018460ff1660ff1681526020018381526020018281526020019450505050506020604051602081039080840390855afa15801562002253573d6000803e3d6000fd5b5050506020604051035173ffffffffffffffffffffffffffffffffffffffff16146200228157600062002284565b60015b60ff168201915080806001019150506200209b565b50600660009054906101000a900460ff1660ff1681121562002307576040517f08c379a000000000000000000000000000000000000000000000000000000000815260040180806020018281038252602781526020018062005a236027913960400191505060405180910390fd5b600360048111156200231557fe5b8360048111156200232257fe5b1415620027ce57600260038111156200233757fe5b6007600089815260200190815260200160002060000160019054906101000a900460ff1660038111156200236757fe5b1415620024f8578173ffffffffffffffffffffffffffffffffffffffff166340c10f19600760008a815260200190815260200160002060000160029054906101000a900473ffffffffffffffffffffffffffffffffffffffff16600760008b8152602001908152602001600020600301546040518363ffffffff1660e01b8152600401808373ffffffffffffffffffffffffffffffffffffffff1673ffffffffffffffffffffffffffffffffffffffff16815260200182815260200192505050602060405180830381600087803b1580156200244257600080fd5b505af115801562002457573d6000803e3d6000fd5b505050506040513d60208110156200246e57600080fd5b8101908080519060200190929190505050620024f2576040517f08c379a000000000000000000000000000000000000000000000000000000000815260040180806020018281038252600f8152602001807f696e76616c69642062616c616e6365000000000000000000000000000000000081525060200191505060405180910390fd5b620027c8565b600160038111156200250657fe5b6007600089815260200190815260200160002060000160019054906101000a900460ff1660038111156200253657fe5b1415620027c757600073ffffffffffffffffffffffffffffffffffffffff168273ffffffffffffffffffffffffffffffffffffffff1614156200260d576007600088815260200190815260200160002060000160029054906101000a900473ffffffffffffffffffffffffffffffffffffffff1673ffffffffffffffffffffffffffffffffffffffff166108fc600760008a8152602001908152602001600020600301549081150290604051600060405180830381858888f1935050505015801562002606573d6000803e3d6000fd5b50620027c6565b8173ffffffffffffffffffffffffffffffffffffffff166323b872dd30600760008b815260200190815260200160002060000160029054906101000a900473ffffffffffffffffffffffffffffffffffffffff16600760008c8152602001908152602001600020600301546040518463ffffffff1660e01b8152600401808473ffffffffffffffffffffffffffffffffffffffff1673ffffffffffffffffffffffffffffffffffffffff1681526020018373ffffffffffffffffffffffffffffffffffffffff1673ffffffffffffffffffffffffffffffffffffffff1681526020018281526020019350505050602060405180830381600087803b1580156200271557600080fd5b505af11580156200272a573d6000803e3d6000fd5b505050506040513d60208110156200274157600080fd5b8101908080519060200190929190505050620027c5576040517f08c379a000000000000000000000000000000000000000000000000000000000815260040180806020018281038252600f8152602001807f696e76616c69642062616c616e6365000000000000000000000000000000000081525060200191505060405180910390fd5b5b5b5b62002cc4565b60026004811115620027dc57fe5b836004811115620027e957fe5b141562002cc357600380811115620027fd57fe5b6007600089815260200190815260200160002060000160019054906101000a900460ff1660038111156200282d57fe5b1415620029f2578173ffffffffffffffffffffffffffffffffffffffff166323b872dd30600760008b815260200190815260200160002060000160029054906101000a900473ffffffffffffffffffffffffffffffffffffffff16600760008c8152602001908152602001600020600301546040518463ffffffff1660e01b8152600401808473ffffffffffffffffffffffffffffffffffffffff1673ffffffffffffffffffffffffffffffffffffffff1681526020018373ffffffffffffffffffffffffffffffffffffffff1673ffffffffffffffffffffffffffffffffffffffff1681526020018281526020019350505050602060405180830381600087803b1580156200293c57600080fd5b505af115801562002951573d6000803e3d6000fd5b505050506040513d60208110156200296857600080fd5b8101908080519060200190929190505050620029ec576040517f08c379a000000000000000000000000000000000000000000000000000000000815260040180806020018281038252600f8152602001807f696e76616c69642062616c616e6365000000000000000000000000000000000081525060200191505060405180910390fd5b62002cc2565b6000600381111562002a0057fe5b6007600089815260200190815260200160002060000160019054906101000a900460ff16600381111562002a3057fe5b141562002cc157600073ffffffffffffffffffffffffffffffffffffffff168273ffffffffffffffffffffffffffffffffffffffff16141562002b07576007600088815260200190815260200160002060000160029054906101000a900473ffffffffffffffffffffffffffffffffffffffff1673ffffffffffffffffffffffffffffffffffffffff166108fc600760008a8152602001908152602001600020600301549081150290604051600060405180830381858888f1935050505015801562002b00573d6000803e3d6000fd5b5062002cc0565b8173ffffffffffffffffffffffffffffffffffffffff166323b872dd30600760008b815260200190815260200160002060000160029054906101000a900473ffffffffffffffffffffffffffffffffffffffff16600760008c8152602001908152602001600020600301546040518463ffffffff1660e01b8152600401808473ffffffffffffffffffffffffffffffffffffffff1673ffffffffffffffffffffffffffffffffffffffff1681526020018373ffffffffffffffffffffffffffffffffffffffff1673ffffffffffffffffffffffffffffffffffffffff1681526020018281526020019350505050602060405180830381600087803b15801562002c0f57600080fd5b505af115801562002c24573d6000803e3d6000fd5b505050506040513d602081101562002c3b57600080fd5b810190808051906020019092919050505062002cbf576040517f08c379a000000000000000000000000000000000000000000000000000000000815260040180806020018281038252600f8152602001807f696e76616c69642062616c616e6365000000000000000000000000000000000081525060200191505060405180910390fd5b5b5b5b5b5b826007600089815260200190815260200160002060000160006101000a81548160ff0219169083600481111562002cf757fe5b02179055507f22ce671cd3f328f71ef109d846af764df2d16bb8eb664c4f41065656c6e9962c87846040518083815260200182600481111562002d3657fe5b60ff1681526020019250505060405180910390a150505050505050565b600660009054906101000a900460ff1681565b600083838360405162002d799062003bd7565b8080602001806020018460ff1660ff168152602001838103835286818151815260200191508051906020019080838360005b8381101562002dc857808201518184015260208101905062002dab565b50505050905090810190601f16801562002df65780820380516001836020036101000a031916815260200191505b50838103825285818151815260200191508051906020019080838360005b8381101562002e3157808201518184015260208101905062002e14565b50505050905090810190601f16801562002e5f5780820380516001836020036101000a031916815260200191505b5095505050505050604051809103906000f08015801562002e84573d6000803e3d6000fd5b509050604051806080016040528086815260200160018081111562002ea557fe5b81526020016001600481111562002eb857fe5b81526020018360ff16815250600860008373ffffffffffffffffffffffffffffffffffffffff1673ffffffffffffffffffffffffffffffffffffffff168152602001908152602001600020600082015181600001908051906020019062002f2192919062003b50565b5060208201518160010160006101000a81548160ff0219169083600181111562002f4757fe5b021790555060408201518160010160016101000a81548160ff0219169083600481111562002f7157fe5b021790555060608201518160010160026101000a81548160ff021916908360ff1602179055509050505050505050565b6008602052806000526040600020600091509050806000018054600181600116156101000203166002900480601f016020809104026020016040519081016040528092919081815260200182805460018160011615610100020316600290048015620030515780601f10620030255761010080835404028352916020019162003051565b820191906000526020600020905b8154815290600101906020018083116200303357829003601f168201915b5050505050908060010160009054906101000a900460ff16908060010160019054906101000a900460ff16908060010160029054906101000a900460ff16905084565b6000806003811115620030a357fe5b836003811115620030b057fe5b1480620030d5575060016003811115620030c657fe5b836003811115620030d357fe5b145b62003148576040517f08c379a00000000000000000000000000000000000000000000000000000000081526004018080602001828103825260208152602001807f72712074797065206973206e6f7420657175616c7320746f6b656e207479706581525060200191505060405180910390fd5b60008060038111156200315757fe5b8460038111156200316457fe5b1462003171578262003173565b345b9050600060023033888543604051602001808673ffffffffffffffffffffffffffffffffffffffff1673ffffffffffffffffffffffffffffffffffffffff1660601b81526014018573ffffffffffffffffffffffffffffffffffffffff1673ffffffffffffffffffffffffffffffffffffffff1660601b815260140184805190602001908083835b60208310620032205780518252602082019150602081019050602083039250620031fb565b6001836020036101000a038019825116818451168082178552505050505050905001838152602001828152602001955050505050506040516020818303038152906040526040518082805190602001908083835b6020831062003299578051825260208201915060208101905060208303925062003274565b6001836020036101000a038019825116818451168082178552505050505050905001915050602060405180830381855afa158015620032dc573d6000803e3d6000fd5b5050506040513d6020811015620032f257600080fd5b81019080805190602001909291905050509050600060048111156200331357fe5b6007600083815260200190815260200160002060000160009054906101000a900460ff1660048111156200334357fe5b14620033b7576040517f08c379a000000000000000000000000000000000000000000000000000000000815260040180806020018281038252600d8152602001807f726571756573742065786973740000000000000000000000000000000000000081525060200191505060405180910390fd5b6040518060e0016040528060016004811115620033d057fe5b8152602001866003811115620033e257fe5b81526020013373ffffffffffffffffffffffffffffffffffffffff168152602001438152602001878152602001838152602001600073ffffffffffffffffffffffffffffffffffffffff168152506007600083815260200190815260200160002060008201518160000160006101000a81548160ff021916908360048111156200346857fe5b021790555060208201518160000160016101000a81548160ff021916908360038111156200349257fe5b021790555060408201518160000160026101000a81548173ffffffffffffffffffffffffffffffffffffffff021916908373ffffffffffffffffffffffffffffffffffffffff1602179055506060820151816001015560808201518160020190805190602001906200350692919062003b50565b5060a0820151816003015560c08201518160040160006101000a81548173ffffffffffffffffffffffffffffffffffffffff021916908373ffffffffffffffffffffffffffffffffffffffff1602179055509050507fe5048cb72529de5404e374d7fdbda8558caeb479015b507903292cf51c115896813388604051808481526020018373ffffffffffffffffffffffffffffffffffffffff1673ffffffffffffffffffffffffffffffffffffffff16815260200180602001828103825283818151815260200191508051906020019080838360005b83811015620035f9578082015181840152602081019050620035dc565b50505050905090810190601f168015620036275780820380516001836020036101000a031916815260200191505b5094505050505060405180910390a180925050509392505050565b600160048111156200365057fe5b600860008773ffffffffffffffffffffffffffffffffffffffff1673ffffffffffffffffffffffffffffffffffffffff16815260200190815260200160002060010160019054906101000a900460ff166004811115620036ac57fe5b1462003720576040517f08c379a00000000000000000000000000000000000000000000000000000000081526004018080602001828103825260138152602001807f6976616c696420746f6b656e416464726573730000000000000000000000000081525060200191505060405180910390fd5b600360048111156200372e57fe5b8160048111156200373b57fe5b14620037af576040517f08c379a000000000000000000000000000000000000000000000000000000000815260040180806020018281038252600d8152602001807f6976616c6964207374617475730000000000000000000000000000000000000081525060200191505060405180910390fd5b60026004811115620037bd57fe5b816004811115620037ca57fe5b146200383e576040517f08c379a000000000000000000000000000000000000000000000000000000000815260040180806020018281038252600d8152602001807f6976616c6964207374617475730000000000000000000000000000000000000081525060200191505060405180910390fd5b600080905060008090505b600581101562003a7657600181600581106200386157fe5b0160009054906101000a900473ffffffffffffffffffffffffffffffffffffffff1673ffffffffffffffffffffffffffffffffffffffff16600188856004811115620038a957fe5b604051602001808373ffffffffffffffffffffffffffffffffffffffff1673ffffffffffffffffffffffffffffffffffffffff1660601b81526014018260ff1660ff1660f81b81526001019250505060405160208183030381529060405260405160200180807f19457468657265756d205369676e6564204d6573736167653a0a323200000000815250601c0182805190602001908083835b6020831062003967578051825260208201915060208101905060208303925062003942565b6001836020036101000a03801982511681845116808217855250505050505090500191505060405160208183030381529060405280519060200120888460058110620039af57fe5b6020020151888560058110620039c157fe5b6020020151888660058110620039d357fe5b602002015160405160008152602001604052604051808581526020018460ff1660ff1681526020018381526020018281526020019450505050506020604051602081039080840390855afa15801562003a30573d6000803e3d6000fd5b5050506020604051035173ffffffffffffffffffffffffffffffffffffffff161462003a5e57600062003a61565b60015b60ff1682019150808060010191505062003849565b50600660009054906101000a900460ff1660ff1681121562003ae4576040517f08c379a000000000000000000000000000000000000000000000000000000000815260040180806020018281038252602781526020018062005a236027913960400191505060405180910390fd5b81600860008873ffffffffffffffffffffffffffffffffffffffff1673ffffffffffffffffffffffffffffffffffffffff16815260200190815260200160002060010160016101000a81548160ff0219169083600481111562003b4357fe5b0217905550505050505050565b828054600181600116156101000203166002900490600052602060002090601f016020900481019282601f1062003b9357805160ff191683800117855562003bc4565b8280016001018555821562003bc4579182015b8281111562003bc357825182559160200191906001019062003ba6565b5b50905062003bd3919062003be5565b5090565b611e158062003c0e83390190565b62003c0a91905b8082111562003c0657600081600090555060010162003bec565b5090565b9056fe60806040523480156200001157600080fd5b5060405162001e1538038062001e15833981810160405260608110156200003757600080fd5b81019080805160405193929190846401000000008211156200005857600080fd5b838201915060208201858111156200006f57600080fd5b82518660018202830111640100000000821117156200008d57600080fd5b8083526020830192505050908051906020019080838360005b83811015620000c3578082015181840152602081019050620000a6565b50505050905090810190601f168015620000f15780820380516001836020036101000a031916815260200191505b50604052602001805160405193929190846401000000008211156200011557600080fd5b838201915060208201858111156200012c57600080fd5b82518660018202830111640100000000821117156200014a57600080fd5b8083526020830192505050908051906020019080838360005b838110156200018057808201518184015260208101905062000163565b50505050905090810190601f168015620001ae5780820380516001836020036101000a031916815260200191505b5060405260200180519060200190929190505050620001e2620001d66200025860201b60201c565b6200026060201b60201c565b8260049080519060200190620001fa92919062000485565b5081600590805190602001906200021392919062000485565b5080600660006101000a81548160ff021916908360ff1602179055506200024f620002436200025860201b60201c565b6200026060201b60201c565b50505062000534565b600033905090565b6200027b816003620002c160201b6200156e1790919060201c565b8073ffffffffffffffffffffffffffffffffffffffff167f6ae172837ea30b801fbfcdd4108aa1d5bf8ff775444fd70256b44e6bf3dfc3f660405160405180910390a250565b620002d38282620003a560201b60201c565b1562000347576040517f08c379a000000000000000000000000000000000000000000000000000000000815260040180806020018281038252601f8152602001807f526f6c65733a206163636f756e7420616c72656164792068617320726f6c650081525060200191505060405180910390fd5b60018260000160008373ffffffffffffffffffffffffffffffffffffffff1673ffffffffffffffffffffffffffffffffffffffff16815260200190815260200160002060006101000a81548160ff0219169083151502179055505050565b60008073ffffffffffffffffffffffffffffffffffffffff168273ffffffffffffffffffffffffffffffffffffffff1614156200042e576040517f08c379a000000000000000000000000000000000000000000000000000000000815260040180806020018281038252602281526020018062001df36022913960400191505060405180910390fd5b8260000160008373ffffffffffffffffffffffffffffffffffffffff1673ffffffffffffffffffffffffffffffffffffffff16815260200190815260200160002060009054906101000a900460ff16905092915050565b828054600181600116156101000203166002900490600052602060002090601f016020900481019282601f10620004c857805160ff1916838001178555620004f9565b82800160010185558215620004f9579182015b82811115620004f8578251825591602001919060010190620004db565b5b5090506200050891906200050c565b5090565b6200053191905b808211156200052d57600081600090555060010162000513565b5090565b90565b6118af80620005446000396000f3fe608060405234801561001057600080fd5b50600436106100f55760003560e01c806370a0823111610097578063a457c2d711610066578063a457c2d7146104a0578063a9059cbb14610506578063aa271e1a1461056c578063dd62ed3e146105c8576100f5565b806370a082311461037757806395d89b41146103cf578063983b2d56146104525780639865027514610496576100f5565b806323b872dd116100d357806323b872dd14610201578063313ce5671461028757806339509351146102ab57806340c10f1914610311576100f5565b806306fdde03146100fa578063095ea7b31461017d57806318160ddd146101e3575b600080fd5b610102610640565b6040518080602001828103825283818151815260200191508051906020019080838360005b83811015610142578082015181840152602081019050610127565b50505050905090810190601f16801561016f5780820380516001836020036101000a031916815260200191505b509250505060405180910390f35b6101c96004803603604081101561019357600080fd5b81019080803573ffffffffffffffffffffffffffffffffffffffff169060200190929190803590602001909291905050506106e2565b604051808215151515815260200191505060405180910390f35b6101eb610700565b6040518082815260200191505060405180910390f35b61026d6004803603606081101561021757600080fd5b81019080803573ffffffffffffffffffffffffffffffffffffffff169060200190929190803573ffffffffffffffffffffffffffffffffffffffff1690602001909291908035906020019092919050505061070a565b604051808215151515815260200191505060405180910390f35b61028f6107e3565b604051808260ff1660ff16815260200191505060405180910390f35b6102f7600480360360408110156102c157600080fd5b81019080803573ffffffffffffffffffffffffffffffffffffffff169060200190929190803590602001909291905050506107fa565b604051808215151515815260200191505060405180910390f35b61035d6004803603604081101561032757600080fd5b81019080803573ffffffffffffffffffffffffffffffffffffffff169060200190929190803590602001909291905050506108ad565b604051808215151515815260200191505060405180910390f35b6103b96004803603602081101561038d57600080fd5b81019080803573ffffffffffffffffffffffffffffffffffffffff169060200190929190505050610928565b6040518082815260200191505060405180910390f35b6103d7610970565b6040518080602001828103825283818151815260200191508051906020019080838360005b838110156104175780820151818401526020810190506103fc565b50505050905090810190601f1680156104445780820380516001836020036101000a031916815260200191505b509250505060405180910390f35b6104946004803603602081101561046857600080fd5b81019080803573ffffffffffffffffffffffffffffffffffffffff169060200190929190505050610a12565b005b61049e610a83565b005b6104ec600480360360408110156104b657600080fd5b81019080803573ffffffffffffffffffffffffffffffffffffffff16906020019092919080359060200190929190505050610a95565b604051808215151515815260200191505060405180910390f35b6105526004803603604081101561051c57600080fd5b81019080803573ffffffffffffffffffffffffffffffffffffffff16906020019092919080359060200190929190505050610b62565b604051808215151515815260200191505060405180910390f35b6105ae6004803603602081101561058257600080fd5b81019080803573ffffffffffffffffffffffffffffffffffffffff169060200190929190505050610b80565b604051808215151515815260200191505060405180910390f35b61062a600480360360408110156105de57600080fd5b81019080803573ffffffffffffffffffffffffffffffffffffffff169060200190929190803573ffffffffffffffffffffffffffffffffffffffff169060200190929190505050610b9d565b6040518082815260200191505060405180910390f35b606060048054600181600116156101000203166002900480601f0160208091040260200160405190810160405280929190818152602001828054600181600116156101000203166002900480156106d85780601f106106ad576101008083540402835291602001916106d8565b820191906000526020600020905b8154815290600101906020018083116106bb57829003601f168201915b5050505050905090565b60006106f66106ef610c24565b8484610c2c565b6001905092915050565b6000600254905090565b6000610717848484610e23565b6107d884610723610c24565b6107d3856040518060600160405280602881526020016117c360289139600160008b73ffffffffffffffffffffffffffffffffffffffff1673ffffffffffffffffffffffffffffffffffffffff1681526020019081526020016000206000610789610c24565b73ffffffffffffffffffffffffffffffffffffffff1673ffffffffffffffffffffffffffffffffffffffff168152602001908152602001600020546110d99092919063ffffffff16565b610c2c565b600190509392505050565b6000600660009054906101000a900460ff16905090565b60006108a3610807610c24565b8461089e8560016000610818610c24565b73ffffffffffffffffffffffffffffffffffffffff1673ffffffffffffffffffffffffffffffffffffffff16815260200190815260200160002060008973ffffffffffffffffffffffffffffffffffffffff1673ffffffffffffffffffffffffffffffffffffffff1681526020019081526020016000205461119990919063ffffffff16565b610c2c565b6001905092915050565b60006108bf6108ba610c24565b610b80565b610914576040517f08c379a00000000000000000000000000000000000000000000000000000000081526004018080602001828103825260308152602001806117726030913960400191505060405180910390fd5b61091e8383611221565b6001905092915050565b60008060008373ffffffffffffffffffffffffffffffffffffffff1673ffffffffffffffffffffffffffffffffffffffff168152602001908152602001600020549050919050565b606060058054600181600116156101000203166002900480601f016020809104026020016040519081016040528092919081815260200182805460018160011615610100020316600290048015610a085780601f106109dd57610100808354040283529160200191610a08565b820191906000526020600020905b8154815290600101906020018083116109eb57829003601f168201915b5050505050905090565b610a22610a1d610c24565b610b80565b610a77576040517f08c379a00000000000000000000000000000000000000000000000000000000081526004018080602001828103825260308152602001806117726030913960400191505060405180910390fd5b610a80816113dc565b50565b610a93610a8e610c24565b611436565b565b6000610b58610aa2610c24565b84610b53856040518060600160405280602581526020016118566025913960016000610acc610c24565b73ffffffffffffffffffffffffffffffffffffffff1673ffffffffffffffffffffffffffffffffffffffff16815260200190815260200160002060008a73ffffffffffffffffffffffffffffffffffffffff1673ffffffffffffffffffffffffffffffffffffffff168152602001908152602001600020546110d99092919063ffffffff16565b610c2c565b6001905092915050565b6000610b76610b6f610c24565b8484610e23565b6001905092915050565b6000610b9682600361149090919063ffffffff16565b9050919050565b6000600160008473ffffffffffffffffffffffffffffffffffffffff1673ffffffffffffffffffffffffffffffffffffffff16815260200190815260200160002060008373ffffffffffffffffffffffffffffffffffffffff1673ffffffffffffffffffffffffffffffffffffffff16815260200190815260200160002054905092915050565b600033905090565b600073ffffffffffffffffffffffffffffffffffffffff168373ffffffffffffffffffffffffffffffffffffffff161415610cb2576040517f08c379a00000000000000000000000000000000000000000000000000000000081526004018080602001828103825260248152602001806118326024913960400191505060405180910390fd5b600073ffffffffffffffffffffffffffffffffffffffff168273ffffffffffffffffffffffffffffffffffffffff161415610d38576040517f08c379a000000000000000000000000000000000000000000000000000000000815260040180806020018281038252602281526020018061172a6022913960400191505060405180910390fd5b80600160008573ffffffffffffffffffffffffffffffffffffffff1673ffffffffffffffffffffffffffffffffffffffff16815260200190815260200160002060008473ffffffffffffffffffffffffffffffffffffffff1673ffffffffffffffffffffffffffffffffffffffff168152602001908152602001600020819055508173ffffffffffffffffffffffffffffffffffffffff168373ffffffffffffffffffffffffffffffffffffffff167f8c5be1e5ebec7d5bd14f71427d1e84f3dd0314c0f7b2291e5b200ac8c7c3b925836040518082815260200191505060405180910390a3505050565b600073ffffffffffffffffffffffffffffffffffffffff168373ffffffffffffffffffffffffffffffffffffffff161415610ea9576040517f08c379a000000000000000000000000000000000000000000000000000000000815260040180806020018281038252602581526020018061180d6025913960400191505060405180910390fd5b600073ffffffffffffffffffffffffffffffffffffffff168273ffffffffffffffffffffffffffffffffffffffff161415610f2f576040517f08c379a00000000000000000000000000000000000000000000000000000000081526004018080602001828103825260238152602001806117076023913960400191505060405180910390fd5b610f9a8160405180606001604052806026815260200161174c602691396000808773ffffffffffffffffffffffffffffffffffffffff1673ffffffffffffffffffffffffffffffffffffffff168152602001908152602001600020546110d99092919063ffffffff16565b6000808573ffffffffffffffffffffffffffffffffffffffff1673ffffffffffffffffffffffffffffffffffffffff1681526020019081526020016000208190555061102d816000808573ffffffffffffffffffffffffffffffffffffffff1673ffffffffffffffffffffffffffffffffffffffff1681526020019081526020016000205461119990919063ffffffff16565b6000808473ffffffffffffffffffffffffffffffffffffffff1673ffffffffffffffffffffffffffffffffffffffff168152602001908152602001600020819055508173ffffffffffffffffffffffffffffffffffffffff168373ffffffffffffffffffffffffffffffffffffffff167fddf252ad1be2c89b69c2b068fc378daa952ba7f163c4a11628f55a4df523b3ef836040518082815260200191505060405180910390a3505050565b6000838311158290611186576040517f08c379a00000000000000000000000000000000000000000000000000000000081526004018080602001828103825283818151815260200191508051906020019080838360005b8381101561114b578082015181840152602081019050611130565b50505050905090810190601f1680156111785780820380516001836020036101000a031916815260200191505b509250505060405180910390fd5b5060008385039050809150509392505050565b600080828401905083811015611217576040517f08c379a000000000000000000000000000000000000000000000000000000000815260040180806020018281038252601b8152602001807f536166654d6174683a206164646974696f6e206f766572666c6f77000000000081525060200191505060405180910390fd5b8091505092915050565b600073ffffffffffffffffffffffffffffffffffffffff168273ffffffffffffffffffffffffffffffffffffffff1614156112c4576040517f08c379a000000000000000000000000000000000000000000000000000000000815260040180806020018281038252601f8152602001807f45524332303a206d696e7420746f20746865207a65726f20616464726573730081525060200191505060405180910390fd5b6112d98160025461119990919063ffffffff16565b600281905550611330816000808573ffffffffffffffffffffffffffffffffffffffff1673ffffffffffffffffffffffffffffffffffffffff1681526020019081526020016000205461119990919063ffffffff16565b6000808473ffffffffffffffffffffffffffffffffffffffff1673ffffffffffffffffffffffffffffffffffffffff168152602001908152602001600020819055508173ffffffffffffffffffffffffffffffffffffffff16600073ffffffffffffffffffffffffffffffffffffffff167fddf252ad1be2c89b69c2b068fc378daa952ba7f163c4a11628f55a4df523b3ef836040518082815260200191505060405180910390a35050565b6113f081600361156e90919063ffffffff16565b8073ffffffffffffffffffffffffffffffffffffffff167f6ae172837ea30b801fbfcdd4108aa1d5bf8ff775444fd70256b44e6bf3dfc3f660405160405180910390a250565b61144a81600361164990919063ffffffff16565b8073ffffffffffffffffffffffffffffffffffffffff167fe94479a9f7e1952cc78f2d6baab678adc1b772d936c6583def489e524cb6669260405160405180910390a250565b60008073ffffffffffffffffffffffffffffffffffffffff168273ffffffffffffffffffffffffffffffffffffffff161415611517576040517f08c379a00000000000000000000000000000000000000000000000000000000081526004018080602001828103825260228152602001806117eb6022913960400191505060405180910390fd5b8260000160008373ffffffffffffffffffffffffffffffffffffffff1673ffffffffffffffffffffffffffffffffffffffff16815260200190815260200160002060009054906101000a900460ff16905092915050565b6115788282611490565b156115eb576040517f08c379a000000000000000000000000000000000000000000000000000000000815260040180806020018281038252601f8152602001807f526f6c65733a206163636f756e7420616c72656164792068617320726f6c650081525060200191505060405180910390fd5b60018260000160008373ffffffffffffffffffffffffffffffffffffffff1673ffffffffffffffffffffffffffffffffffffffff16815260200190815260200160002060006101000a81548160ff0219169083151502179055505050565b6116538282611490565b6116a8576040517f08c379a00000000000000000000000000000000000000000000000000000000081526004018080602001828103825260218152602001806117a26021913960400191505060405180910390fd5b60008260000160008373ffffffffffffffffffffffffffffffffffffffff1673ffffffffffffffffffffffffffffffffffffffff16815260200190815260200160002060006101000a81548160ff021916908315150217905550505056fe45524332303a207472616e7366657220746f20746865207a65726f206164647265737345524332303a20617070726f766520746f20746865207a65726f206164647265737345524332303a207472616e7366657220616d6f756e7420657863656564732062616c616e63654d696e746572526f6c653a2063616c6c657220646f6573206e6f74206861766520746865204d696e74657220726f6c65526f6c65733a206163636f756e7420646f6573206e6f74206861766520726f6c6545524332303a207472616e7366657220616d6f756e74206578636565647320616c6c6f77616e6365526f6c65733a206163636f756e7420697320746865207a65726f206164647265737345524332303a207472616e736665722066726f6d20746865207a65726f206164647265737345524332303a20617070726f76652066726f6d20746865207a65726f206164647265737345524332303a2064656372656173656420616c6c6f77616e63652062656c6f77207a65726fa265627a7a723158202beea7690b778606494359858295637effa9991a8c5655ad20937dde36d10ac864736f6c63430005100032526f6c65733a206163636f756e7420697320746865207a65726f206164647265737361646d696e7320766f746520636f756e74206973206c65737320626674436f6566666963656e74a265627a7a7231582027ac8f0c5e2c4e4fb7cf184b3a755c905a587e456062b02cb014b526d80673eb64736f6c63430005100032",
  "source": "pragma solidity >=0.5.16 <=0.6.4;\n\nimport \"./Token.sol\";\nimport \"./Models.sol\";\n\ncontract Supersymmetry {\n    event NewRequest(bytes32 requestHash, address owner, string target);\n    event StatusChanged(bytes32 requestHash, Models.Status status);\n    event Mint(bytes32 requestHash, address owner, uint amount);\n    event Return(bytes32 requestHash, address owner, uint amount);\n\n    uint timeout;\n    address[5] public admins;\n    uint8 public bftCoefficent;\n    mapping(bytes32 => Models.Request) public requests;\n    mapping(address => Models.Token) public tokens;\n\n    constructor(address[5] memory newAdmins, uint8 newBftCoefficent, string memory ethAssetId, uint newTimeout) public {\n        require(newAdmins[0] != address(0x00), \"empty address\");\n        require(newAdmins[1] != address(0x00), \"empty address\");\n        require(newAdmins[2] != address(0x00), \"empty address\");\n        require(newAdmins[3] != address(0x00), \"empty address\");\n        require(newAdmins[4] != address(0x00), \"empty address\");\n\n        tokens[address(0x00)] = Models.Token(ethAssetId, Models.TokenType.NativeToken, Models.Status.Success, 18);\n        timeout = newTimeout;\n        bftCoefficent = newBftCoefficent;\n        admins = newAdmins;\n    }\n    \n    function registerNativeToken(address tokenAddress, string memory assetId) public {\n        require(tokens[tokenAddress].status == Models.Status.None, \"ivalid tokenAddress\");\n        tokens[tokenAddress] = Models.Token(assetId, Models.TokenType.NativeToken, Models.Status.New, Token(tokenAddress).decimals());\n    }\n\n    function registerInputToken(string memory assetId, string memory name, string memory symbol, uint8 decimals) public {\n        address tokenAddress = address(new Token(name, symbol, decimals));\n        tokens[tokenAddress] = Models.Token(assetId, Models.TokenType.InputToken, Models.Status.New, decimals);\n    }\n\n    function changeTokenStatus(address tokenAddress, uint8[5] memory v, bytes32[5] memory r, bytes32[5] memory s, Models.Status status) public {\n        require(tokens[tokenAddress].status == Models.Status.New, \"ivalid tokenAddress\");\n        require(status == Models.Status.Success, \"ivalid status\");\n        require(status == Models.Status.Rejected, \"ivalid status\");\n        \n        int count = 0;\n        for(uint i = 0; i < 5; i++) {\n            count += ecrecover(keccak256(abi.encodePacked(\"\\x19Ethereum Signed Message:\\n22\", abi.encodePacked(tokenAddress, uint8(status)))),\n                v[i], r[i], s[i]) == admins[i] ? 1 : 0;\n        }\n        require(count >= bftCoefficent, \"admins vote count is less bftCoefficent\");\n\n        tokens[tokenAddress].status = status;\n    }\n\n    function withdrawPastDueReqest(bytes32 requestHash) public {\n        require(requests[requestHash].status == Models.Status.New, \"request not exist\");\n        require(block.number > requests[requestHash].height + timeout, \"rq not expire\");\n\n        if (requests[requestHash].tokenAddress == address(0x00)) {\n            requests[requestHash].owner.transfer(requests[requestHash].tokenAmount);\n        } else {\n            require(Token(requests[requestHash].tokenAddress).transferFrom(address(this), requests[requestHash].owner, requests[requestHash].tokenAmount), \"invalid balance\");\n        }\n        requests[requestHash].status = Models.Status.Returned;\n    }\n\n    function createEthRequest(string memory target, Models.RqType rqType, uint unlockAmount) public payable returns (bytes32) {\n        require(rqType == Models.RqType.Lock || rqType == Models.RqType.Unlock, \"rq type is not equals token type\");\n\n        uint amount = rqType == Models.RqType.Lock ? msg.value : unlockAmount;\n        bytes32 requestHash = sha256(abi.encodePacked(this, msg.sender, target, amount, block.number));\n        require(requests[requestHash].status == Models.Status.None, \"request exist\");\n\n        requests[requestHash] = Models.Request(\n            {status: Models.Status.New, rType: rqType, owner: msg.sender, target: target, height: block.number, tokenAmount: amount, tokenAddress: address(0x00) });\n        emit NewRequest(requestHash, msg.sender, target);\n        return requestHash;\n    }\n\n    function createTokenRequest(string memory target, Models.RqType rqType,\n            uint256 amount, address tokenAddress) public returns (bytes32) {\n\n        require(tokenAddress != address(0x00), \"invalid tokenAddress\");\n        require(tokens[tokenAddress].status == Models.Status.Success, \"ivalid tokenAddress\");\n        require(amount > 0, \"value less or equals 0\");\n\n        require(tokens[tokenAddress].tokenType == Models.TokenType.NativeToken &&\n            (rqType == Models.RqType.Lock || rqType == Models.RqType.Unlock), \"rq type is not equals token type\");\n        require(tokens[tokenAddress].tokenType == Models.TokenType.InputToken &&\n            (rqType == Models.RqType.Burn || rqType == Models.RqType.Mint), \"rq type is not equals token type\");\n\n        require((rqType == Models.RqType.Burn || rqType == Models.RqType.Lock) &&\n            Token(tokenAddress).transferFrom(msg.sender, address(this), amount), \"invalid balance\");\n\n\n        bytes32 requestHash = sha256(abi.encodePacked(this, msg.sender, target, amount, block.number));\n        require(requests[requestHash].status == Models.Status.None, \"request exist\");\n\n        requests[requestHash] = Models.Request(\n            {status: Models.Status.New, rType: rqType, owner: msg.sender, target: target, height: block.number, tokenAmount: amount, tokenAddress: tokenAddress });\n        emit NewRequest(requestHash, msg.sender, target);\n        return requestHash;\n    }\n\n    function changeStatus(bytes32 requestHash, uint8[5] memory v, bytes32[5] memory r, bytes32[5] memory s, Models.Status status) public {\n        require(requests[requestHash].status == Models.Status.New, \"status is now new\");\n        require(status == Models.Status.Success || status == Models.Status.Rejected, \"invalid status\");\n        require(block.number <= requests[requestHash].height + timeout, \"rq expire\");\n        \n        address tokenAddress = requests[requestHash].tokenAddress;\n        int count = 0;\n        for(uint i = 0; i < 5; i++) {\n            count += ecrecover(keccak256(abi.encodePacked(\"\\x19Ethereum Signed Message:\\n33\", abi.encodePacked(requestHash, uint8(status)))),\n                v[i], r[i], s[i]) == admins[i] ? 1 : 0;\n        }\n\n        require(count >= bftCoefficent, \"admins vote count is less bftCoefficent\");\n\n        if (status == Models.Status.Success) {\n            if (requests[requestHash].rType == Models.RqType.Mint) {\n                require(Token(tokenAddress).mint(requests[requestHash].owner, requests[requestHash].tokenAmount), \"invalid balance\");\n            } else if (requests[requestHash].rType == Models.RqType.Unlock) {\n                if (tokenAddress == address(0x00)) {\n                    requests[requestHash].owner.transfer(requests[requestHash].tokenAmount);\n                } else {\n                    require(Token(tokenAddress).transferFrom(address(this), requests[requestHash].owner, requests[requestHash].tokenAmount), \"invalid balance\");\n                }\n            }\n        } else if (status == Models.Status.Rejected) {\n            if (requests[requestHash].rType == Models.RqType.Burn) {\n                require(Token(tokenAddress).transferFrom(address(this), requests[requestHash].owner, requests[requestHash].tokenAmount), \"invalid balance\");\n            } else if (requests[requestHash].rType == Models.RqType.Lock) {\n                if (tokenAddress == address(0x00)) {\n                    requests[requestHash].owner.transfer(requests[requestHash].tokenAmount);\n                } else {\n                   require(Token(tokenAddress).transferFrom(address(this), requests[requestHash].owner, requests[requestHash].tokenAmount), \"invalid balance\");\n                }\n            }\n        }\n        requests[requestHash].status = status;\n        emit StatusChanged(requestHash, status);\n    }\n}",
  "sourcePath": "/home/anon/gitproject/Gravity-Hub-Org/gateway-contract/ethereum/contracts/Supersymmetry.sol",
  "compiler": {
    "name": "solc",
    "version": "0.5.16+commit.9c3226ce.Emscripten.clang"
  },
  "schemaVersion": "3.0.23",
  "updatedAt": "2020-04-07T19:15:24.418Z",
  "devdoc": {
    "methods": {}
  },
  "userdoc": {
    "methods": {}
  }
}